:020000040800F2
:100000000000022049230008DD1F0008E51F00084A
:10001000ED1F0008F51F0008FD1F0008000000008C
:1000200000000000000000000000000005200008A3
:100030001320000800000000212000082F200008E5
:1000400099230008992300089923000899230008A0
:100050009923000899230008992300089923000890
:100060009923000899230008992300089923000880
:1000700099230008992300083D20000899230008CF
:100080009923000899230008992300089923000860
:100090009923000899230008992300089923000850
:1000A0009923000899230008992300089923000840
:1000B0009923000899230008992300089923000830
:1000C0009923000899230008992300089923000820
:1000D000992300089923000899230008512000085B
:1000E0009923000899230008992300089923000800
:1000F00099230008992300089923000899230008F0
:1001000099230008992300089923000899230008DF
:1001100099230008992300089923000899230008CF
:1001200099230008992300089923000899230008BF
:1001300099230008992300089923000899230008AF
:10014000992300089923000899230008992300089F
:10015000992300089923000899230008992300088F
:10016000992300089923000899230008992300087F
:100170009923000899230008992300080000000033
:080180009923000899230008EF
:1001900010B5054C237833B9044B13B10448AFF3C1
:1001A00000800123237010BDD80100200000000052
:1001B000BC87000808B5034B1BB103490348AFF3E4
:1001C000008008BD00000000DC010020BC870008A2
:1001D00001F0FF01102A2BDB10F0070F08D010F8F8
:1001E000013B013A8B422DD010F0070F42B3F6D1FC
:1001F000F0B441EA012141EA014122F007047FF015
:1002000000070023F0E80256083C85EA010586EA6B
:10021000010685FA47F5A3FA87F586FA47F6A5FAA7
:1002200087F68EB9EED1F0BC01F0FF0102F00702B3
:1002300032B110F8013B013A83EA010313B1F8D15E
:100240000020704701387047002D06BF354603383F
:10025000073815F0010F07D1013015F4807F02BF78
:10026000013015F4C03F0130F0BC0138704700BFC9
:10027000034613F8012B002AFBD1181A01387047E6
:1002800081F0004102E000BF83F0004330B54FEA47
:1002900041044FEA430594EA050F08BF90EA020FB4
:1002A0001FBF54EA000C55EA020C7FEA645C7FEA47
:1002B000655C00F0E2804FEA5454D4EB5555B8BF6A
:1002C0006D420CDD2C4480EA020281EA030382EADB
:1002D000000083EA010180EA020281EA0303362D6D
:1002E00088BF30BD11F0004F4FEA01314FF4801C40
:1002F0004CEA113102D0404261EB410113F0004F52
:100300004FEA03334CEA133302D0524263EB430308
:1003100094EA050F00F0A780A4F10104D5F1200EA6
:100320000DDB02FA0EFC22FA05F2801841F1000101
:1003300003FA0EF2801843FA05F359410EE0A5F1D5
:1003400020050EF1200E012A03FA0EFC28BF4CF006
:10035000020C43FA05F3C01851EBE37101F00045BC
:1003600007D54FF0000EDCF1000C7EEB00006EEBC9
:100370000101B1F5801F1BD3B1F5001F0CD3490853
:100380005FEA30004FEA3C0C04F101044FEA4452AA
:1003900012F5800F80F09A80BCF1004F08BF5FEA31
:1003A000500C50F1000041EB045141EA050130BD11
:1003B0005FEA4C0C404141EB0101013C28BFB1F523
:1003C000801FE9D291F0000F04BF01460020B1FA6E
:1003D00081F308BF2033A3F10B03B3F120020CDA41
:1003E0000C3208DD02F1140CC2F10C0201FA0CF01F
:1003F00021FA02F10CE002F11402D8BFC2F1200C84
:1004000001FA02F120FA0CFCDCBF41EA0C01904039
:10041000E41AA2BF01EB0451294330BD6FEA040482
:100420001F3C1CDA0C340EDC04F11404C4F120026D
:1004300020FA04F001FA02F340EA030021FA04F37F
:1004400045EA030130BDC4F10C04C4F1200220FAD6
:1004500002F001FA04F340EA0300294630BD21FA14
:1004600004F0294630BD94F0000F83F4801306BFDA
:1004700081F480110134013D4EE77FEA645C18BFCE
:100480007FEA655C29D094EA050F08BF90EA020F65
:1004900005D054EA000C04BF1946104630BD91EA5D
:1004A000030F1EBF0021002030BD5FEA545C05D160
:1004B0004000494128BF41F0004130BD14F580049F
:1004C0003CBF01F5801130BD01F0004545F0FE4113
:1004D00041F470014FF0000030BD7FEA645C1ABF48
:1004E000194610467FEA655C1CBF0B46024650EA7F
:1004F000013406BF52EA033591EA030F41F40021AB
:1005000030BD00BF90F0000F04BF0021704730B530
:100510004FF4806404F132044FF000054FF0000105
:1005200050E700BF90F0000F04BF0021704730B5C6
:100530004FF4806404F1320410F0004548BF40429B
:100540004FF000013EE700BF42004FEAE2014FEAF0
:1005500031014FEA02701FBF12F07F4393F07F4FCB
:1005600081F06051704732F07F4208BF704793F0CE
:100570007F4F04BF41F40021704730B54FF46074E1
:1005800001F0004521F000411CE700BF50EA0102E4
:1005900008BF704730B54FF000050AE050EA01028D
:1005A00008BF704730B511F0004502D5404261EBFD
:1005B00041014FF4806404F132045FEA915C3FF43E
:1005C000D8AE4FF003025FEADC0C18BF03325FEADB
:1005D000DC0C18BF033202EBDC02C2F1200300FA8C
:1005E00003FC20FA02F001FA03FE40EA0E0021FAB1
:1005F00002F11444BDE600BF70B54FF0FF0C4CF49F
:10060000E06C1CEA11541DBF1CEA135594EA0C0F50
:1006100095EA0C0F00F0DEF82C4481EA030621EA8B
:100620004C5123EA4C5350EA013518BF52EA0335C6
:1006300041F4801143F4801338D0A0FB02CE4FF078
:100640000005E1FB02E506F00042E0FB03E54FF0A8
:100650000006E1FB03569CF0000F18BF4EF0010EA0
:10066000A4F1FF04B6F5007F64F5407404D25FEA9C
:100670004E0E6D4146EB060642EAC62141EA55514F
:100680004FEAC52040EA5E504FEACE2EB4F1FD0C91
:1006900088BFBCF5E06F1ED8BEF1004F08BF5FEA0F
:1006A000500E50F1000041EB045170BD06F00046C1
:1006B00046EA010140EA020081EA0301B4EB5C046E
:1006C000C2BFD4EB0C0541EA045170BD41F4801166
:1006D0004FF0000E013C00F3AB8014F1360FDEBF8B
:1006E000002001F0004170BDC4F10004203C35DA67
:1006F0000C341BDC04F11404C4F1200500FA05F3EA
:1007000020FA04F001FA05F240EA020001F000428A
:1007100021F0004110EBD37021FA04F642EB060100
:100720005EEA430E08BF20EAD37070BDC4F10C042A
:10073000C4F1200500FA04F320FA05F001FA04F2EE
:1007400040EA020001F0004110EBD37041F10001DA
:100750005EEA430E08BF20EAD37070BDC4F12005E5
:1007600000FA05F24EEA020E20FA04F301FA05F24D
:1007700043EA020321FA04F001F0004121FA04F2F5
:1007800020EA020000EBD3705EEA430E08BF20EAC5
:10079000D37070BD94F0000F0FD101F000464000FF
:1007A00041EB010111F4801F08BF013CF7D041EA81
:1007B000060195F0000F18BF704703F00046520085
:1007C00043EB030313F4801F08BF013DF7D043EA56
:1007D0000603704794EA0C0F0CEA135518BF95EA0C
:1007E0000C0F0CD050EA410618BF52EA4306D1D193
:1007F00081EA030101F000414FF0000070BD50EAB2
:10080000410606BF1046194652EA430619D094EA3B
:100810000C0F02D150EA013613D195EA0C0F05D125
:1008200052EA03361CBF104619460AD181EA030179
:1008300001F0004141F0FE4141F470014FF0000031
:1008400070BD41F0FE4141F4780170BD70B54FF0CC
:10085000FF0C4CF4E06C1CEA11541DBF1CEA13554C
:1008600094EA0C0F95EA0C0F00F0A7F8A4EB05042E
:1008700081EA030E52EA03354FEA013100F0888025
:100880004FEA03334FF0805545EA131343EA1263EE
:100890004FEA022245EA111545EA10654FEA0026A3
:1008A0000EF000419D4208BF964244F1FD0404F55C
:1008B000407402D25B084FEA3202B61A65EB0305B8
:1008C0005B084FEA32024FF480104FF4002CB6EB75
:1008D000020E75EB030E22BFB61A754640EA0C00F5
:1008E0005B084FEA3202B6EB020E75EB030E22BF35
:1008F000B61A754640EA5C005B084FEA3202B6EB76
:10090000020E75EB030E22BFB61A754640EA9C0034
:100910005B084FEA3202B6EB020E75EB030E22BF04
:10092000B61A754640EADC0055EA060E18D04FEAC2
:10093000051545EA16754FEA06164FEAC30343EA62
:1009400052734FEAC2025FEA1C1CC0D111F4801F2F
:100950000BD141EA00014FF000004FF0004CB6E728
:1009600011F4801F04BF01430020B4F1FD0C88BFC7
:10097000BCF5E06F3FF6AFAEB5EB030C04BFB6EBD2
:10098000020C5FEA500C50F1000041EB045170BDC5
:100990000EF0004E4EEA113114EB5C04C2BFD4EBF2
:1009A0000C0541EA045170BD41F480114FF0000E76
:1009B000013C90E645EA060E8DE60CEA135594EAF2
:1009C0000C0F08BF95EA0C0F3FF43BAF94EA0C0FF5
:1009D0000AD150EA01347FF434AF95EA0C0F7FF46A
:1009E00025AF104619462CE795EA0C0F06D152EABE
:1009F00003353FF4FDAE1046194622E750EA4106A2
:100A000018BF52EA43067FF4C5AE50EA41047FF4B2
:100A10000DAF52EA43057FF4EBAE12E74FF0FF3C17
:100A200006E000BF4FF0010C02E000BF4FF0010CE8
:100A30004DF804CD4FEA410C7FEA6C5C4FEA430C61
:100A400018BF7FEA6C5C1BD001B050EA410C0CBFB0
:100A500052EA430C91EA030F02BF90EA020F002012
:100A6000704710F1000F91EA030F58BF994208BF79
:100A700090422CBFD8176FEAE37040F00100704736
:100A80004FEA410C7FEA6C5C02D150EA013C07D18D
:100A90004FEA430C7FEA6C5CD6D152EA033CD3D0D8
:100AA0005DF8040B704700BF8446104662468C46D2
:100AB0001946634600E000BF01B5FFF7B7FF002805
:100AC00048BF10F1000F01BD4DF808EDFFF7F4FF2E
:100AD0000CBF012000205DF808FB00BF4DF808EDB9
:100AE000FFF7EAFF34BF012000205DF808FB00BFDC
:100AF0004DF808EDFFF7E0FF94BF012000205DF8FE
:100B000008FB00BF4DF808EDFFF7CEFF94BF0120B2
:100B100000205DF808FB00BF4DF808EDFFF7C4FFAB
:100B200034BF012000205DF808FB00BF4FEA410CF4
:100B30007FEA6C5C02D150EA013C0AD14FEA430CD7
:100B40007FEA6C5C02D152EA033C02D14FF0000014
:100B500070474FF0010070474FEA410212F5001252
:100B600015D211D56FF47873B3EB625212D94FEAF4
:100B7000C12343F0004343EA505311F0004F23FADE
:100B800002F018BF404270474FF00000704750EA33
:100B9000013005D111F0004008BF6FF000407047F0
:100BA0004FF00000704700BF53B94AB9002908BF91
:100BB00000281CBF4FF0FF314FF0FF3000F088B924
:100BC000ADF1080C6DE904CE00F006F8DDF804E0A4
:100BD000DDE9022304B070472DE9F047089D8E46F9
:100BE00004468846002B4AD18A42174662D9B2FA97
:100BF00082F64EB1C6F1200301FA06F820FA03F39B
:100C0000B74043EA0808B4404FEA174E1FFA87FC82
:100C1000B8FBFEF1230C0EFB118843EA084301FBED
:100C20000CF29A4209D9FB1801F1FF3080F0EA80FA
:100C30009A4240F2E78002393B449A1AA3B2B2FBCF
:100C4000FEF00EFB102243EA024300FB0CFC9C4525
:100C500009D9FB1800F1FF3280F0D6809C4540F2A4
:100C6000D3803B44023840EA0140A3EB0C0300214F
:100C70001DB1F3400022C5E90032BDE8F0878B4288
:100C800005D90DB1C5E9000100210846F5E7B3FA21
:100C900083F1002946D1734502D3824200F20581D7
:100CA000841A6EEB030201209046002DE5D0C5E9C1
:100CB0000048E2E7002A00F09080B2FA82F6002EA7
:100CC00040F0A4808A1A030C4FEA174E80B2BCB2DF
:100CD0000121B2FBFEFC0EFB1C2243EA024304FB93
:100CE0000CF29A4207D9FB180CF1FF3802D29A4253
:100CF00000F2E080C4469B1AB3FBFEF20EFB1233F7
:100D000040EA034302FB04F49C4207D9FB1802F1BA
:100D1000FF3002D29C4200F2CA8002461B1B42EA0C
:100D20000C40A5E7C1F120068B4022FA06F71F43CD
:100D30000EFA01F420FA06F32EFA06FE4FEA1749DE
:100D4000234300FA01F81FFA87FCBEFBF9F01C0CE4
:100D500009FB10EE44EA0E4400FB0CFEA64502FA25
:100D600001F209D93C1900F1FF3A80F09C80A645B8
:100D700040F2998002383C44A4EB0E041FFA83FE33
:100D8000B4FBF9F309FB13444EEA044403FB0CFCE7
:100D9000A44508D93C1903F1FF3E80F08280A445A8
:100DA0007FD9023B3C4443EA0040A4EB0C04A0FB87
:100DB00002EC64457346E14662D35FD05DB1B8EBA7
:100DC000030264EB090404FA06F622FA01F31E4357
:100DD000CC40C5E9006400214FE7B1FBF2FC010CF7
:100DE00041EA0E4180B240EA01423B4638463C4669
:100DF000B846BE462026B1FBF7F1A2EB080241EA55
:100E00000C4166E7014618E710462CE7C6F12002C0
:100E10002EFA02F3B740B14020FA02F24FEA174E21
:100E20000A43B3FBFEF8BCB20EFB1833110C41EAC7
:100E3000034108FB04F9B04089454FEA104380B2F2
:100E40003ED9791808F1FF3C01D289451FD8A1EBA2
:100E50000901B1FBFEF909FB04F80EFB191192B26E
:100E600042EA0142424529D2BA1809F1FF31C4D2FF
:100E70004245C2D2A9F102013A44BEE7F0459DD2F3
:100E8000BEEB02036CEB070C0138E14696E7A7EBDB
:100E900009094944A8F1020CB1FBFEF909FB04F869
:100EA000DBE773467FE7504666E70846FDE63B44CE
:100EB000023A33E7ACF1020C3B441CE749469CE79D
:100EC000A1EB0901C446B1FBFEF909FB04F8C4E734
:100ED000704700BF80B400AF0B4B1A680B4B1B6808
:100EE0009A4205D3084B1A68084B1B68D31A06E0D0
:100EF000054B1A68054B1B68D31A03F50073184697
:100F0000BD465DF8047B7047F4030020F803002021
:100F100080B487B000AF7860396000237B6172B61F
:100F200000BF00233B611BE0154B1B680133C3F37B
:100F30000803FB60134B1B68FA689A4215D07A6865
:100F40003B691A440E4B1B6811780F4AD1540C4A66
:100F5000FB6813607B6901337B613B6901333B6153
:100F60003A693B689A42DFD300E000BF62B600BF37
:100F70007B6918461C37BD465DF8047B704700BF8F
:100F8000F4030020F8030020F401002080B485B0B1
:100F900000AF786039600023FB6072B600BF11E0DB
:100FA000124B1A687968FB680B4411498A5C1A7005
:100FB0000E4B1B680133C3F308030C4A1360FB6834
:100FC0000133FB60094B1A680A4B1B689A4203D035
:100FD000FA683B689A42E3D362B600BFFB681846E2
:100FE0001437BD465DF8047B704700BFF80300204E
:100FF000F4010020F403002080B500AF064B00226E
:101000001A60064B00221A60054B00221A70054830
:1010100005F0F6FA00BF80BDF4030020F8030020BD
:10102000FC030020D88700080FB480B5A2B000AF41
:1010300007F194033B60381D3B68D7F8902080216E
:1010400005F058FBC7F88400D7F88430002B06DD84
:10105000D7F884203B1D11461846FFF759FF00BF03
:101060008837BD46BDE8804004B0704780B584B085
:1010700000AF1B4B1B78DBB2002B2AD1FFF72AFFF6
:10108000F860FB68002B26D0FB68802B28BF8023EC
:10109000BB60B9681348FFF779FF78607B68002B65
:1010A0001AD00F4B01221A707B689BB21A460D4969
:1010B0000D4803F0D9FB0346FB70FB78002B0BD0E7
:1010C000074B00221A70FB781946084805F028FAE9
:1010D00002E000BF00E000BF1037BD4680BD00BF8A
:1010E000FC03002000040020E8040020F48700082E
:1010F00080B500AF044B1B78DBB2002B01D1FFF7AA
:10110000B5FF00BF80BD00BFFC03002080B500AF6D
:10111000034B00221A70FFF7A9FF00BF80BD00BF7C
:10112000FC03002080B582B000AF01F09DF90346BA
:1011300003F59C5308337B6004E0FFF7D9FF0A20D6
:1011400001F09EF9FFF7C6FE0346002B05D001F023
:101150008BF902467B689342EFD8FFF7BBFE03464C
:10116000002B06D0FFF7B6FE03461946034805F0EC
:10117000D7F900BF0837BD4680BD00BF38880008DA
:1011800080B58CB000AF754805F03AFA744805F0A8
:1011900037FA744B1B689B68184605F0EBF864201F
:1011A00001F06EF9704805F02BFA6E4B1B689B68D6
:1011B000184605F0DFF801F057F978620023FB626A
:1011C00006E0F96A694805F0ABF9FB6A0133FB6296
:1011D000FB6A632BF5DD634B1B689B68184605F0C3
:1011E000C9F801F041F938623A6A7B6AD31AFB61A7
:1011F000C82001F045F95E4805F002FA594B1B681A
:101200009B68184605F0B6F8642001F039F901F042
:101210002BF9B8610023BB6206E0B96A5548FFF7B5
:1012200003FFBB6A0133BB62BB6A632BF5DD01F0D0
:101230001BF978617A69BB69D31A3B6101F014F933
:10124000F860FFF76FFF01F00FF9B860BA68FB684C
:10125000D31A7B60484805F0D3F9424B1B689B6862
:10126000184605F087F8454805F0CAF93D4B1B685C
:101270009B68184605F07EF8F969414805F050F979
:10128000384B1B689B68184605F074F839693D486F
:1012900005F046F9334B1B689B68184605F06AF861
:1012A0007968394805F03CF92E4B1B689B68184655
:1012B00005F060F83A697B6813441946334805F035
:1012C0002FF9284B1B689B68184605F053F83048E7
:1012D00005F096F9234B1B689B68184605F04AF801
:1012E000FB6907EE903AB8EE677A3B6907EE903AF1
:1012F000F8EE677AC7EE276A16EE900AFFF724F930
:1013000002460B46234805F00BF9164B1B689B68F9
:10131000184605F02FF83B6907EE903AF8EE677A29
:101320009FED1D7A27EE877AFB6907EE903AF8EE7B
:10133000677AC7EE276A16EE900AFFF705F90246AC
:101340000B46164805F0ECF8064B1B689B681846E0
:1013500005F010F800BF3037BD4680BD6C8900082D
:10136000948900081C000020B4890008D489000872
:10137000E4890008048A0008148A0008348A0008F6
:101380004C8A0008648A00087C8A00089C8A00084D
:10139000B48A0008C88A00080000C842E88A000829
:1013A00090B58DB000AF744805F02AF9734805F088
:1013B00027F9734B1B689B68184604F0DBFF642019
:1013C00001F05EF800237B6001F04EF878610023A5
:1013D000FB6220E00023BB6205E07B6801337B6099
:1013E000BB6A0133BB62BB6AB3F57A7FF5DBF96A8E
:1013F000644805F095F800237B6205E07B680133C3
:101400007B607B6A01337B627B6AB3F57A7FF5DBB5
:10141000FB6A0133FB62FB6A312BDBDD584B1B6837
:101420009B68184604F0A6FF01F01EF802467B698F
:10143000D31A3B61C82001F023F801F015F8F860D9
:1014400000233B6222E00023FB6105E07B6801335F
:101450007B60FB690133FB61FB69B3F57A7FF5DBE8
:10146000396A4848FFF7E0FD0023BB6105E07B686F
:1014700001337B60BB690133BB61BB69B3F57A7F24
:10148000F5DBFFF735FE3B6A01333B623B6A312BEC
:10149000D9DD00F0E9FF0246FB68D31ABB60FFF715
:1014A00041FE394805F0ACF8354B1B689B6818467F
:1014B00004F060FF354805F0A3F8314B1B689B68CA
:1014C000184604F057FF3969314805F029F82C4BCC
:1014D0001B689B68184604F04DFFB9682D4805F05D
:1014E0001FF8274B1B689B68184604F043FF3A69B6
:1014F000BB68D41A3A69BB68D31A07EE903AF8EE83
:10150000677A9FED257A27EE877A3B6907EE903A56
:10151000F8EE677AC7EE276A16EE900AFFF714F81E
:1015200002460B4621461D4804F0FAFF144B1B6887
:101530009B68184604F01EFF3B6907EE903AB8EE30
:10154000677ABB6807EE903AF8EE677AC7EE276ACB
:1015500016EE900AFEF7F8FF02460B46104804F01C
:10156000DFFF074B1B689B68184604F003FF00BFB2
:101570003437BD4690BD00BF148B0008388B00087F
:101580001C000020648B0008808B00089C8B0008E6
:10159000BC8B0008E08B00080000C842048C0008E7
:1015A000248C000880B58CB000AF894805F028F87D
:1015B000884805F025F8884B1B689B68184604F09E
:1015C000D9FE00233B6000F04FFF38620023FB622E
:1015D00005E03B6801333B60FB6A0133FB62FB6A59
:1015E00042F20F729342F4DD00F03EFF02463B6A86
:1015F000D31AFB6100233B6000F036FFB861002383
:10160000BB621CE03B6801333B60BA6A734B83FBEF
:1016100002135911D317CB1A642101FB03F3D31A18
:10162000002B09D1B96A6E4804F07AFF6A4B1B6837
:101630009B68184604F09EFEBB6A0133BB62BB6A1E
:1016400042F20F729342DDDD00F00EFF0246BB69ED
:10165000D31A7B6100233B6000F006FF3861002352
:101660007B6226E03B6801333B607A6A5B4B83FB1D
:1016700002135911D317CB1A642101FB03F3D31AB8
:10168000002B03D1796A5748FFF7CEFC7A6A564B94
:1016900083FB0213D912D317CB1A41F2883101FB15
:1016A00003F3D31A002B01D1FFF722FD7B6A01332C
:1016B0007B627B6A42F20F729342D3DD00F0D4FE6C
:1016C00002463B69D31AFB6000F0CEFEB860FFF71C
:1016D00029FD00F0C9FE0246BB68D31A7B6043486F
:1016E00004F08EFF3C4B1B689B68184604F042FEDA
:1016F000F9693F4804F014FF374B1B689B68184694
:1017000004F038FE79693B4804F00AFF324B1B684D
:101710009B68184604F02EFEF968374804F000FF75
:101720002D4B1B689B68184604F024FE79683348EB
:1017300004F0F6FE284B1B689B68184604F01AFE5E
:101740002F4804F05DFF244B1B689B68184604F08B
:1017500011FE7A69FB69D31A19462A4804F0E0FEA3
:101760001D4B1B689B68184604F004FEFA68FB6971
:10177000D31A1946244804F0D3FE174B1B689B6804
:10178000184604F0F7FD7A69FB68D31A07EE903A21
:10179000F8EE677A9FED1D7A27EE877A7B6907EE70
:1017A000903AF8EE677AC7EE276A16EE900AFEF7CF
:1017B000CBFE02460B46164804F0B2FE064B1B68F1
:1017C0009B68184604F0D6FD00BF3037BD4680BD8B
:1017D0004C8C00086C8C00081C0000201F85EB510D
:1017E000948C0008AC8C0008AD8BDB68C08C0008C2
:1017F000DC8C0008F48C0008108D00082C8D00088B
:10180000548D0008648D0008848D00080000C842D3
:10181000A08D000880B500AF0A2004F093FE244894
:1018200004F0EEFE234804F0EBFE214804F0E8FE4D
:1018300002F072F8034619461F4804F071FE1F4873
:1018400004F0DEFE1A4804F0DBFE1D4B1B689B68AB
:10185000184604F08FFDFFF793FC4FF4FA7000F088
:101860000FFEFFF79DFD4FF4FA7000F009FEFFF741
:1018700099FE4FF4FA7000F003FE124804F0C0FE27
:10188000114804F0BDFE0A4804F0BAFE0F4804F007
:10189000B7FE0F4804F0B4FE054804F0B1FE084B53
:1018A0001B689B68184604F065FD00BF80BD00BF43
:1018B000BC8D0008E88D0008108E0008288E0008F6
:1018C0001C000020408E00086C8E0008908E0008DE
:1018D000B48E000880B500AF054B1B685868044BF8
:1018E0001B681B890022194601F09EFC00BF80BDC9
:1018F0000000002080B500AF054B1B685868044B02
:101900001B681B890122194601F08EFC00BF80BDB7
:101910000000002080B582B000AF0523FB71FFF707
:10192000D9FF0F4B1B681868F91D6423012202F0D0
:1019300076F90B4B1B681868B91D6423012202F06D
:10194000B2FAFFF7D7FFBB7903F00103002B0CBFFE
:1019500001230023DBB218460837BD4680BD00BF17
:101960000000002080B582B000AF0623FB71FFF7B6
:10197000B1FF074B1B681868F91D6423012202F0B0
:101980004EF9FFF7B7FF00BF0837BD4680BD00BF67
:101990000000002080B500AF02E0012000F070FDE3
:1019A000FFF7B8FF034683F00103DBB2002BF4D14D
:1019B00000BF00BF80BD000080B500AF094B1B68B1
:1019C000094A1A60074B1B6808221A81054B1B68DD
:1019D000064A5A60FFF78EFF0A2000F051FD00BF53
:1019E00080BD00BF000000208C04002000100240D9
:1019F00080B586B000AFF860B9607A6003233B75AC
:101A0000FB681B0CDBB27B75FB681B0ADBB2BB758A
:101A1000FB68DBB2FB75FFF75DFF0C4B1B681868BA
:101A200007F114016423042202F0F9F8074B1B6844
:101A300018687B689AB24FF47A73B96802F033FA87
:101A4000FFF758FF00BF1837BD4680BD00000020DB
:101A500080B586B000AFF860B9607A607B68B3F596
:101A6000807F02D94FF480737B60FFF77BFF0223F6
:101A70003B75FB681B0CDBB27B75FB681B0ADBB29A
:101A8000BB75FB68DBB2FB75FFF724FF0D4B1B68D2
:101A9000186807F114016423042202F0C0F8094B0E
:101AA0001B6818687B689AB24FF47A73B96802F0C1
:101AB000B6F8FFF71FFFFFF76DFF00BF1837BD46F1
:101AC00080BD00BF0000002080B584B000AF78600A
:101AD000FFF748FF20233B737B681B0CDBB27B7353
:101AE0007B681B0ADBB2BB737B68DBB2FB73FFF75F
:101AF000F1FE084B1B68186807F10C0164230422EF
:101B000002F08DF8FFF7F6FEFFF744FF00BF103735
:101B1000BD4680BD0000002090B589B000AF1E4BCF
:101B200007F110040FCB07C4238002341B0C237071
:101B30000023FB773B4600221A605A609A60DA6005
:101B40000020FFF7C1FF07F1100310221946002003
:101B5000FFF77EFF3B46102219460020FFF748FFA3
:101B600007F1100319460D4804F0DAFC0C4B1B6812
:101B70009B68184604F0FEFB3B461946094804F0F2
:101B8000CFFC074B1B689B68184604F0F3FB00BFB3
:101B90002437BD4690BD00BF988F0008708F0008A5
:101BA0001C000020848F000880B582B000AF0023A5
:101BB0007B600C4B1B6B0B4A43F400131363094B04
:101BC0001B6B03F400137B607B68002200210E2056
:101BD00000F055FD0E2000F06EFD00BF0837BD4639
:101BE00080BD00BF0038024080B58CB000AF07F167
:101BF0001C0300221A605A609A60DA601A6100239E
:101C0000BB61344B1B6B334A43F010031363314BFE
:101C10001B6B03F01003BB61BB6900237B612D4B81
:101C20001B6B2C4A43F0040313632A4B1B6B03F01A
:101C300004037B617B6900233B61264B1B6B254AB8
:101C400043F080031363234B1B6B03F080033B6162
:101C50003B690023FB601F4B1B6B1E4A43F00203D2
:101C600013631C4B1B6B03F00203FB60FB68002338
:101C7000BB60184B1B6B174A43F008031363154BEB
:101C80001B6B03F00803BB60BB6800237B60114B38
:101C90001B6B104A43F0010313630E4B1B6B03F0E5
:101CA00001037B607B68002208210B4801F0BCFA2D
:101CB0000823FB6101233B6200237B620023BB629C
:101CC00007F11C031946044801F012F900BF303730
:101CD000BD4680BD003802400010024080B584B08F
:101CE00000AFF860B9607A607B689AB26423B96823
:101CF000034802F02DFD7B6818461037BD4680BDB5
:101D0000E804002080B500AF00F048FB00F018F8B0
:101D1000FFF76AFFFFF748FF00F060FA00F090F865
:101D2000064804F06DFCFFF747FEFFF765F9FFF783
:101D3000F3FEFFF76FFDFFF7DBF9FCE7C88F000844
:101D400080B594B000AF07F120033022002118467F
:101D500004F072FD07F10C0300221A605A609A60C9
:101D6000DA601A610023BB60284B1B6C274A43F0E2
:101D700080531364254B1B6C03F08053BB60BB681E
:101D800000237B60224B1B68214A43F4804313608D
:101D90001F4B1B6803F480437B607B6801233B621D
:101DA0004FF480337B620223BB634FF48003FB63F9
:101DB00019233B644FF4A8737B640223BB640423A0
:101DC000FB6407F12003184601F048FA0346002B94
:101DD00001D000F02FF80F23FB6002233B610023AA
:101DE0007B614FF4A053BB614FF48053FB6107F15B
:101DF0000C030521184601F0A9FC0346002B01D075
:101E000000F018F800BF5037BD4680BD00380240D2
:101E10000070004080B582B000AF78607B68044AF3
:101E2000934201D1FFF772F900BF0837BD4680BD6C
:101E3000E804002080B400AF72B600BF00BFFDE729
:101E400080B500AF194B1A4A1A60184B4FF48272D2
:101E50005A60164B00229A60144B0022DA60134B32
:101E600000221A61114B00225A61104B4FF400728C
:101E70009A610E4B0022DA610C4B00221A620B4B66
:101E800000225A62094B00229A62084B0A22DA6247
:101E9000064801F03BFE0346002B01D0FFF7CAFFC6
:101EA0000449054804F03CFB00BF80BD8C040020C1
:101EB00000380040F08F0008DC8F000880B58AB041
:101EC00000AF786007F1140300221A605A609A602C
:101ED000DA601A617B681B68284A93424AD1002362
:101EE0003B61274B1B6C264A43F480431364244B0D
:101EF0001B6C03F480433B613B690023FB60204B78
:101F00001B6B1F4A43F0040313631D4B1B6B03F051
:101F10000403FB60FB680023BB60194B1B6B184A72
:101F200043F002031363164B1B6B03F00203BB6009
:101F3000BB680C237B610223BB610023FB6103238D
:101F40003B6205237B6207F1140319460D4800F03C
:101F5000CFFF4FF480637B610223BB610023FB61F1
:101F600003233B6205237B6207F1140319460648ED
:101F700000F0BEFF00BF2837BD4680BD00380040DE
:101F800000380240000802400004024080B483B0E0
:101F900000AF00237B60104B5B6C0F4A43F480431F
:101FA00053640D4B5B6C03F480437B607B680023C0
:101FB0003B60094B1B6C084A43F080531364064B8B
:101FC0001B6C03F080533B603B6800BF0C37BD4681
:101FD0005DF8047B704700BF0038024080B400AF5A
:101FE00000BFFDE780B400AF00BFFDE780B400AFE5
:101FF00000BFFDE780B400AF00BFFDE780B400AFD5
:1020000000BFFDE780B400AF00BFBD465DF8047BB4
:10201000704780B400AF00BFBD465DF8047B7047D9
:1020200080B400AF00BFBD465DF8047B704780B54B
:1020300000AF00F005FA00BF80BD000080B500AF22
:10204000024800F0EBFC00BF80BD00BF300500205F
:1020500080B500AF024802F083FC00BF80BD00BF26
:10206000E804002080B400AF01231846BD465DF8A7
:10207000047B704780B582B000AF7860396004F0AF
:102080002DFC034616221A604FF0FF33184608371E
:10209000BD4680BD80B582B000AF78604FF0FF31A3
:1020A0007868FFF7E7FF00BFFDE780B586B000AFB7
:1020B000F860B9607A6000237B610AE0AFF30080CA
:1020C0000146BB685A1CBA60CAB21A707B690133F8
:1020D0007B617A697B689A42F0DB7B681846183727
:1020E000BD4680BD80B483B000AF78604FF0FF3351
:1020F00018460C37BD465DF8047B704780B483B04A
:1021000000AF786039603B684FF400525A6000239A
:1021100018460C37BD465DF8047B704780B483B029
:1021200000AF7860012318460C37BD465DF8047B8C
:10213000704780B485B000AFF860B9607A60002362
:1021400018461437BD465DF8047B704780B586B0ED
:1021500000AF7860144A154BD31A7B617B693B61F1
:10216000134B1B68002B02D1114B124A1A60104B03
:102170001A687B6813443A699A4207D204F0AEFBAE
:1021800003460C221A604FF0FF3309E0084B1B682E
:10219000FB60074B1A687B681344054A1360FB68B1
:1021A00018461837BD4680BD00000220000400001C
:1021B000E4040020E006002080B400AF064BD3F812
:1021C0008830054A43F47003C2F8883000BFBD462A
:1021D0005DF8047B704700BF00ED00E080B500AF04
:1021E000114B124A1A60104B4FF4E1325A600E4BF9
:1021F00000229A600C4B0022DA600B4B00221A611D
:10220000094B0C225A61084B00229A61064B0022AE
:10221000DA61054802F04CFA0346002B01D0FFF7C3
:1022200009FE00BF80BD00BFE80400200048004058
:1022300080B58AB000AF786007F1140300221A60FD
:102240005A609A60DA601A617B681B68394A934267
:102250006BD100233B61384B1B6C374A43F480231E
:102260001364354B1B6C03F480233B613B690023F3
:10227000FB60314B1B6B304A43F0080313632E4B5A
:102280001B6B03F00803FB60FB684FF440737B613A
:102290000223BB610123FB6103233B6207237B62B3
:1022A00007F114031946254800F022FE244B254A65
:1022B0001A60234B4FF000625A60214B40229A6013
:1022C0001F4B0022DA601E4B4FF480621A611C4BD8
:1022D00000225A611A4B00229A61194B0022DA61DE
:1022E000174B00221A62164B04225A62144B00222A
:1022F0009A62134B0022DA62114B00221A631048D3
:1023000000F0F4F90346002B01D0FFF793FD7B6842
:102310000B4A9A630A4A7B689363002200212720B4
:1023200000F0ADF9272000F0C6F900BF2837BD4600
:1023300080BD00BF0048004000380240000C024051
:102340003005002058600240DFF834D0FFF734FF3A
:102350000C480D490D4A002302E0D458C450043300
:10236000C4188C42F9D30A4A0A4C002301E01360D6
:102370000432A242FBD304F0B7FAFFF7C3FC704764
:102380000000022000000020D8010020A4930008D3
:10239000D8010020E0060020FEE7000080B500AF75
:1023A0000E4B1B680D4A43F4007313600B4B1B6804
:1023B0000A4A43F480631360084B1B68074A43F4DE
:1023C00080731360032000F04FF90F2000F008F82D
:1023D000FFF7DCFD0023184680BD00BF003C024033
:1023E00080B582B000AF7860124B1A68124B1B7830
:1023F00019464FF47A73B3FBF1F3B2FBF3F31846CB
:1024000000F067F90346002B01D001230EE07B6842
:102410000F2B0AD8002279684FF0FF3000F02FF917
:10242000064A7B681360002300E001231846083742
:10243000BD4680BD040000200C00002008000020E4
:1024400080B400AF064B1B781A46064B1B6813443A
:10245000044A136000BFBD465DF8047B704700BFAF
:102460000C0000209005002080B400AF034B1B68D7
:102470001846BD465DF8047B704700BF90050020FC
:1024800080B584B000AF7860FFF7EEFFB8607B687E
:10249000FB60FB68B3F1FF3F05D00A4B1B781A467F
:1024A000FB681344FB6000BFFFF7DEFF0246BB681A
:1024B000D31AFA689A42F7D800BF00BF1037BD465A
:1024C00080BD00BF0C00002080B485B000AF7860F4
:1024D0007B6803F00703FB600C4BDB68BB60BA68EA
:1024E0004FF6FF031340BB60FB681A02BB6813433F
:1024F00043F0BF6343F40033BB60044ABB68D3605E
:1025000000BF1437BD465DF8047B704700ED00E066
:1025100080B400AF044BDB681B0A03F007031846C6
:10252000BD465DF8047B704700ED00E080B483B0E9
:1025300000AF0346FB7197F90730002B0BDBFB79EB
:1025400003F01F02074997F907305B09012000FAE1
:1025500002F241F8232000BF0C37BD465DF8047B32
:10256000704700BF00E100E080B483B000AF0346D5
:102570003960FB7197F90730002B0ADB3B68DAB250
:102580000C4997F907301201D2B20B4483F80023AB
:102590000AE03B68DAB20849FB7903F00F03043B19
:1025A0001201D2B20B441A7600BF0C37BD465DF85B
:1025B000047B704700E100E000ED00E080B489B0EA
:1025C00000AFF860B9607A60FB6803F00703FB6155
:1025D000FB69C3F10703042B28BF0423BB61FB691C
:1025E0000433062B02D9FB69033B00E000237B6127
:1025F0004FF0FF32BB6902FA03F3DA43BB681A40BB
:102600007B699A404FF0FF317B6901FA03F3D943AC
:102610007B680B40134318462437BD465DF8047BA6
:102620007047000080B582B000AF78607B68013BE6
:10263000B3F1807F01D301230FE00A4A7B68013B9D
:1026400053600F214FF0FF30FFF78EFF054B002244
:102650009A60044B07221A60002318460837BD46CB
:1026600080BD00BF10E000E080B582B000AF7860B0
:102670007868FFF729FF00BF0837BD4680BD80B5E9
:1026800086B000AF0346B9607A60FB7300237B61BC
:10269000FFF73EFF78617A68B9687869FFF78EFFC7
:1026A000024697F90F3011461846FFF75DFF00BF4D
:1026B0001837BD4680BD80B582B000AF0346FB71C0
:1026C00097F907301846FFF731FF00BF0837BD46BE
:1026D00080BD80B582B000AF78607868FFF7A2FF58
:1026E000034618460837BD4680BD000080B586B059
:1026F00000AF786000237B61FFF7B6FE38617B682E
:10270000002B01D1012399E07B68022283F8352058
:102710007B68002283F834207B681B681A687B681A
:102720001B6822F001021A600FE0FFF79DFE0246CF
:102730003B69D31A052B08D97B6820225A657B6830
:10274000032283F83520032378E07B681B681B682D
:1027500003F00103002BE8D17B681B681B687B61D9
:102760007A69384B13407B617B685A687B689B6849
:102770001A437B68DB681A437B681B691A437B68D2
:102780005B691A437B689B691A437B68DB691A4360
:102790007B681B6A13437A6913437B617B685B6ABE
:1027A000042B07D17B68DA6A7B681B6B13437A6959
:1027B00013437B617B681B687A691A607B681B68BE
:1027C0005B697B617B6923F007037B617B685B6AE4
:1027D0007A6913437B617B685B6A042B17D17B6842
:1027E0009B6A7A6913437B617B68DB6A002B0ED09E
:1027F000786800F001FB0346002B08D07B6840227C
:102800005A657B68012283F83520012316E07B6836
:102810001B687A695A61786800F0B8FA0346FB6071
:102820007B68DB6D3F229A40FB689A607B680022E0
:102830005A657B68012283F8352000231846183733
:10284000BD4680BD3F8010F080B586B000AFF86017
:10285000B9607A603B600023FB75FB689B6D3B6150
:10286000FB6893F83430012B01D1022340E0FB6870
:10287000012283F83420FB6893F83530DBB2012B5A
:102880002FD1FB68022283F83520FB6800225A65AD
:102890003B687A68B968F86800F04AFAFB68DB6D53
:1028A0003F229A403B699A60FB681B681A68FB6884
:1028B0001B6842F016021A60FB681B6C002B07D0E5
:1028C000FB681B681A68FB681B6842F008021A6004
:1028D000FB681B681A68FB681B6842F001021A60FB
:1028E00005E0FB68002283F834200223FB75FB7DA2
:1028F00018461837BD4680BD80B584B000AF7860FB
:102900007B689B6DFB60FFF7AFFDB8607B6893F859
:102910003530DBB2022B08D07B6880225A657B6899
:10292000002283F83420012352E07B681B681A6878
:102930007B681B6822F016021A607B681B685A6964
:102940007B681B6822F080025A617B681B6C002B3D
:1029500003D17B689B6C002B07D07B681B681A68CF
:102960007B681B6822F008021A607B681B681A6883
:102970007B681B6822F001021A6013E0FFF774FD08
:102980000246BB68D31A052B0CD97B6820225A65F6
:102990007B68032283F835207B68002283F834208B
:1029A000032315E07B681B681B6803F00103002B01
:1029B000E4D17B68DB6D3F229A40FB689A607B68BC
:1029C000012283F835207B68002283F8342000231D
:1029D00018461037BD4680BD80B483B000AF786024
:1029E0007B6893F83530DBB2022B04D07B68802201
:1029F0005A6501230CE07B68052283F835207B684B
:102A00001B681A687B681B6822F001021A600023A9
:102A100018460C37BD465DF8047B704780B586B01C
:102A200000AF78600023BB608E4B1B688E4AA2FB10
:102A300003239B0A7B617B689B6D3B613B691B6841
:102A4000FB607B68DB6D08229A40FB681340002B1B
:102A50001AD07B681B681B6803F00403002B13D09B
:102A60007B681B681A687B681B6822F004021A6086
:102A70007B68DB6D08229A403B699A607B685B6DDE
:102A800043F001027B685A657B68DB6D01229A4046
:102A9000FB681340002B12D07B681B685B6903F056
:102AA0008003002B0BD07B68DB6D01229A403B69D1
:102AB0009A607B685B6D43F002027B685A657B68B5
:102AC000DB6D04229A40FB681340002B12D07B6818
:102AD0001B681B6803F00203002B0BD07B68DB6DC7
:102AE00004229A403B699A607B685B6D43F0040264
:102AF0007B685A657B68DB6D10229A40FB68134047
:102B0000002B43D07B681B681B6803F00803002B75
:102B10003CD07B68DB6D10229A403B699A607B68F1
:102B20001B681B6803F48023002B18D07B681B688C
:102B30001B6803F40023002B08D17B681B6C002B5F
:102B400024D07B681B6C786898471FE07B689B6C7F
:102B5000002B1BD07B689B6C7868984716E07B68DD
:102B60001B681B6803F48073002B07D17B681B680C
:102B70001A687B681B6822F008021A607B681B6C6D
:102B8000002B03D07B681B6C786898477B68DB6DF3
:102B900020229A40FB681340002B00F08F807B6856
:102BA0001B681B6803F01003002B00F087807B6814
:102BB000DB6D20229A403B699A607B6893F8353040
:102BC000DBB2052B36D17B681B681A687B681B68F3
:102BD00022F016021A607B681B685A697B681B68C2
:102BE00022F080025A617B681B6C002B03D17B684A
:102BF0009B6C002B07D07B681B681A687B681B687E
:102C000022F008021A607B68DB6D3F229A403B6924
:102C10009A607B68012283F835207B68002283F864
:102C200034207B681B6D002B7ED07B681B6D786821
:102C3000984779E07B681B681B6803F48023002BAE
:102C40001DD07B681B681B6803F40023002B0DD18B
:102C50007B685B6C002B31D07B685B6C7868984735
:102C60002CE000BF04000020B5814E1B7B68DB6BAD
:102C7000002B23D07B68DB6B786898471EE07B686D
:102C80001B681B6803F48073002B0FD17B681B68E3
:102C90001A687B681B6822F010021A607B680122A8
:102CA00083F835207B68002283F834207B68DB6B57
:102CB000002B03D07B68DB6B786898477B685B6D83
:102CC000002B32D07B685B6D03F00103002B22D018
:102CD0007B68052283F835207B681B681A687B684F
:102CE0001B6822F001021A60BB680133BB607A697D
:102CF0009A4207D37B681B681B6803F00103002B13
:102D0000F2D100E000BF7B68012283F835207B68A8
:102D1000002283F834207B68DB6C002B05D07B68B5
:102D2000DB6C7868984700E000BF1837BD4680BD6F
:102D300080B485B000AFF860B9607A603B60FB6832
:102D40001B681A68FB681B6822F480221A60FB6803
:102D50001B683A685A60FB689B68402B08D1FB6887
:102D60001B687A689A60FB681B68BA68DA6007E0DB
:102D7000FB681B68BA689A60FB681B687A68DA604F
:102D800000BF1437BD465DF8047B704780B485B042
:102D900000AF78607B681B68DBB2103B144AA2FB73
:102DA00003231B09FB60134AFB6813441B781A4674
:102DB0007B68DA65FB68032B09D97B681B6823F401
:102DC0007F7323F003031A1D7B689A6507E07B6815
:102DD0001B6823F47F7323F003037A6893657B6891
:102DE0009B6D18461437BD465DF8047B704700BFE5
:102DF000ABAAAAAA1890000880B485B000AF78608A
:102E00000023FB737B689B6ABB607B689B69002B1C
:102E10001FD1BB68032B56D801A252F823F000BF84
:102E2000312E0008432E0008312E0008C72E00085E
:102E30007B68DB6A03F08073002B46D00123FB73B1
:102E400043E07B68DB6AB3F1C07F40D10123FB73B1
:102E50003DE07B689B69B3F5005F21D1BB68032B24
:102E600037D801A252F823F0792E00087F2E0008EF
:102E7000792E0008912E00080123FB7330E07B6857
:102E8000DB6A03F08073002B25D00123FB7322E063
:102E90007B68DB6AB3F1C07F1FD10123FB731CE0A9
:102EA000BB68022B03D9BB68032B03D018E00123B6
:102EB000FB7315E07B68DB6A03F08073002B0ED098
:102EC0000123FB730BE000BF0AE000BF08E000BF76
:102ED00006E000BF04E000BF02E000BF00E000BF6A
:102EE000FB7B18461437BD465DF8047B704700BF76
:102EF00080B489B000AF7860396000237B61002323
:102F00003B610023BB610023FB616BE10122FB6994
:102F100002FA03F37B613B681B687A6913403B61EB
:102F20003A697B699A4240F05A813B685B6803F0DA
:102F30000303012B05D03B685B6803F00303022BFE
:102F400030D17B689B68BB61FB695B00032202FA9E
:102F500003F3DB43BA691340BB613B68DA68FB6982
:102F60005B0002FA03F3BA691343BB617B68BA6979
:102F70009A607B685B68BB610122FB6902FA03F31C
:102F8000DB43BA691340BB613B685B681B0903F014
:102F90000102FB6902FA03F3BA691343BB617B6860
:102FA000BA695A603B685B6803F00303032B17D0D0
:102FB0007B68DB68BB61FB695B00032202FA03F3F9
:102FC000DB43BA691340BB613B689A68FB695B00ED
:102FD00002FA03F3BA691343BB617B68BA69DA602A
:102FE0003B685B6803F00303022B23D1FB69DA081B
:102FF0007B68083253F82230BB61FB6903F007039A
:103000009B000F2202FA03F3DB43BA691340BB6152
:103010003B681A69FB6903F007039B0002FA03F39C
:10302000BA691343BB61FB69DA087B680832B96986
:1030300043F822107B681B68BB61FB695B000322BD
:1030400002FA03F3DB43BA691340BB613B685B6878
:1030500003F00302FB695B0002FA03F3BA6913434E
:10306000BB617B68BA691A603B685B6803F44033F4
:10307000002B00F0B4800023FB60604B5B6C5F4A68
:1030800043F4804353645D4B5B6C03F48043FB600B
:10309000FB685B4AFB699B08023352F82330BB6133
:1030A000FB6903F003039B000F2202FA03F3DB43E7
:1030B000BA691340BB617B68524A93422BD07B684C
:1030C000514A934225D07B68504A93421FD07B6877
:1030D0004F4A934219D07B684E4A934213D07B6883
:1030E0004D4A93420DD07B684C4A934207D07B688F
:1030F0004B4A934201D107230EE008230CE006233C
:103100000AE0052308E0042306E0032304E0022389
:1031100002E0012300E00023FA6902F003029200BA
:103120009340BA691343BB613549FB699B0802337D
:10313000BA6941F823203B4B9B68BB613B69DB4389
:10314000BA691340BB613B685B6803F48013002BD2
:1031500003D0BA693B691343BB61324ABB699360D0
:10316000304BDB68BB613B69DB43BA691340BB6131
:103170003B685B6803F40013002B03D0BA693B691A
:103180001343BB61274ABB69D360264B5B68BB61B5
:103190003B69DB43BA691340BB613B685B6803F47E
:1031A0000033002B03D0BA693B691343BB611D4A4E
:1031B000BB6953601B4B1B68BB613B69DB43BA694E
:1031C0001340BB613B685B6803F48033002B03D082
:1031D000BA693B691343BB61124ABB691360FB695F
:1031E0000133FB61FB690F2B7FF690AE00BF00BF80
:1031F0002437BD465DF8047B704700BF00380240AD
:103200000038014000000240000402400008024073
:10321000000C02400010024000140240001802405E
:10322000001C0240003C014080B483B000AF7860D5
:103230000B467B8013467B707B78002B03D07A880B
:103240007B689A6103E07B881A047B689A6100BFFF
:103250000C37BD465DF8047B7047000080B586B032
:1032600000AF78607B68002B01D1012367E27B68A7
:103270001B6803F00103002B75D0884B9B6803F09B
:103280000C03042B0CD0854B9B6803F00C03082B1C
:1032900012D1824B5B6803F48003B3F5800F0BD12E
:1032A0007E4B1B6803F40033002B5BD07B685B68AC
:1032B000002B57D1012342E27B685B68B3F5803F66
:1032C00006D1764B1B68754A43F4803313601DE0CA
:1032D0007B685B68B3F5A02F0CD1704B1B686F4AFD
:1032E00043F4802313606D4B1B686C4A43F48033B6
:1032F00013600BE0694B1B68684A23F4803313604A
:10330000664B1B68654A23F4802313607B685B6807
:10331000002B13D0FFF7A8F8386108E0FFF7A4F8F6
:1033200002463B69D31A642B01D9032307E25B4BA6
:103330001B6803F40033002BF0D014E0FFF794F87F
:10334000386108E0FFF790F802463B69D31A642B16
:1033500001D90323F3E1514B1B6803F40033002B25
:10336000F0D100E000BF7B681B6803F00203002B74
:1033700063D04A4B9B6803F00C03002B0BD0474BE8
:103380009B6803F00C03082B1CD1444B5B6803F4CF
:103390008003002B16D1414B1B6803F00203002B66
:1033A00005D07B68DB68012B01D00123C7E13B4BD3
:1033B0001B6823F0F8027B681B69DB003749134365
:1033C0000B603AE07B68DB68002B20D0344B012295
:1033D0001A60FFF749F8386108E0FFF745F8024640
:1033E0003B69D31A022B01D90323A8E12B4B1B689D
:1033F00003F00203002BF0D0284B1B6823F0F802E7
:103400007B681B69DB00254913430B6015E0244BE7
:1034100000221A60FFF728F8386108E0FFF724F867
:1034200002463B69D31A022B01D9032387E11B4BC8
:103430001B6803F00203002BF0D17B681B6803F0CC
:103440000803002B36D07B685B69002B16D0154B28
:1034500001221A60FFF708F8386108E0FFF704F866
:1034600002463B69D31A022B01D9032367E10B4BB8
:103470005B6F03F00203002BF0D01BE0094B00222E
:103480001A60FEF7F1FF38610EE0FEF7EDFF02462D
:103490003B69D31A022B07D9032350E100380240BD
:1034A00000004742800E4742884B5B6F03F00203E7
:1034B000002BEAD17B681B6803F00403002B00F0AB
:1034C00097800023FB75814B1B6C03F08053002B0E
:1034D0000FD10023BB607D4B1B6C7C4A43F08053B3
:1034E00013647A4B1B6C03F08053BB60BB680123F1
:1034F000FB75774B1B6803F48073002B18D1744B5A
:103500001B68734A43F480731360FEF7ADFF3861A4
:1035100008E0FEF7A9FF02463B69D31A022B01D946
:1035200003230CE16A4B1B6803F48073002BF0D07B
:103530007B689B68012B06D1644B1B6F634A43F089
:10354000010313671CE07B689B68052B0CD15F4B64
:103550001B6F5E4A43F0040313675C4B1B6F5B4AAF
:1035600043F0010313670BE0584B1B6F574A23F0DE
:1035700001031367554B1B6F544A23F00403136771
:103580007B689B68002B15D0FEF76EFF38610AE060
:10359000FEF76AFF02463B69D31A41F28832934232
:1035A00001D90323CBE0494B1B6F03F00203002B2F
:1035B000EED014E0FEF758FF38610AE0FEF754FF42
:1035C00002463B69D31A41F28832934201D9032360
:1035D000B5E03E4B1B6F03F00203002BEED1FB7DE9
:1035E000012B05D1394B1B6C384A23F080531364EF
:1035F0007B689B69002B00F0A180344B9B6803F033
:103600000C03082B5CD07B689B69022B41D1314BAA
:1036100000221A60FEF728FF386108E0FEF724FF59
:1036200002463B69D31A022B01D9032387E0274BBB
:103630001B6803F00073002BF0D17B68DA697B68AC
:103640001B6A1A437B685B6A9B011A437B689B6A0F
:103650005B08013B1B041A437B68DB6A1B061B49A2
:1036600013434B601B4B01221A60FEF7FDFE3861CD
:1036700008E0FEF7F9FE02463B69D31A022B01D996
:1036800003235CE0114B1B6803F00073002BF0D0A8
:1036900054E0104B00221A60FEF7E6FE386108E0A5
:1036A000FEF7E2FE02463B69D31A022B01D903233F
:1036B00045E0064B1B6803F00073002BF0D13DE0A2
:1036C0007B689B69012B07D1012338E00038024059
:1036D00000700040600047421B4B5B68FB607B68EA
:1036E0009B69012B28D0FB6803F480027B68DB69AF
:1036F0009A4221D1FB6803F03F027B681B6A9A4221
:103700001AD1FA6847F6C07313407A68526A920178
:10371000934211D1FB6803F440327B689B6A5B08DB
:10372000013B1B049A4207D1FB6803F070627B687F
:10373000DB6A1B069A4201D0012300E000231846F1
:103740001837BD4680BD00BF0038024080B584B048
:1037500000AF786039607B68002B01D10123CCE099
:10376000684B1B6803F007033A689A420CD9654B13
:103770003A68D2B21A70634B1B6803F007033A68C9
:103780009A4201D00123B8E07B681B6803F0020372
:10379000002B20D07B681B6803F00403002B05D0AE
:1037A000594B9B68584A43F4E05393607B681B680D
:1037B00003F00803002B05D0534B9B68524A43F497
:1037C00060439360504B9B6823F0F0027B689B68DA
:1037D0004D4913438B607B681B6803F00103002B8A
:1037E00044D07B685B68012B07D1474B1B6803F40F
:1037F0000033002B19D101237FE07B685B68022B2B
:1038000003D07B685B68032B07D13F4B1B6803F039
:103810000073002B09D101236FE03B4B1B6803F0C1
:103820000203002B01D1012367E0374B9B6823F093
:1038300003027B685B68344913438B60FEF714FE18
:10384000F8600AE0FEF710FE0246FB68D31A41F268
:103850008832934201D903234FE02B4B9B6803F03E
:103860000C027B685B689B009A42EBD1254B1B687E
:1038700003F007033A689A420CD2224B3A68D2B25C
:103880001A70204B1B6803F007033A689A4201D074
:10389000012332E07B681B6803F00403002B08D08F
:1038A000194B9B6823F4E0527B68DB68164913438D
:1038B0008B607B681B6803F00803002B09D0124B58
:1038C0009B6823F460427B681B69DB000E4913434D
:1038D0008B6000F021F802460B4B9B681B0903F03C
:1038E0000F030A49CB5C22FA03F3094A1360094B20
:1038F0001B681846FEF774FD002318461037BD46B6
:1039000080BD00BF003C024000380240009000082B
:1039100004000020080000202DE9B04F90B000AF57
:1039200000237B630023FB6300233B630023BB6313
:10393000594B9B6803F00C03082B0DD0082B00F2A9
:10394000A180002B02D0042B03D09BE0534BBB6320
:103950009BE0534BBB6398E04F4B5B6803F03F0326
:103960007B634D4B5B6803F48003002B28D04A4BEC
:103970005B689B0900223B627A623B6AC3F30800E2
:103980000021474B03FB01F2002300FB03F3134428
:10399000434AA0FB0212FA620A46BA62FA6A134468
:1039A000FB627B6B0022BB61FA61D7E90623D7E992
:1039B0000A01FDF7F9F802460B461346FB6353E094
:1039C000354B5B689B0900223B617A613B69C3F31D
:1039D000080A4FF0000B52465B464FF000004FF0D4
:1039E0000001590141EAD261500102460B46B2EB97
:1039F0000A0863EB0B094FF000024FF000034FEA97
:103A0000891343EA98634FEA8812B2EB080463EB28
:103A100009054FF000024FF00003EB0043EA547336
:103A2000E20014461D4614EB0A033B6045EB0B0312
:103A30007B604FF000024FF00003D7E900452946B4
:103A40008B02214643EA915321468A0210461946C9
:103A50007B6B0022BB60FA60D7E90223FDF7A4F874
:103A600002460B461346FB630B4B5B681B0C03F0D3
:103A7000030301335B003B63FA6B3B6BB2FBF3F375
:103A8000BB6302E0054BBB6300BFBB6B184640370E
:103A9000BD46BDE8B08F00BF003802400024F400EE
:103AA00040787D0180B400AF034B1B681846BD46CB
:103AB0005DF8047B704700BF0400002080B500AFB4
:103AC000FFF7F0FF0246054B9B689B0A03F00703D4
:103AD0000349CB5C22FA03F3184680BD003802404C
:103AE0001090000880B500AFFFF7DCFF0246054BE1
:103AF0009B685B0B03F007030349CB5C22FA03F3DB
:103B0000184680BD003802401090000880B582B091
:103B100000AF78607B68002B01D101237BE07B68DC
:103B20005B6A002B08D17B685B68B3F5827F09D0A4
:103B30007B680022DA6105E07B6800221A617B68FD
:103B400000225A617B6800229A627B6893F85130A8
:103B5000DBB2002B06D17B68002283F85020786806
:103B6000FEF7ACF97B68022283F851207B681B6862
:103B70001A687B681B6822F040021A607B685B68E9
:103B800003F482727B689B6803F404431A437B68E6
:103B9000DB6803F400631A437B681B6903F00203CC
:103BA0001A437B685B6903F001031A437B689B69D6
:103BB00003F400731A437B68DB6903F038031A438C
:103BC0007B681B6A03F0800342EA03017B689B6AFF
:103BD00003F400527B681B680A431A607B689B6988
:103BE0001B0C03F004017B685B6A03F010027B6826
:103BF0001B680A435A607B681B68DA697B681B682C
:103C000022F40062DA617B6800225A657B68012237
:103C100083F85120002318460837BD4680BD80B583
:103C200088B000AFF860B9603B601346FB80FEF7D8
:103C30001BFCF861FB887B83FB6893F85130DBB297
:103C4000012B01D002232AE1BB68002B02D0FB88A4
:103C5000002B01D1012322E1FB6893F85030012BA6
:103C600001D102231BE1FB68012283F85020FB688D
:103C7000032283F85120FB6800225A65FB68BA686A
:103C80001A63FB68FA889A86FB68FA88DA86FB680A
:103C900000229A63FB6800229A87FB680022DA8779
:103CA000FB6800225A64FB6800221A64FB689B6868
:103CB000B3F5004F0FD1FB681B681A68FB681B68DF
:103CC00022F040021A60FB681B681A68FB681B68D8
:103CD00042F480421A60FB681B681B6803F04003D3
:103CE000402B07D0FB681B681A68FB681B6842F012
:103CF00040021A60FB68DB68B3F5006F52D1FB68C5
:103D00005B68002B02D07B8B012B45D1FB681B6BC2
:103D10001A88FB681B68DA60FB681B6B9A1CFB68DF
:103D20001A63FB68DB8E9BB2013B9AB2FB68DA86B2
:103D300032E0FB681B689B6803F00203022B12D180
:103D4000FB681B6B1A88FB681B68DA60FB681B6BDF
:103D50009A1CFB681A63FB68DB8E9BB2013B9AB22C
:103D6000FB68DA8618E0FEF77FFB0246FB69D31A90
:103D70003A689A4203D83B68B3F1FF3F02D13B68EF
:103D8000002B09D1FB68012283F85120FB68002237
:103D900083F85020032382E0FB68DB8E9BB2002B6C
:103DA000C7D153E0FB685B68002B02D07B8B012BF3
:103DB00047D1FB681A6BFB681B680C3312781A70CA
:103DC000FB681B6B5A1CFB681A63FB68DB8E9BB29B
:103DD000013B9AB2FB68DA8633E0FB681B689B689C
:103DE00003F00203022B13D1FB681A6BFB681B68FC
:103DF0000C3312781A70FB681B6B5A1CFB681A6331
:103E0000FB68DB8E9BB2013B9AB2FB68DA8618E056
:103E1000FEF72AFB0246FB69D31A3A689A4203D896
:103E20003B68B3F1FF3F02D13B68002B09D1FB682F
:103E3000012283F85120FB68002283F850200323DD
:103E40002DE0FB68DB8E9BB2002BC6D1FA69396886
:103E5000F86800F0D9FB0346002B02D0FB68202253
:103E60005A65FB689B68002B0AD100237B61FB68C5
:103E70001B68DB687B61FB681B689B687B617B69F7
:103E8000FB68012283F85120FB68002283F8502050
:103E9000FB685B6D002B01D0012300E00023184676
:103EA0002037BD4680BD80B588B002AFF860B960EC
:103EB0003B601346FB80FB6893F85130DBB2012B6B
:103EC00001D0022304E1BB68002B02D0FB88002B49
:103ED00001D10123FCE0FB685B68B3F5827F12D15E
:103EE000FB689B68002B0ED1FB68042283F85120ED
:103EF000FA883B6800931346BA68B968F86800F01E
:103F0000EBF80346E4E0FEF7AFFA7861FB6893F85C
:103F10005030012B01D10223DAE0FB68012283F843
:103F20005020FB68042283F85120FB6800225A6568
:103F3000FB68BA689A63FB68FA889A87FB68FA8814
:103F4000DA87FB6800221A63FB6800229A86FB6806
:103F50000022DA86FB6800221A64FB6800225A6499
:103F6000FB689B68B3F5004F0FD1FB681B681A68AC
:103F7000FB681B6822F040021A60FB681B681A6825
:103F8000FB681B6822F480421A60FB681B681B6890
:103F900003F04003402B07D0FB681B681A68FB68DE
:103FA0001B6842F040021A60FB68DB68002B70D18E
:103FB00035E0FB681B689B6803F00103012B15D1FA
:103FC000FB681B6803F10C02FB689B6B1278D2B292
:103FD0001A70FB689B6B5A1CFB689A63FB68DB8F4B
:103FE0009BB2013B9AB2FB68DA8718E0FEF73CFA15
:103FF00002467B69D31A3A689A4203D83B68B3F108
:10400000FF3F02D13B68002B09D1FB68012283F8F6
:104010005120FB68002283F85020032358E0FB68FE
:10402000DB8F9BB2002BC4D138E0FB681B689B6818
:1040300003F00103012B13D1FB681B68DA68FB68EE
:104040009B6B92B21A80FB689B6B9A1CFB689A630D
:10405000FB68DB8F9BB2013B9AB2FB68DA8718E002
:10406000FEF702FA02467B69D31A3A689A4203D8ED
:104070003B68B3F1FF3F02D13B68002B09D1FB68DD
:10408000012283F85120FB68002283F8502003238B
:104090001EE0FB68DB8F9BB2002BC6D17A693968C2
:1040A000F86800F04BFA0346002B02D0FB68202290
:1040B0005A65FB68012283F85120FB68002283F8CF
:1040C0005020FB685B6D002B01D0012300E0002332
:1040D00018461837BD4680BD80B58AB000AFF8607D
:1040E000B9607A607B8001237B62FEF7BDF938629C
:1040F000FB6893F85130FB77FB685B68BB617B889A
:10410000FB82FB7F012B0CD0BB69B3F5827F06D10C
:10411000FB689B68002B02D1FB7F042B01D002239C
:104120007FE1BB68002B05D07B68002B02D07B8829
:10413000002B01D1012374E1FB6893F85030012B6F
:1041400001D102236DE1FB68012283F85020FB6856
:1041500093F85130DBB2042B03D0FB68052283F8BF
:104160005120FB6800225A65FB687A689A63FB68F5
:104170007A88DA87FB687A889A87FB68BA681A6354
:10418000FB687A88DA86FB687A889A86FB68002260
:104190001A64FB6800225A64FB681B681B6803F002
:1041A0004003402B07D0FB681B681A68FB681B683C
:1041B00042F040021A60FB68DB68B3F5006F7ED105
:1041C000FB685B68002B02D0FB8A012B6CD1FB687B
:1041D0001B6B1A88FB681B68DA60FB681B6B9A1CF8
:1041E000FB681A63FB68DB8E9BB2013B9AB2FB68EB
:1041F000DA8659E0FB681B689B6803F00203022B18
:104200001BD1FB68DB8E9BB2002B16D07B6A012B87
:1042100013D1FB681B6B1A88FB681B68DA60FB68AC
:104220001B6B9A1CFB681A63FB68DB8E9BB2013B1D
:104230009AB2FB68DA8600237B62FB681B689B6886
:1042400003F00103012B19D1FB68DB8F9BB2002B1C
:1042500014D0FB681B68DA68FB689B6B92B21A800B
:10426000FB689B6B9A1CFB689A63FB68DB8F9BB2B5
:10427000013B9AB2FB68DA8701237B62FEF7F4F810
:1042800002463B6AD31A3A6B9A420DD83B6BB3F1A4
:10429000FF3F09D0FB68012283F85120FB68002210
:1042A00083F850200323BCE0FB68DB8E9BB2002B1D
:1042B000A0D1FB68DB8F9BB2002B9BD182E0FB6817
:1042C0005B68002B02D0FB8A012B71D1FB681A6B53
:1042D000FB681B680C3312781A70FB681B6B5A1C46
:1042E000FB681A63FB68DB8E9BB2013B9AB2FB68EA
:1042F000DA865DE0FB681B689B6803F00203022B13
:104300001CD1FB68DB8E9BB2002B17D07B6A012B84
:1043100014D1FB681A6BFB681B680C3312781A7097
:10432000FB681B6B5A1CFB681A63FB68DB8E9BB235
:10433000013B9AB2FB68DA8600237B62FB681B684C
:104340009B6803F00103012B19D1FB68DB8F9BB243
:10435000002B14D0FB681B68DA68FB689B6BD2B239
:104360001A70FB689B6B5A1CFB689A63FB68DB8FB7
:104370009BB2013B9AB2FB68DA8701237B62FEF7AE
:1043800073F802463B6AD31A3A6B9A4203D83B6BE6
:10439000B3F1FF3F02D13B6B002B09D1FB68012237
:1043A00083F85120FB68002283F85020032338E073
:1043B000FB68DB8E9BB2002B9CD1FB68DB8F9BB232
:1043C000002B97D13A6A396BF86800F01DF9034663
:1043D000002B08D0FB6820225A65FB68002283F876
:1043E000502001231DE0FB689B68002B0AD10023AD
:1043F0003B61FB681B68DB683B61FB681B689B6873
:104400003B613B69FB68012283F85120FB68002275
:1044100083F85020FB685B6D002B01D0012300E086
:10442000002318462837BD4680BD000080B588B0FF
:1044300000AFF860B9603B601346FB71FEF714F8FB
:104440000246BB6A9B1A3A681344FB61FEF70CF8FC
:10445000B861394B1B685B011B0DFA6902FB03F362
:104460007B6155E03B68B3F1FF3F51D0FDF7FCFFA6
:104470000246BB69D31AFA699A4202D9FB69002B3A
:104480003DD1FB681B685A68FB681B6822F0E0029C
:104490005A60FB685B68B3F5827F11D1FB689B684B
:1044A000B3F5004F04D0FB689B68B3F5806F07D16C
:1044B000FB681B681A68FB681B6822F040021A60E0
:1044C000FB689B6AB3F5005F0FD1FB681B681A6835
:1044D000FB681B6822F400521A60FB681B681A68AC
:1044E000FB681B6842F400521A60FB68012283F8E3
:1044F0005120FB68002283F85020032318E07B69D9
:10450000002B02D10023FB6102E07B69013B7B6150
:10451000FB681B689A68BB681340BA689A420CBF74
:1045200001230023DBB21A46FB799A429AD1002379
:1045300018462037BD4680BD0400002080B586B0F7
:1045400002AFF860B9607A60FB685B68B3F5827FA0
:1045500011D1FB689B68B3F5004F04D0FB689B68E2
:10456000B3F5806F07D1FB681B681A68FB681B688E
:1045700022F040021A60FB685B68B3F5827F2AD1A3
:10458000FB689B68B3F5806F12D07B680093BB68B3
:1045900000228021F868FFF749FF0346002B2DD049
:1045A000FB685B6D43F02002FB685A65032326E03D
:1045B0007B680093BB6800220121F868FFF736FF93
:1045C0000346002B1AD0FB685B6D43F02002FB68AA
:1045D0005A65032313E07B680093BB680022012126
:1045E000F868FFF723FF0346002B07D0FB685B6DDD
:1045F00043F02002FB685A65032300E000231846BD
:104600001037BD4680BD000080B588B002AFF860AD
:10461000B9607A607B680093BB6801220221F86868
:10462000FFF704FF0346002B07D0FB685B6D43F0E8
:104630002002FB685A65032332E01B4B1B681B4AB0
:10464000A2FB03235B0D4FF47A7202FB03F37B6141
:10465000FB685B68B3F5827F12D17B680093BB680F
:1046600000228021F868FFF7E1FE0346002B16D0F8
:10467000FB685B6D43F02002FB685A6503230FE083
:104680007B69002B0AD07B69013B7B61FB681B685F
:104690009B6803F08003802BF2D000E000BF002372
:1046A00018461837BD4680BD04000020819F5E1665
:1046B00080B582B000AF78607B68002B01D1012308
:1046C00042E07B6893F84130DBB2002B06D17B6877
:1046D000002283F840207868FDF7AAFD7B68242239
:1046E00083F841207B681B68DA687B681B6822F4CA
:1046F0000052DA60786800F0C7FE7B681B681A69B0
:104700007B681B6822F490421A617B681B685A69B7
:104710007B681B6822F02A025A617B681B68DA6892
:104720007B681B6842F40052DA607B6800225A649E
:104730007B68202283F841207B68202283F8422076
:104740007B6800225A63002318460837BD4680BDA7
:1047500080B58AB002AFF860B9603B601346FB8059
:1047600000237B61FB6893F84130DBB2202B75D1CD
:10477000BB68002B02D0FB88002B01D101236EE027
:10478000FB6800225A64FB68212283F84120FDF770
:104790006BFE7861FB68FA889A84FB68FA88DA8491
:1047A000FB689B68B3F5805F08D1FB681B69002B31
:1047B00004D10023FB61BB68BB6103E0BB68FB6104
:1047C0000023BB612EE03B6800937B6900228021BF
:1047D000F86800F03EFC0346002B05D0FB68202261
:1047E00083F8412003233AE0FB69002B0BD1BB691E
:1047F0001B881A46FB681B68C2F308025A60BB6933
:104800000233BB6107E0FB691A78FB681B685A60DA
:10481000FB690133FB61FB68DB8C9BB2013B9AB205
:10482000FB68DA84FB68DB8C9BB2002BCBD13B6846
:1048300000937B6900224021F86800F00AFC0346DF
:10484000002B05D0FB68202283F84120032306E0DB
:10485000FB68202283F84120002300E00223184651
:104860002037BD4680BD000080B58CB000AFF86039
:10487000B9601346FB80FB6893F84130DBB2202B14
:1048800062D1BB68002B02D0FB88002B01D1012331
:104890005BE0BA68FB681A62FB68FA889A84FB6876
:1048A000FA88DA84FB6800225A64FB68212283F8C4
:1048B0004120FB689B6B274ADA63FB689B6B264AA7
:1048C0001A64FB689B6B254ADA64FB689B6B0022C9
:1048D0001A6507F10803FB62FB68986BFB6A1968AD
:1048E000FB681B6804331A46FB88FDF7ADFF0346DF
:1048F000002B08D0FB6810225A64FB68202283F842
:104900004120012321E0FB681B686FF040021A6020
:10491000FB681B681433BB61BB6953E8003F7B61D4
:104920007B6943F08003BB62FB681B681433BA6A7F
:104930007A623B62396A7A6A41E80023FB61FB696B
:10494000002BE5D1002300E0022318463037BD4696
:1049500080BD00BF094F0008A34F0008BF4F0008EB
:1049600080B5BAB000AF78607B681B681B68C7F879
:10497000E4307B681B68DB68C7F8E0307B681B6845
:104980005B69C7F8DC300023C7F8D8300023C7F8CC
:10499000D430D7F8E43003F00F03C7F8D830D7F895
:1049A000D830002B0FD1D7F8E43003F02003002BD0
:1049B00009D0D7F8E03003F02003002B03D078684B
:1049C00000F0A4FC73E2D7F8D830002B00F0DE80B2
:1049D000D7F8DC3003F00103002B06D1D7F8E03024
:1049E00003F49073002B00F0D180D7F8E43003F08B
:1049F0000103002B0BD0D7F8E03003F48073002BB9
:104A000005D07B685B6C43F001027B685A64D7F881
:104A1000E43003F00403002B0BD0D7F8DC3003F0B4
:104A20000103002B05D07B685B6C43F002027B68BE
:104A30005A64D7F8E43003F00203002B0BD0D7F808
:104A4000DC3003F00103002B05D07B685B6C43F086
:104A500004027B685A64D7F8E43003F00803002BA3
:104A600011D0D7F8E03003F02003002B05D1D7F8A0
:104A7000DC3003F00103002B05D07B685B6C43F056
:104A800008027B685A647B685B6C002B00F00A822A
:104A9000D7F8E43003F02003002B08D0D7F8E0303B
:104AA00003F02003002B02D0786800F02FFC7B6815
:104AB0001B685B6903F04003402B0CBF01230023FC
:104AC000DBB2C7F8D4307B685B6C03F00803002BC3
:104AD00003D1D7F8D430002B4FD0786800F03AFBE0
:104AE0007B681B685B6903F04003402B41D17B6806
:104AF0001B681433C7F89C30D7F89C3053E8003F4C
:104B0000C7F89830D7F8983023F04003C7F8D03072
:104B10007B681B681433D7F8D020C7F8A820C7F8E3
:104B2000A430D7F8A410D7F8A82041E80023C7F88C
:104B3000A030D7F8A030002BD9D17B68DB6B002BDD
:104B400013D07B68DB6B8A4A1A657B68DB6B18467F
:104B5000FDF742FF0346002B16D07B68DB6B1B6D15
:104B60007A68D26B104698470EE0786800F0B6F984
:104B70000AE0786800F0B2F906E0786800F0AEF973
:104B80007B6800225A648DE100BF8BE17B681B6B60
:104B9000012B40F06781D7F8E43003F01003002BBD
:104BA00000F06081D7F8E03003F01003002B00F034
:104BB00059810023BB607B681B681B68BB607B68F6
:104BC0001B685B68BB60BB687B681B685B6903F044
:104BD0004003402B40F0CE807B68DB6B1B685B683A
:104BE000A7F8BE30B7F8BE30002B00F0A9807B6874
:104BF0009B8DB7F8BE209A4280F0A2807B68B7F800
:104C0000BE20DA857B68DB6BDB69B3F5807F00F063
:104C100088807B681B680C33C7F88830D7F88830E9
:104C200053E8003FC7F88430D7F8843023F480730A
:104C3000C7F8B8307B681B680C33D7F8B820C7F8C2
:104C40009420C7F89030D7F89010D7F8942041E816
:104C50000023C7F88C30D7F88C30002BD9D17B6873
:104C60001B6814337B677B6F53E8003F3B673B6FE8
:104C700023F00103C7F8B4307B681B681433D7F8FE
:104C8000B420C7F88020FB67F96FD7F8802041E88F
:104C90000023BB67BB6F002BE1D17B681B6814331B
:104CA0003B663B6E53E8003FFB65FB6D23F0400322
:104CB000C7F8B0307B681B681433D7F8B020FA66A9
:104CC000BB66B96EFA6E41E800237B667B6E002BF3
:104CD000E3D17B68202283F842207B6800221A639C
:104CE0007B681B680C33FB64FB6C53E8003FBB64C0
:104CF000BB6C23F01003C7F8AC307B681B680C3327
:104D0000D7F8AC20BA657B65796DBA6D41E80023B0
:104D10003B653B6D002BE3D17B68DB6B1846FDF7F1
:104D2000EBFD7B6802225A637B689A8D7B68DB8D82
:104D30009BB2D31A9BB21946786800F0D9F8B3E059
:104D40007B689B8DB7F8BE209A4240F0AD807B68AF
:104D5000DB6BDB69B3F5807F40F0A6807B680222C5
:104D60005A637B689B8D1946786800F0C1F89BE018
:104D70001B5200087B689A8D7B68DB8D9BB2D31A2F
:104D8000A7F8CE307B68DB8D9BB2002B00F08E80C5
:104D9000B7F8CE30002B00F089807B681B680C339D
:104DA000BB63BB6B53E8003F7B637B6B23F4907367
:104DB000C7F8C8307B681B680C33D7F8C8207A6402
:104DC0003B64396C7A6C41E80023FB63FB6B002B7E
:104DD000E3D17B681B6814337B627B6A53E8003F36
:104DE0003B623B6A23F00103C7F8C4307B681B6851
:104DF0001433D7F8C4203A63FB62F96A3A6B41E88E
:104E00000023BB62BB6A002BE3D17B68202283F8BE
:104E100042207B6800221A637B681B680C333B616D
:104E20003B6953E8003FFB60FB6823F01003C7F8C1
:104E3000C0307B681B680C33D7F8C020FA61BB61B7
:104E4000B969FA6941E800237B617B69002BE3D1F2
:104E50007B6802225A63B7F8CE301946786800F0B2
:104E600047F823E0D7F8E43003F08003002B09D0A3
:104E7000D7F8E03003F08003002B03D0786800F00F
:104E8000DDF914E0D7F8E43003F04003002B0ED036
:104E9000D7F8E03003F04003002B08D0786800F02A
:104EA0001DFA04E000BF02E000BF00E000BFE837E9
:104EB000BD4680BD80B483B000AF786000BF0C37C2
:104EC000BD465DF8047B704780B483B000AF786066
:104ED00000BF0C37BD465DF8047B704780B483B0DB
:104EE00000AF786000BF0C37BD465DF8047B7047AB
:104EF00080B483B000AF78600B467B8000BF0C3776
:104F0000BD465DF8047B704780B590B000AF786017
:104F10007B689B6BFB637B681B681B6803F4807377
:104F2000002B37D1FB6B0022DA84FB6B1B68143338
:104F30007B627B6A53E8003F3B623B6A23F080035D
:104F4000BB63FB6B1B681433BA6B3A63FB62F96A91
:104F50003A6B41E80023BB62BB6A002BE5D1FB6BD7
:104F60001B680C333B613B6953E8003FFB60FB6807
:104F700043F040037B63FB6B1B680C337A6BFA6175
:104F8000BB61B969FA6941E800237B617B69002B49
:104F9000E5D102E0F86BFCF73DFF00BF4037BD46AE
:104FA00080BD80B584B000AF78607B689B6BFB6090
:104FB000F868FFF77FFF00BF1037BD4680BD80B5A2
:104FC00084B000AF78600023FB607B689B6BBB60A4
:104FD000BB681B685B6903F08003802B0CBF012357
:104FE0000023DBB2FB60BB6893F84130DBB2212BBE
:104FF00008D1FB68002B05D0BB680022DA84B868B2
:1050000000F080F8BB681B685B6903F04003402B2D
:105010000CBF01230023DBB2FB60BB6893F8423076
:10502000DBB2222B08D1FB68002B05D0BB68002225
:10503000DA85B86800F08EF8BB685B6C43F010024C
:10504000BB685A64B868FFF749FF00BF1037BD4618
:1050500080BD80B586B000AFF860B9603B60134694
:10506000FB713BE03B6AB3F1FF3F37D0FDF7FCF942
:1050700002463B68D31A3A6A9A4202D33B6A002B33
:1050800001D103233AE0FB681B68DB6803F00403EB
:10509000002B23D0BB68802B20D0BB68402B1DD0B9
:1050A000FB681B681B6803F00803082B16D100235C
:1050B0007B61FB681B681B687B61FB681B685B6826
:1050C0007B617B69F86800F045F8FB6808225A6448
:1050D000FB68002283F8402001230FE0FB681B6877
:1050E0001A68BB681340BA689A420CBF01230023B8
:1050F000DBB21A46FB799A42B4D00023184618371F
:10510000BD4680BD80B489B000AF78607B681B6805
:105110000C33FB60FB6853E8003FBB60BB6823F0C7
:10512000C003FB617B681B680C33FA69BA617B6161
:105130007969BA6941E800233B613B69002BE5D1FD
:105140007B68202283F8412000BF2437BD465DF8EC
:10515000047B704780B495B000AF78607B681B68B3
:105160000C337B637B6B53E8003F3B633B6B23F467
:105170009073FB647B681B680C33FA6C3A64FB63C6
:10518000F96B3A6C41E80023BB63BB6B002BE5D1A4
:105190007B681B6814333B623B6A53E8003FFB614A
:1051A000FB6923F00103BB647B681B681433BA6C92
:1051B000FA62BB62B96AFA6A41E800237B627B6AE1
:1051C000002BE5D17B681B6B012B19D17B681B6819
:1051D0000C33FB60FB6853E8003FBB60BB6823F007
:1051E00010037B647B681B680C337A6CBA617B614B
:1051F0007969BA6941E800233B613B69002BE5D13D
:105200007B68202283F842207B6800221A6300BF5B
:105210005437BD465DF8047B704780B584B000AF5D
:1052200078607B689B6BFB60FB680022DA85F8681E
:10523000FFF754FE00BF1037BD4680BD80B485B077
:1052400000AF78607B6893F84130DBB2212B3ED110
:105250007B689B68B3F5805F14D17B681B69002B6A
:1052600010D17B681B6AFB60FB681B881A467B6851
:105270001B68C2F308025A607B681B6A9A1C7B6831
:105280001A6208E07B681B6A591C7A6811621A78F6
:105290007B681B685A607B68DB8C9BB2013B9BB2CE
:1052A0007A681946D184002B0FD17B681B68DA68B5
:1052B0007B681B6822F08002DA607B681B68DA6812
:1052C0007B681B6842F04002DA60002300E00223A2
:1052D00018461437BD465DF8047B704780B582B030
:1052E00000AF78607B681B68DA687B681B6822F017
:1052F0004002DA607B68202283F841207868FCF75E
:1053000089FD002318460837BD4680BD80B58CB0A6
:1053100000AF78600023FB620023BB627B6893F8D8
:105320004230DBB2222B40F0AA807B689B68B3F549
:10533000805F15D17B681B69002B11D17B689B6A4C
:10534000BB627B681B685B689BB2C3F308039AB2BD
:10535000BB6A1A807B689B6A9A1C7B689A6224E00D
:105360007B689B6AFB627B689B68B3F5805F07D0B4
:105370007B689B68002B0AD17B681B69002B06D1D8
:105380007B681B685B68DAB2FB6A1A7008E07B68AE
:105390001B685B68DBB203F07F03DAB2FB6A1A704A
:1053A0007B689B6A5A1C7B689A627B68DB8D9BB228
:1053B000013B9BB27A681946D185002B5DD17B6891
:1053C0001B68DA687B681B6822F02002DA607B6861
:1053D0001B68DA687B681B6822F48072DA607B687D
:1053E0001B685A697B681B6822F001025A617B685E
:1053F000202283F842207B6800225A637B681B6B63
:10540000012B35D17B6800221A637B681B680C3343
:105410007B617B6953E8003F3B613B6923F01003EC
:105420007B627B681B680C337A6A3A62FB61F969BC
:105430003A6A41E80023BB61BB69002BE5D17B6878
:105440001B681B6803F01003102B0AD10023FB60BC
:105450007B681B681B68FB607B681B685B68FB6084
:10546000FB687B689B8D19467868FFF741FD02E079
:105470007868FFF729FD002302E0002300E0022303
:1054800018463037BD4680BD2DE9B04FC0B000AFE3
:10549000C7F8F400D7F8F4301B681B6923F44050B8
:1054A000D7F8F430D968D7F8F4301A6840EA010325
:1054B0001361D7F8F4309A68D7F8F4301B691A43AF
:1054C000D7F8F4305B691A43D7F8F430DB6913433B
:1054D000C7F8F830D7F8F4301B68DB6823F41641BE
:1054E00021F00C01D7F8F4301A68D7F8F8300B43E4
:1054F000D360D7F8F4301B685B6923F44070D7F8A9
:10550000F4309969D7F8F4301A6840EA010353611E
:10551000D7F8F4301A688F4B9A4205D0D7F8F43098
:105520001A688D4B9A4204D1FEF7DCFAC7F8FC00EA
:1055300003E0FEF7C3FAC7F8FC00D7F8F430DB69E4
:10554000B3F5004F40F00C81D7F8FC300022C7F8CB
:10555000E830C7F8EC20D7E93A4522462B469118A7
:10556000B9655B41FB65D7E91623214612EB0108BB
:10557000294643EB01094FF000024FF000034FEAC8
:10558000C90343EA58734FEAC80290469946234636
:1055900018EB0303C7F8E0302B4649EB0303C7F8C9
:1055A000E430D7F8F4305B680022C7F8D830C7F889
:1055B000DC20D7E936120B46DB183B65134642EB7D
:1055C00003037B65D7E91423D7E93801FBF7ECFA2D
:1055D00002460B46614BA3FB02235B091C01D7F873
:1055E000FC300022C7F8D030C7F8D420D7E934897E
:1055F00042464B469118B9645B41FB64D7E91223DC
:10560000414612EB010A494643EB010B4FF0000201
:105610004FF000034FEACB0343EA5A734FEACA0242
:1056200092469B4643461AEB0303C7F8C8304B46E5
:105630004BEB0303C7F8CC30D7F8F4305B6800229B
:10564000C7F8C030C7F8C420D7E930120B46DB18C2
:105650003B64134642EB03037B64D7E91023D7E98D
:105660003201FBF7A1FA02460B4611463B4BA3FB66
:1056700001235B09642202FB03F3CB1ADB0003F175
:105680003202364BA3FB02235B095B0003F4F87381
:105690001C44D7F8FC300022C7F8B830C7F8BC204B
:1056A000D7E92E8942464B469118B9635B41FB63AB
:1056B000D7E90E2341465118396349464B417B6374
:1056C0004FF000024FF00003D7E90CAB5946CB0076
:1056D000514643EA51735146CA00104619460346E3
:1056E00042469B18C7F8B0304B460A4642EB0303CC
:1056F000C7F8B430D7F8F4305B680022C7F8A83098
:10570000C7F8AC20D7E92A120B46DB18BB62134658
:1057100042EB0303FB62D7E90A23D7E92C01FBF72D
:1057200043FA02460B460D4BA3FB02135B096421AF
:1057300001FB03F3D31ADB003233084AA2FB032335
:105740005B0903F00702D7F8F4301B6822449A6023
:1057500006E100BF00100140001401401F85EB511D
:10576000D7F8FC300022C7F8A030C7F8A420D7E94A
:10577000288942464B46911839625B417B62D7E9E2
:10578000082341465418494643EB01054FF00002F7
:105790004FF00003EB0043EA5473E20014461D4649
:1057A0004346E318C7F898304B4645EB0303C7F868
:1057B0009C30D7F8F4305B680022C7F89030C7F807
:1057C00094204FF000024FF00003D7E9244529460A
:1057D0008B00214643EA917321468A00D7E92601CE
:1057E000FBF7E2F902460B46604BA3FB02235B0981
:1057F0001C01D7F8FC300022C7F88830C7F88C208D
:10580000D7E9228942464B469118B9615B41FB6159
:10581000D7E9062341465118396149464B417B611E
:105820004FF000024FF00003D7E904AB5946CB001C
:10583000514643EA51735146CA0010461946034681
:1058400042469B18C7F880304B460A4642EB03039A
:10585000C7F88430D7F8F4305B680022BB67FA677A
:105860004FF000024FF00003D7E91E8949468B0034
:10587000414643EA917341468A00D7E92001FBF78C
:1058800093F902460B461146384BA3FB01235B09F3
:10589000642202FB03F3CB1A1B013233334AA2FB0F
:1058A00003235B0903F0F0031C44D7F8FC3000220B
:1058B0003B677A67D7E91C8942464B469118B96025
:1058C0005B41FB60D7E902234146511839604946E4
:1058D0004B417B604FF000024FF00003D7E900AB73
:1058E0005946CB00514643EA51735146CA0010460F
:1058F0001946034642469B18BB664B460A4642EB96
:105900000303FB66D7F8F4305B6800223B667A66D7
:105910004FF000024FF00003D7E9188949468B0089
:10592000414643EA917341468A00D7E91A01FBF7E1
:105930003BF902460B460D4BA3FB02135B096421A6
:1059400001FB03F3D31A1B013233084AA2FB0323E2
:105950005B0903F00F02D7F8F4301B6822449A6009
:1059600000BF07F58077BD46BDE8B08F1F85EB51BE
:105970002DE9FF4757EC106B002F0C4619463B46AC
:10598000BBBF07F100431F4600232D230B700D9B67
:10599000DDF830A0914623F02008BCBF3246164601
:1059A000B8F1460F05D0B8F1450F00D101340221FE
:1059B00000E0032103AB019302AB009347EC106BB3
:1059C0005346224601F040F8B8F1470F054619D179
:1059D00019F0010F0ED000EB04090022002330461D
:1059E0003946FBF771F808B1CDF80C903022039BD3
:1059F0004B451ED3039B0E9A5B1B2846136004B0D5
:105A0000BDE8F087B8F1460F00EB0409E5D1037853
:105A1000302B0AD10022002330463946FBF754F8D8
:105A200018B9C4F10104CAF80040DAF8003099440A
:105A3000D3E7591C03911A70D9E7F7B50029BABF0B
:105A400049422D232B2309290270437029DD0DF1D2
:105A500007031D460A271A46B1FBF7F607FB161483
:105A6000303402F8014C0C46632C03F1FF3331460D
:105A7000F1DC3031941E03F8011C411C2346AB427B
:105A80000AD30DF109039B1AAC4288BF00230233ED
:105A90000344181A03B0F0BD13F8016B01F8016F4D
:105AA000EDE7302330318370C170031DF1E7000052
:105AB0002DE9F04F8DB00C46DDF8588016461F4694
:105AC000054600F0C1FE036804931846FAF7D0FBC0
:105AD00000230A93D8F800300590073323F007031A
