:020000040800F2
:1000000000000220B12200081D1F0008251F000863
:100010002D1F0008351F00083D1F000800000000CC
:10002000000000000000000000000000451F000864
:10003000531F000800000000611F00086F1F000828
:100040000123000801230008012300080123000800
:1000500001230008012300080123000801230008F0
:1000600001230008012300080123000801230008E0
:1000700001230008012300087D1F00080123000858
:100080000123000801230008911F00080123000834
:1000900001230008012300080123000801230008B0
:1000A00001230008012300080123000801230008A0
:1000B0000123000801230008012300080123000890
:1000C0000123000801230008012300080123000880
:1000D000012300080123000801230008A51F0008D0
:1000E0000123000801230008012300080123000860
:1000F0000123000801230008012300080123000850
:10010000012300080123000801230008012300083F
:10011000012300080123000801230008012300082F
:10012000B91F00080123000801230008012300086B
:10013000012300080123000801230008012300080F
:1001400001230008012300080123000801230008FF
:1001500001230008012300080123000801230008EF
:1001600001230008012300080123000801230008DF
:1001700001230008012300080123000800000000FB
:0801800001230008012300081F
:1001900010B5054C237833B9044B13B10448AFF3C1
:1001A00000800123237010BDD80100200000000052
:1001B000C491000808B5034B1BB103490348AFF3D2
:1001C000008008BD00000000DC010020C491000890
:1001D00001F0FF01102A2BDB10F0070F08D010F8F8
:1001E000013B013A8B422DD010F0070F42B3F6D1FC
:1001F000F0B441EA012141EA014122F007047FF015
:1002000000070023F0E80256083C85EA010586EA6B
:10021000010685FA47F5A3FA87F586FA47F6A5FAA7
:1002200087F68EB9EED1F0BC01F0FF0102F00702B3
:1002300032B110F8013B013A83EA010313B1F8D15E
:100240000020704701387047002D06BF354603383F
:10025000073815F0010F07D1013015F4807F02BF78
:10026000013015F4C03F0130F0BC0138704700BFC9
:10027000034613F8012B002AFBD1181A01387047E6
:1002800081F0004102E000BF83F0004330B54FEA47
:1002900041044FEA430594EA050F08BF90EA020FB4
:1002A0001FBF54EA000C55EA020C7FEA645C7FEA47
:1002B000655C00F0E2804FEA5454D4EB5555B8BF6A
:1002C0006D420CDD2C4480EA020281EA030382EADB
:1002D000000083EA010180EA020281EA0303362D6D
:1002E00088BF30BD11F0004F4FEA01314FF4801C40
:1002F0004CEA113102D0404261EB410113F0004F52
:100300004FEA03334CEA133302D0524263EB430308
:1003100094EA050F00F0A780A4F10104D5F1200EA6
:100320000DDB02FA0EFC22FA05F2801841F1000101
:1003300003FA0EF2801843FA05F359410EE0A5F1D5
:1003400020050EF1200E012A03FA0EFC28BF4CF006
:10035000020C43FA05F3C01851EBE37101F00045BC
:1003600007D54FF0000EDCF1000C7EEB00006EEBC9
:100370000101B1F5801F1BD3B1F5001F0CD3490853
:100380005FEA30004FEA3C0C04F101044FEA4452AA
:1003900012F5800F80F09A80BCF1004F08BF5FEA31
:1003A000500C50F1000041EB045141EA050130BD11
:1003B0005FEA4C0C404141EB0101013C28BFB1F523
:1003C000801FE9D291F0000F04BF01460020B1FA6E
:1003D00081F308BF2033A3F10B03B3F120020CDA41
:1003E0000C3208DD02F1140CC2F10C0201FA0CF01F
:1003F00021FA02F10CE002F11402D8BFC2F1200C84
:1004000001FA02F120FA0CFCDCBF41EA0C01904039
:10041000E41AA2BF01EB0451294330BD6FEA040482
:100420001F3C1CDA0C340EDC04F11404C4F120026D
:1004300020FA04F001FA02F340EA030021FA04F37F
:1004400045EA030130BDC4F10C04C4F1200220FAD6
:1004500002F001FA04F340EA0300294630BD21FA14
:1004600004F0294630BD94F0000F83F4801306BFDA
:1004700081F480110134013D4EE77FEA645C18BFCE
:100480007FEA655C29D094EA050F08BF90EA020F65
:1004900005D054EA000C04BF1946104630BD91EA5D
:1004A000030F1EBF0021002030BD5FEA545C05D160
:1004B0004000494128BF41F0004130BD14F580049F
:1004C0003CBF01F5801130BD01F0004545F0FE4113
:1004D00041F470014FF0000030BD7FEA645C1ABF48
:1004E000194610467FEA655C1CBF0B46024650EA7F
:1004F000013406BF52EA033591EA030F41F40021AB
:1005000030BD00BF90F0000F04BF0021704730B530
:100510004FF4806404F132044FF000054FF0000105
:1005200050E700BF90F0000F04BF0021704730B5C6
:100530004FF4806404F1320410F0004548BF40429B
:100540004FF000013EE700BF42004FEAE2014FEAF0
:1005500031014FEA02701FBF12F07F4393F07F4FCB
:1005600081F06051704732F07F4208BF704793F0CE
:100570007F4F04BF41F40021704730B54FF46074E1
:1005800001F0004521F000411CE700BF50EA0102E4
:1005900008BF704730B54FF000050AE050EA01028D
:1005A00008BF704730B511F0004502D5404261EBFD
:1005B00041014FF4806404F132045FEA915C3FF43E
:1005C000D8AE4FF003025FEADC0C18BF03325FEADB
:1005D000DC0C18BF033202EBDC02C2F1200300FA8C
:1005E00003FC20FA02F001FA03FE40EA0E0021FAB1
:1005F00002F11444BDE600BF70B54FF0FF0C4CF49F
:10060000E06C1CEA11541DBF1CEA135594EA0C0F50
:1006100095EA0C0F00F0DEF82C4481EA030621EA8B
:100620004C5123EA4C5350EA013518BF52EA0335C6
:1006300041F4801143F4801338D0A0FB02CE4FF078
:100640000005E1FB02E506F00042E0FB03E54FF0A8
:100650000006E1FB03569CF0000F18BF4EF0010EA0
:10066000A4F1FF04B6F5007F64F5407404D25FEA9C
:100670004E0E6D4146EB060642EAC62141EA55514F
:100680004FEAC52040EA5E504FEACE2EB4F1FD0C91
:1006900088BFBCF5E06F1ED8BEF1004F08BF5FEA0F
:1006A000500E50F1000041EB045170BD06F00046C1
:1006B00046EA010140EA020081EA0301B4EB5C046E
:1006C000C2BFD4EB0C0541EA045170BD41F4801166
:1006D0004FF0000E013C00F3AB8014F1360FDEBF8B
:1006E000002001F0004170BDC4F10004203C35DA67
:1006F0000C341BDC04F11404C4F1200500FA05F3EA
:1007000020FA04F001FA05F240EA020001F000428A
:1007100021F0004110EBD37021FA04F642EB060100
:100720005EEA430E08BF20EAD37070BDC4F10C042A
:10073000C4F1200500FA04F320FA05F001FA04F2EE
:1007400040EA020001F0004110EBD37041F10001DA
:100750005EEA430E08BF20EAD37070BDC4F12005E5
:1007600000FA05F24EEA020E20FA04F301FA05F24D
:1007700043EA020321FA04F001F0004121FA04F2F5
:1007800020EA020000EBD3705EEA430E08BF20EAC5
:10079000D37070BD94F0000F0FD101F000464000FF
:1007A00041EB010111F4801F08BF013CF7D041EA81
:1007B000060195F0000F18BF704703F00046520085
:1007C00043EB030313F4801F08BF013DF7D043EA56
:1007D0000603704794EA0C0F0CEA135518BF95EA0C
:1007E0000C0F0CD050EA410618BF52EA4306D1D193
:1007F00081EA030101F000414FF0000070BD50EAB2
:10080000410606BF1046194652EA430619D094EA3B
:100810000C0F02D150EA013613D195EA0C0F05D125
:1008200052EA03361CBF104619460AD181EA030179
:1008300001F0004141F0FE4141F470014FF0000031
:1008400070BD41F0FE4141F4780170BD70B54FF0CC
:10085000FF0C4CF4E06C1CEA11541DBF1CEA13554C
:1008600094EA0C0F95EA0C0F00F0A7F8A4EB05042E
:1008700081EA030E52EA03354FEA013100F0888025
:100880004FEA03334FF0805545EA131343EA1263EE
:100890004FEA022245EA111545EA10654FEA0026A3
:1008A0000EF000419D4208BF964244F1FD0404F55C
:1008B000407402D25B084FEA3202B61A65EB0305B8
:1008C0005B084FEA32024FF480104FF4002CB6EB75
:1008D000020E75EB030E22BFB61A754640EA0C00F5
:1008E0005B084FEA3202B6EB020E75EB030E22BF35
:1008F000B61A754640EA5C005B084FEA3202B6EB76
:10090000020E75EB030E22BFB61A754640EA9C0034
:100910005B084FEA3202B6EB020E75EB030E22BF04
:10092000B61A754640EADC0055EA060E18D04FEAC2
:10093000051545EA16754FEA06164FEAC30343EA62
:1009400052734FEAC2025FEA1C1CC0D111F4801F2F
:100950000BD141EA00014FF000004FF0004CB6E728
:1009600011F4801F04BF01430020B4F1FD0C88BFC7
:10097000BCF5E06F3FF6AFAEB5EB030C04BFB6EBD2
:10098000020C5FEA500C50F1000041EB045170BDC5
:100990000EF0004E4EEA113114EB5C04C2BFD4EBF2
:1009A0000C0541EA045170BD41F480114FF0000E76
:1009B000013C90E645EA060E8DE60CEA135594EAF2
:1009C0000C0F08BF95EA0C0F3FF43BAF94EA0C0FF5
:1009D0000AD150EA01347FF434AF95EA0C0F7FF46A
:1009E00025AF104619462CE795EA0C0F06D152EABE
:1009F00003353FF4FDAE1046194622E750EA4106A2
:100A000018BF52EA43067FF4C5AE50EA41047FF4B2
:100A10000DAF52EA43057FF4EBAE12E74FF0FF3C17
:100A200006E000BF4FF0010C02E000BF4FF0010CE8
:100A30004DF804CD4FEA410C7FEA6C5C4FEA430C61
:100A400018BF7FEA6C5C1BD001B050EA410C0CBFB0
:100A500052EA430C91EA030F02BF90EA020F002012
:100A6000704710F1000F91EA030F58BF994208BF79
:100A700090422CBFD8176FEAE37040F00100704736
:100A80004FEA410C7FEA6C5C02D150EA013C07D18D
:100A90004FEA430C7FEA6C5CD6D152EA033CD3D0D8
:100AA0005DF8040B704700BF8446104662468C46D2
:100AB0001946634600E000BF01B5FFF7B7FF002805
:100AC00048BF10F1000F01BD4DF808EDFFF7F4FF2E
:100AD0000CBF012000205DF808FB00BF4DF808EDB9
:100AE000FFF7EAFF34BF012000205DF808FB00BFDC
:100AF0004DF808EDFFF7E0FF94BF012000205DF8FE
:100B000008FB00BF4DF808EDFFF7CEFF94BF0120B2
:100B100000205DF808FB00BF4DF808EDFFF7C4FFAB
:100B200034BF012000205DF808FB00BF4FEA410CF4
:100B30007FEA6C5C02D150EA013C0AD14FEA430CD7
:100B40007FEA6C5C02D152EA033C02D14FF0000014
:100B500070474FF0010070474FEA410212F5001252
:100B600015D211D56FF47873B3EB625212D94FEAF4
:100B7000C12343F0004343EA505311F0004F23FADE
:100B800002F018BF404270474FF00000704750EA33
:100B9000013005D111F0004008BF6FF000407047F0
:100BA0004FF00000704700BF53B94AB9002908BF91
:100BB00000281CBF4FF0FF314FF0FF3000F088B924
:100BC000ADF1080C6DE904CE00F006F8DDF804E0A4
:100BD000DDE9022304B070472DE9F047089D8E46F9
:100BE00004468846002B4AD18A42174662D9B2FA97
:100BF00082F64EB1C6F1200301FA06F820FA03F39B
:100C0000B74043EA0808B4404FEA174E1FFA87FC82
:100C1000B8FBFEF1230C0EFB118843EA084301FBED
:100C20000CF29A4209D9FB1801F1FF3080F0EA80FA
:100C30009A4240F2E78002393B449A1AA3B2B2FBCF
:100C4000FEF00EFB102243EA024300FB0CFC9C4525
:100C500009D9FB1800F1FF3280F0D6809C4540F2A4
:100C6000D3803B44023840EA0140A3EB0C0300214F
:100C70001DB1F3400022C5E90032BDE8F0878B4288
:100C800005D90DB1C5E9000100210846F5E7B3FA21
:100C900083F1002946D1734502D3824200F20581D7
:100CA000841A6EEB030201209046002DE5D0C5E9C1
:100CB0000048E2E7002A00F09080B2FA82F6002EA7
:100CC00040F0A4808A1A030C4FEA174E80B2BCB2DF
:100CD0000121B2FBFEFC0EFB1C2243EA024304FB93
:100CE0000CF29A4207D9FB180CF1FF3802D29A4253
:100CF00000F2E080C4469B1AB3FBFEF20EFB1233F7
:100D000040EA034302FB04F49C4207D9FB1802F1BA
:100D1000FF3002D29C4200F2CA8002461B1B42EA0C
:100D20000C40A5E7C1F120068B4022FA06F71F43CD
:100D30000EFA01F420FA06F32EFA06FE4FEA1749DE
:100D4000234300FA01F81FFA87FCBEFBF9F01C0CE4
:100D500009FB10EE44EA0E4400FB0CFEA64502FA25
:100D600001F209D93C1900F1FF3A80F09C80A645B8
:100D700040F2998002383C44A4EB0E041FFA83FE33
:100D8000B4FBF9F309FB13444EEA044403FB0CFCE7
:100D9000A44508D93C1903F1FF3E80F08280A445A8
:100DA0007FD9023B3C4443EA0040A4EB0C04A0FB87
:100DB00002EC64457346E14662D35FD05DB1B8EBA7
:100DC000030264EB090404FA06F622FA01F31E4357
:100DD000CC40C5E9006400214FE7B1FBF2FC010CF7
:100DE00041EA0E4180B240EA01423B4638463C4669
:100DF000B846BE462026B1FBF7F1A2EB080241EA55
:100E00000C4166E7014618E710462CE7C6F12002C0
:100E10002EFA02F3B740B14020FA02F24FEA174E21
:100E20000A43B3FBFEF8BCB20EFB1833110C41EAC7
:100E3000034108FB04F9B04089454FEA104380B2F2
:100E40003ED9791808F1FF3C01D289451FD8A1EBA2
:100E50000901B1FBFEF909FB04F80EFB191192B26E
:100E600042EA0142424529D2BA1809F1FF31C4D2FF
:100E70004245C2D2A9F102013A44BEE7F0459DD2F3
:100E8000BEEB02036CEB070C0138E14696E7A7EBDB
:100E900009094944A8F1020CB1FBFEF909FB04F869
:100EA000DBE773467FE7504666E70846FDE63B44CE
:100EB000023A33E7ACF1020C3B441CE749469CE79D
:100EC000A1EB0901C446B1FBFEF909FB04F8C4E734
:100ED000704700BF80B400AF0B4B1A680B4B1B6808
:100EE0009A4205D3084B1A68084B1B68D31A06E0D0
:100EF000054B1A68054B1B68D31A03F50073184697
:100F0000BD465DF8047B7047F4030020F803002021
:100F100080B487B000AF7860396000237B6172B61F
:100F200000BF00233B611BE0154B1B680133C3F37B
:100F30000803FB60134B1B68FA689A4215D07A6865
:100F40003B691A440E4B1B6811780F4AD1540C4A66
:100F5000FB6813607B6901337B613B6901333B6153
:100F60003A693B689A42DFD300E000BF62B600BF37
:100F70007B6918461C37BD465DF8047B704700BF8F
:100F8000F4030020F8030020F401002080B485B0B1
:100F900000AF786039600023FB6072B600BF11E0DB
:100FA000124B1A687968FB680B4411498A5C1A7005
:100FB0000E4B1B680133C3F308030C4A1360FB6834
:100FC0000133FB60094B1A680A4B1B689A4203D035
:100FD000FA683B689A42E3D362B600BFFB681846E2
:100FE0001437BD465DF8047B704700BFF80300204E
:100FF000F4010020F403002080B500AF064B00226E
:101000001A60064B00221A60054B00221A70054830
:1010100006F02CF800BF80BDF4030020F803002088
:10102000FC030020E09100080FB480B5A2B000AF2F
:1010300007F194033B60381D3B68D7F8902080216E
:1010400006F08EF8C7F88400D7F88430002B06DD50
:10105000D7F884203B1D11461846FFF759FF00BF03
:101060008837BD46BDE8804004B0704780B584B085
:1010700000AF1B4B1B78DBB2002B2AD1FFF72AFFF6
:10108000F860FB68002B26D0FB68802B28BF8023EC
:10109000BB60B9681348FFF779FF78607B68002B65
:1010A0001AD00F4B01221A707B689BB21A460D4969
:1010B0000D4804F017F90346FB70FB78002B0BD0AA
:1010C000074B00221A70FB781946084805F066FFA6
:1010D00002E000BF00E000BF1037BD4680BD00BF8A
:1010E000FC03002000040020B4050020FC9100084F
:1010F00080B500AF044B1B78DBB2002B01D1FFF7AA
:10110000B5FF00BF80BD00BFFC03002080B500AF6D
:10111000034B00221A70FFF7A9FF00BF80BD00BF7C
:10112000FC03002080B582B000AF01F051F9034606
:1011300003F59C5308337B6004E0FFF7D9FF0A20D6
:1011400001F052F9FFF7C6FE0346002B05D001F06F
:101150003FF902467B689342EFD8FFF7BBFE034698
:10116000002B06D0FFF7B6FE03461946034805F0EC
:1011700015FF00BF0837BD4680BD00BF4092000884
:1011800080B500AF0A2001F02FF90748FFF74CFFA8
:101190000648FFF749FF0448FFF746FF0448FFF7FA
:1011A00043FF00BF80BD00BF789900089C990008EC
:1011B000C099000880B582B000AF0A220A490B48E6
:1011C00001F08AFA0346FB71FB79002B03D1084832
:1011D000FFF72AFF04E0FB7919460648FFF724FFD2
:1011E00000BF0837BD4680BD80040020B004002049
:1011F000DC990008FC99000880B500AF034801F0B5
:101200007FFB0348FFF710FF00BF80BDB004002044
:10121000189A000880B485B000AF0346FB80FB88B5
:1012200007EE903AB8EE677ADFED116AC7EE267ADC
:101230009FED107A67EE877AC7ED037AD7ED037AD0
:101240009FED0D7A37EEC77ADFED0C6AC7EE267A8E
:10125000B3EE097A77EE877AC7ED027ABB6807EEBC
:10126000903AB0EE670A1437BD465DF8047B7047CC
:1012700000F07F45333353405C8F423F0AD7233B16
:1012800080B584B000AF1B4B1B78DBB2002B02D1C2
:10129000194B1B6826E00023FB600023BB600AE0BB
:1012A000164ABB6832F813301A46FB681344FB60D9
:1012B000BB680133BB60BB68092BF1DDFB68104ADA
:1012C000A2FB0323DB08FB80FB881846FFF7A2FF85
:1012D000F0EE407A084BC3ED007A064B00221A70FC
:1012E000054B1B6807EE903AB0EE670A1037BD4613
:1012F00080BD00BF940400209C04002080040020D6
:10130000CDCCCCCC80B584B002AF01F061F8786070
:10131000124B1B687A68D31AB3F57A7F18D3FFF79C
:10132000AFFF87ED000A3868FFF70EF902460B465B
:101330000B49098808460A49498A0144C80F0144F3
:10134000491000910748FFF76FFE044A7B6813605D
:10135000FFF7CEFE00BF0837BD4680BD98040020D1
:10136000800400202C9A000880B483B000AF78601D
:101370007B68084A934207D1074B01221A70074B3A
:101380001B680133054A136000BF0C37BD465DF88A
:10139000047B7047B004002094040020A0040020C7
:1013A000B0B58CB002AF5D48FFF73EFE02F0F2FF31
:1013B000034619465A48FFF737FE5A48FFF734FEEE
:1013C000FFF7DEFEFFF7F6FE01F002F8386142F2A9
:1013D0001073FB603B697B62534B3B62534BFB6179
:1013E0000023BB614FF000037B6182E0FFF78AFFBF
:1013F0004F4B1B78DBB2002B24D0FFF741FF87ED6A
:10140000020A97ED027AD7ED087AB4EEE77AF1EEA8
:1014100010FA01D5BB683B6297ED027AD7ED077AE7
:10142000B4EEE77AF1EE10FA01DDBB68FB6197EDEF
:10143000057AD7ED027A77EE277AC7ED057ABB6990
:101440000133BB6100F0C4FF02467B6AD31AFA681D
:101450009A424BD8BB69002B45D0BB6907EE903A46
:10146000B8EE677AD7ED056AC6EE877AC7ED017ADE
:101470003048FFF7D9FDB9692F48FFF7D5FD7868E7
:10148000FFF762F802460B462C48FFF7CDFD386A9D
:10149000FFF75AF804460D46F869FFF755F802467B
:1014A0000B46CDE9002322462B462548FFF7BCFD1D
:1014B00097ED077AD7ED087A77EE677A17EE900AFC
:1014C000FFF742F802460B461E48FFF7ADFD1E48E7
:1014D000FFF7AAFD144B3B62144BFB614FF0000376
:1014E0007B610023BB6100F073FF78620A2000F08B
:1014F0007BFF00F06DFF02463B69D31A4EF65F2278
:1015000093427FF673AFFFF777FE1048FFF78CFD2D
:10151000FFF708FE00BF2837BD46B0BD549A00084B
:101520007C9A0008949A000800C0794400C079C4ED
:1015300094040020C49A0008E09A0008F49A000875
:10154000089B0008249B0008349B00084C9B000863
:1015500080B586B000AF4248FFF766FD414B3B6166
:10156000414BFB60414BBB60FFF70AFEFFF722FED9
:1015700000F02EFF78600023FB755DE0FFF7C2FEF0
:101580003B4B1B78DBB2002B53D0FFF779FE87ED86
:10159000000A0023BB7597ED007AD7ED037AB4EE0D
:1015A000E77AF1EE10FA02DB0223BB7516E097ED45
:1015B000007AD7ED047AB4EEE77AF1EE10FA08DAA1
:1015C00097ED007AD7ED027AB4EEE77AF1EE10FAF1
:1015D00002D80123BB7501E00023BB75BA7DFB7DFA
:1015E0009A4226D0BB7D022B18D0022B1FDC002B89
:1015F00002D0012B09D01AE03868FEF7A5FF024699
:101600000B461C48FFF710FD11E03868FEF79CFF01
:1016100002460B461848FFF707FD08E03868FEF75A
:1016200093FF02460B461548FFF7FEFC00BFBB7D4B
:10163000FB75642000F0D8FE00F0CAFE02467B680D
:10164000D31A47F22F52934298D9FFF7D5FD0C4891
:10165000FFF7EAFCFFF766FD00BF1837BD4680BD07
:10166000749B0008000048420000704200002041C6
:1016700094040020989B0008BC9B0008E09B000895
:10168000049C000880B500AF054B1B685868044BEC
:101690001B681B890022194602F004FB00BF80BDB5
:1016A0000000002080B500AF054B1B685868044B54
:1016B0001B681B890122194602F0F4FA00BF80BDA5
:1016C0000000002080B582B000AF0523FB71FFF75A
:1016D000D9FF0F4B1B681868F91D6423012202F023
:1016E000DCFF0B4B1B681868B91D6423012203F053
:1016F00018F9FFF7D7FFBB7903F00103002B0CBFEC
:1017000001230023DBB218460837BD4680BD00BF69
:101710000000002080B582B000AF0623FB71FFF708
:10172000B1FF074B1B681868F91D6423012202F002
:10173000B4FFFFF7B7FF00BF0837BD4680BD00BF4D
:101740000000002080B500AF02E0012000F04CFE58
:10175000FFF7B8FF034683F00103DBB2002BF4D19F
:1017600000BF00BF80BD000080B500AF094B1B6803
:10177000094A1A60074B1B6808221A81054B1B682F
:10178000064A5A60FFF78EFF0A2000F02DFE00BFC8
:1017900080BD00BF0000002058050020001002405E
:1017A00080B586B000AFF860B9607A6003233B75FE
:1017B000FB681B0CDBB27B75FB681B0ADBB2BB75DD
:1017C000FB68DBB2FB75FFF75DFF0C4B1B6818680D
:1017D00007F114016423042202F05FFF074B1B682A
:1017E00018687B689AB24FF47A73B96803F099F875
:1017F000FFF758FF00BF1837BD4680BD000000202E
:1018000080B586B000AFF860B9607A607B68B3F5E8
:10181000807F02D94FF480737B60FFF77BFF022348
:101820003B75FB681B0CDBB27B75FB681B0ADBB2EC
:10183000BB75FB68DBB2FB75FFF724FF0D4B1B6824
:10184000186807F114016423042202F026FF094BF3
:101850001B6818687B689AB24FF47A73B96802F013
:101860001CFFFFF71FFFFFF76DFF00BF1837BD46D6
:1018700080BD00BF0000002080B584B000AF78605C
:10188000FFF748FF20233B737B681B0CDBB27B73A5
:101890007B681B0ADBB2BB737B68DBB2FB73FFF7B1
:1018A000F1FE084B1B68186807F10C016423042241
:1018B00002F0F3FEFFF7F6FEFFF744FF00BF10371C
:1018C000BD4680BD0000002090B589B000AF1E4B22
:1018D00007F110040FCB07C4238002341B0C2370C4
:1018E0000023FB773B4600221A605A609A60DA6058
:1018F0000020FFF7C1FF07F1100310221946002056
:10190000FFF77EFF3B46102219460020FFF748FFF5
:1019100007F1100319460D4805F040FB0C4B1B68FE
:101920009B68184605F064FA3B461946094805F0DD
:1019300035FB074B1B689B68184605F059FA00BF3A
:101940002437BD4690BD00BF4C9C0008249C000875
:101950001C000020389C000880B584B000AF3B46D6
:1019600000221A605A609A60DA60214B214A1A609C
:101970001F4B4FF440325A601D4B00229A601C4BA3
:1019800000221A611A4B01221A76194B002283F8A1
:101990002020174B0022DA62154B174A9A62144B2B
:1019A0000022DA60124B0122DA61114B012283F826
:1019B00030200F4B01225A610D4800F039FD0346DB
:1019C000002B01D000F0D6F910233B6001237B608F
:1019D0000723BB603B461946054801F009F803465A
:1019E000002B01D000F0C6F900BF1037BD4680BD06
:1019F000B0040020002001400100000F80B584B039
:101A000000AF78607B681B68264A934245D100236B
:101A1000FB60254B5B6C244A43F480735364224B78
:101A20005B6C03F48073FB60FB68204B204A1A60F8
:101A30001E4B00225A601D4B00229A601B4B002255
:101A4000DA601A4B4FF480621A61184B4FF400624F
:101A50005A61164B4FF400529A61144B4FF4807246
:101A6000DA61124B00221A62104B00225A620F48B0
:101A700001F07AFB0346002B01D000F07BF97B6874
:101A80000A4A9A63094A7B68936300220021122064
:101A900001F033FB122001F04CFB00BF1037BD46B4
:101AA00080BD00BF0020014000380240F804002043
:101AB0001064024080B582B000AF00237B60174BFA
:101AC0001B6B164A43F400131363144B1B6B03F494
:101AD00000137B607B6800233B60104B1B6B0F4A3D
:101AE00043F4800313630D4B1B6B03F480033B60D3
:101AF0003B68002200210E2001F0FFFA0E2001F0C9
:101B000018FB00220021382001F0F7FA382001F0FC
:101B100010FB00BF0837BD4680BD00BF0038024043
:101B200080B58CB000AF07F11C0300221A605A6028
:101B30009A60DA601A610023BB61344B1B6B334A35
:101B400043F010031363314B1B6B03F01003BB61B5
:101B5000BB6900237B612D4B1B6B2C4A43F00403B4
:101B600013632A4B1B6B03F004037B617B69002327
:101B70003B61264B1B6B254A43F080031363234BC9
:101B80001B6B03F080033B613B690023FB601F4B31
:101B90001B6B1E4A43F0020313631C4B1B6B03F0C9
:101BA0000203FB60FB680023BB60184B1B6B174AEA
:101BB00043F008031363154B1B6B03F00803BB6072
:101BC000BB6800237B60114B1B6B104A43F0010381
:101BD00013630E4B1B6B03F001037B607B680022D9
:101BE00008210B4802F05EF80823FB6101233B62E9
:101BF00000237B620023BB6207F11C0319460448E3
:101C000001F0B4FE00BF3037BD4680BD0038024051
:101C10000010024080B584B000AFF860B9607A600F
:101C20007B689AB26423B968034803F0CFFA7B68F3
:101C300018461037BD4680BDB405002080B500AF02
:101C400000F060FB00F01CF8FFF76AFFFFF732FFBF
:101C500000F078FA00F094F8FFF77EFE074805F0F0
:101C600005FAFFF781FDFFF7C7F9FFF72DFEFFF734
:101C700097FBFFF76DFCFFF745FBFCE77C9C00083A
:101C800080B594B000AF07F1200330220021184640
:101C900005F008FB07F10C0300221A605A609A60F5
:101CA000DA601A610023BB60284B1B6C274A43F0A3
:101CB00080531364254B1B6C03F08053BB60BB68DF
:101CC00000237B60224B1B68214A43F4804313604E
:101CD0001F4B1B6803F480437B607B6801233B62DE
:101CE0004FF480337B620223BB634FF48003FB63BA
:101CF00019233B644FF4A8737B640223BB64042361
:101D0000FB6407F12003184601F0E6FF0346002BB1
:101D100001D000F02FF80F23FB6002233B6100236A
:101D20007B614FF4A053BB614FF48053FB6107F11B
:101D30000C030521184602F047FA0346002B01D098
:101D400000F018F800BF5037BD4680BD0038024093
:101D50000070004080B582B000AF78607B68044AB4
:101D6000934201D1FFF7D2F900BF0837BD4680BDCD
:101D7000B405002080B400AF72B600BF00BFFDE71D
:101D800080B500AF194B1A4A1A60184B4FF4827293
:101D90005A60164B00229A60144B0022DA60134BF3
:101DA00000221A61114B00225A61104B4FF400724D
:101DB0009A610E4B0022DA610C4B00221A620B4B27
:101DC00000225A62094B00229A62084B0A22DA6208
:101DD000064802F0D9FB0346002B01D0FFF7CAFFEB
:101DE0000449054805F0DAF800BF80BD5805002019
:101DF00000380040A49C0008909C000880B58AB080
:101E000000AF786007F1140300221A605A609A60EC
:101E1000DA601A617B681B68284A93424AD1002322
:101E20003B61274B1B6C264A43F480431364244BCD
:101E30001B6C03F480433B613B690023FB60204B38
:101E40001B6B1F4A43F0040313631D4B1B6B03F012
:101E50000403FB60FB680023BB60194B1B6B184A33
:101E600043F002031363164B1B6B03F00203BB60CA
:101E7000BB680C237B610223BB610023FB6103234E
:101E80003B6205237B6207F1140319460D4801F0FC
:101E90006DFD4FF480637B610223BB610023FB6116
:101EA00003233B6205237B6207F1140319460648AE
:101EB00001F05CFD00BF2837BD4680BD0038004002
:101EC00000380240000802400004024080B483B0A1
:101ED00000AF00237B60104B5B6C0F4A43F48043E0
:101EE00053640D4B5B6C03F480437B607B68002381
:101EF0003B60094B1B6C084A43F080531364064B4C
:101F00001B6C03F080533B603B6800BF0C37BD4641
:101F10005DF8047B704700BF0038024080B400AF1A
:101F200000BFFDE780B400AF00BFFDE780B400AFA5
:101F300000BFFDE780B400AF00BFFDE780B400AF95
:101F400000BFFDE780B400AF00BFBD465DF8047B75
:101F5000704780B400AF00BFBD465DF8047B70479A
:101F600080B400AF00BFBD465DF8047B704780B50C
:101F700000AF00F019FA00BF80BD000080B500AFCF
:101F8000024801F089FA00BF80BD00BFFC050020B7
:101F900080B500AF024800F08EFA00BF80BD00BFE0
:101FA000B004002080B500AF024803F017FA00BF6C
:101FB00080BD00BFB405002080B500AF024801F02D
:101FC0006BFA00BF80BD00BFF804002080B400AFF2
:101FD00001231846BD465DF8047B704780B582B08A
:101FE00000AF7860396005F0AFF9034616221A6039
:101FF0004FF0FF3318460837BD4680BD80B582B02C
:1020000000AF78604FF0FF317868FFF7E7FF00BF5F
:10201000FDE780B586B000AFF860B9607A60002354
:102020007B610AE0AFF300800146BB685A1CBA60CE
:10203000CAB21A707B6901337B617A697B689A4204
:10204000F0DB7B6818461837BD4680BD80B483B08E
:1020500000AF78604FF0FF3318460C37BD465DF88F
:10206000047B704780B483B000AF786039603B6810
:102070004FF400525A60002318460C37BD465DF8F5
:10208000047B704780B483B000AF786001231846AA
:102090000C37BD465DF8047B704780B485B000AF57
:1020A000F860B9607A60002318461437BD465DF8C1
:1020B000047B704780B586B000AF7860144A154B3A
:1020C000D31A7B617B693B61134B1B68002B02D1E8
:1020D000114B124A1A60104B1A687B6813443A6914
:1020E0009A4207D205F030F903460C221A604FF0ED
:1020F000FF3309E0084B1B68FB60074B1A687B68DD
:102100001344054A1360FB6818461837BD4680BD66
:102110000000022000040000B0050020B0070020ED
:1021200080B400AF064BD3F88830054A43F47003FF
:10213000C2F8883000BFBD465DF8047B704700BF21
:1021400000ED00E080B500AF114B124A1A60104B51
:102150004FF4E1325A600E4B00229A600C4B002281
:10216000DA600B4B00221A61094B0C225A61084BB2
:1021700000229A61064B0022DA61054802F0D6FF80
:102180000346002B01D0FFF7F5FD00BF80BD00BF67
:10219000B40500200048004080B58AB000AF7860E8
:1021A00007F1140300221A605A609A60DA601A611B
:1021B0007B681B68394A93426BD100233B61384BE3
:1021C0001B6C374A43F480231364354B1B6C03F4B8
:1021D00080233B613B690023FB60314B1B6B304A22
:1021E00043F0080313632E4B1B6B03F00803FB60E3
:1021F000FB684FF440737B610223BB610123FB61E9
:1022000003233B6207237B6207F114031946254829
:1022100001F0ACFB244B254A1A60234B4FF00062BF
:102220005A60214B40229A601F4B0022DA601E4BFD
:102230004FF480621A611C4B00225A611A4B002233
:102240009A61194B0022DA61174B00221A62164B71
:1022500004225A62144B00229A62134B0022DA6263
:10226000114B00221A63104800F07EFF0346002B3A
:1022700001D0FFF77FFD7B680B4A9A630A4A7B68AF
:10228000936300220021272000F037FF272000F071
:1022900050FF00BF2837BD4680BD00BF004800404A
:1022A00000380240000C0240FC050020586002404B
:1022B000DFF834D0FFF734FF0C480D490D4A0023F6
:1022C00002E0D458C4500433C4188C42F9D30A4AEB
:1022D0000A4C002301E013600432A242FBD305F054
:1022E00039F8FFF7ABFC7047000002200000002027
:1022F000D80100205CA00008D8010020AC07002015
:10230000FEE7000080B500AF0E4B1B680D4A43F49A
:10231000007313600B4B1B680A4A43F4806313601D
:10232000084B1B68074A43F480731360032000F0D6
:10233000D9FE0F2000F008F8FFF7C8FD002318466B
:1023400080BD00BF003C024080B582B000AF786025
:10235000124B1A68124B1B7819464FF47A73B3FB71
:10236000F1F3B2FBF3F3184600F0F1FE0346002B45
:1023700001D001230EE07B680F2B0AD80022796878
:102380004FF0FF3000F0B9FE064A7B68136000236F
:1023900000E0012318460837BD4680BD0400002038
:1023A0000C0000200800002080B400AF064B1B7812
:1023B0001A46064B1B681344044A136000BFBD460F
:1023C0005DF8047B704700BF0C0000205C06002015
:1023D00080B400AF034B1B681846BD465DF8047B14
:1023E000704700BF5C06002080B584B000AF786005
:1023F000FFF7EEFFB8607B68FB60FB68B3F1FF3F5F
:1024000005D00A4B1B781A46FB681344FB6000BFDB
:10241000FFF7DEFF0246BB68D31AFA689A42F7D884
:1024200000BF00BF1037BD4680BD00BF0C000020BC
:1024300080B584B000AF78600023FB737B68002B0D
:1024400001D1012333E07B681B6C002B09D1786834
:10245000FFF7D4FA7B6800225A647B68002283F875
:102460003C207B681B6C03F01003002B18D17B68A9
:102470001B6C23F4885323F0020343F002027B68B1
:102480001A64786800F0D6FB7B6800225A647B6887
:102490001B6C23F0030343F001027B681A6401E024
:1024A0000123FB737B68002283F83C20FB7B1846EA
:1024B0001037BD4680BD80B586B000AF7860002380
:1024C0007B6100233B617B681B681B68FB607B684A
:1024D0001B685B68BB60FB6803F002037B61BB6841
:1024E00003F020033B617B69002B49D03B69002B43
:1024F00046D07B681B6C03F01003002B05D17B6872
:102500001B6C43F400727B681A647B681B689B68D1
:1025100003F04053002B2BD17B681B7E002B27D16F
:102520007B681B68DB6A03F47003002B06D07B68B2
:102530001B689B6803F48063002B19D17B681B68C0
:102540005A687B681B6822F020025A607B681B6C0B
:1025500023F480727B681A647B681B6C03F48053DD
:10256000002B05D17B681B6C43F001027B681A6469
:102570007868FEF7F9FE7B681B686FF012021A603C
:10258000FB6803F004037B61BB6803F080033B61DD
:102590007B69002B57D03B69002B54D07B681B6CA8
:1025A00003F01003002B05D17B681B6C43F4005231
:1025B0007B681A647B681B689B6803F44013002BDC
:1025C00039D17B681B689B6B03F44013002B06D04A
:1025D0007B681B689B6803F48063002B2BD17B68AE
:1025E0001B685B6803F48063002B24D17B681B6845
:1025F0009B6803F04053002B1DD17B681B7E002B92
:1026000019D17B681B685A687B681B6822F08002BE
:102610005A607B681B6C23F480527B681A647B6869
:102620001B6C03F48073002B05D17B681B6C43F09B
:1026300001027B681A64786800F07AFC7B681B688A
:102640006FF00C021A60FB6803F001037B61BB684A
:1026500003F040033B617B69002B17D03B69002BE3
:1026600014D07B681B681B6803F00103012B0DD19C
:102670007B681B6C43F480327B681A64786800F0D6
:10268000A3F97B681B686FF001021A60FB6803F016
:1026900020037B61BB6803F080633B617B69002B97
:1026A00015D03B69002B12D07B685B6C43F00202B3
:1026B0007B685A647B681B686FF020021A60786838
:1026C00000F08CF97B681B686FF020021A6000BF75
:1026D0001837BD4680BD000080B588B000AFF860F7
:1026E000B9607A6000237B610023FB77FB6893F875
:1026F0003C30012B01D10223EBE0FB68012283F87F
:102700003C20FB681B689B6803F00103012B18D079
:10271000FB681B689A68FB681B6842F001029A60BC
:102720006E4B1B686E4AA2FB03239A0C13465B0098
:1027300013447B6102E07B69013B7B617B69002B79
:10274000F9D1FB681B689B6803F48073B3F5807F45
:1027500007D1FB681B689A68FB681B6822F48072CB
:102760009A60FB681B689B6803F00103012B40F033
:10277000A380FB681B6C23F4E06323F0010343F4A4
:102780008072FB681A64FB681B685B6803F48063F3
:10279000002B07D0FB681B6C23F4405343F480529A
:1027A000FB681A64FB681B6C03F48053B3F5805F0D
:1027B00006D1FB685B6C23F00602FB685A6402E0FA
:1027C000FB6800225A64FB68002283F83C20454BDA
:1027D000BB61FB689B6B444ADA63FB689B6B434AB3
:1027E0001A64FB689B6B424ADA64FB681B686FF0F3
:1027F00022021A60FB681B685A68FB681B6842F07B
:1028000080625A60FB681B689A68FB681B6842F428
:1028100080729A60FB68986BFB681B684C331946A2
:10282000BA687B6800F04EFD0346FB77BB695B68C6
:1028300003F01F03002B2AD1FB681B682D4A93422B
:1028400015D0FB681B682C4A934205D1254B5B6869
:1028500003F01F03002B0AD0FB681B68274A934232
:1028600036D1204B5B6803F01003002B30D1FB689E
:102870001B689B6803F04053002B29D1FB681B6841
:102880009A68FB681B6842F080429A6020E0FB680F
:102890001B68184A93421BD1FB681B689B6803F0B6
:1028A0004053002B14D1FB681B689A68FB681B68B7
:1028B00042F080429A600BE0FB681B6C43F0100210
:1028C000FB681A64FB685B6C43F00102FB685A64A6
:1028D000FB7F18462037BD4680BD00BF04000020A6
:1028E00083DE1B43002301402D2E0008E72E000845
:1028F000032F000800200140002101400022014078
:1029000080B584B000AF78600023FB737B6893F8D8
:102910003C30012B01D1022348E07B68012283F87F
:102920003C207B681B689A687B681B6822F0010268
:102930009A607B681B689B6803F00103002B30D111
:102940007B681B689A687B681B6822F480729A60B7
:102950007B689B6B93F83530DBB2022B0FD17B6821
:102960009B6B184600F006FD0346FB73FB7B002BB8
:1029700005D07B681B6C43F040027B681A647B685F
:102980001B685A687B681B6822F080625A607B680B
:102990001B6C23F4885323F0010343F001027B688E
:1029A0001A647B68002283F83C20FB7B18461037B2
:1029B000BD4680BD80B483B000AF786000BF0C37E7
:1029C000BD465DF8047B704780B483B000AF78608B
:1029D00000BF0C37BD465DF8047B704780B483B000
:1029E00000AF786000BF0C37BD465DF8047B7047D0
:1029F00080B485B000AF786039600023BB607B682D
:102A000093F83C30012B01D1022305E17B680122C0
:102A100083F83C203B681B68092B25D97B681B6821
:102A2000D9683B681B689BB21A4613465B00134487
:102A30001E3B072202FA03F3DA437B681B680A4055
:102A4000DA607B681B68D9683B689A683B681B68DA
:102A50009BB2184603465B0003441E3B9A407B68CA
:102A60001B680A43DA6022E07B681B6819693B68CF
:102A70001B689BB21A4613465B001344072202FAF6
:102A800003F3DA437B681B680A401A617B681B68A2
:102A900019693B689A683B681B689BB218460346F5
:102AA0005B0003449A407B681B680A431A613B68D9
:102AB0005B68062B24D87B681B68596B3B685A6897
:102AC00013469B001344053B1F2202FA03F3DA432B
:102AD0007B681B680A405A637B681B68596B3B68BC
:102AE0001B689BB218463B685A6813469B00134408
:102AF000053B00FA03F27B681B680A435A634CE00B
:102B00003B685B680C2B24D87B681B68196B3B689F
:102B10005A6813469B001344233B1F2202FA03F317
:102B2000DA437B681B680A401A637B681B68196B71
:102B30003B681B689BB218463B685A6813469B006B
:102B40001344233B00FA03F27B681B680A431A63B1
:102B500023E07B681B68D96A3B685A6813469B0070
:102B60001344413B1F2202FA03F3DA437B681B68DC
:102B70000A40DA627B681B68D96A3B681B689BB2B3
:102B800018463B685A6813469B001344413B00FAC1
:102B900003F27B681B680A43DA62224BFB607B68A6
:102BA0001B68214A934209D13B681B68122B05D14F
:102BB000FB685B6843F48002FB685A607B681B68B3
:102BC000194A934223D13B681B68102B03D03B6802
:102BD0001B68112B1BD1FB685B6843F40002FB6888
:102BE0005A603B681B68102B11D1104B1B68104AB0
:102BF000A2FB03239A0C13469B0013445B00BB60AB
:102C000002E0BB68013BBB60BB68002BF9D17B686D
:102C1000002283F83C20002318461437BD465DF897
:102C2000047B704700230140002001400400002085
:102C300083DE1B4380B485B000AF7860794BFB60C6
:102C4000FB685B6823F44032FB685A60FB685A6893
:102C50007B685B681A43FB685A607B681B685A682C
:102C60007B681B6822F480725A607B681B68596815
:102C70007B681B691A027B681B680A435A607B6881
:102C80001B685A687B681B6822F040725A607B6838
:102C90001B6859687B689A687B681B680A435A609E
:102CA0007B681B689A687B681B6822F400629A60E4
:102CB0007B681B6899687B68DA687B681B680A43D5
:102CC0009A607B689B6A584A934222D07B681B6853
:102CD0009A687B681B6822F070629A607B681B6848
:102CE00099687B689A6A7B681B680A439A607B686C
:102CF0001B689A687B681B6822F040529A607B6868
:102D00001B6899687B68DA6A7B681B680A439A606B
:102D10000FE07B681B689A687B681B6822F0706212
:102D20009A607B681B689A687B681B6822F0405237
:102D30009A607B681B689A687B681B6822F00202B5
:102D40009A607B681B6899687B681B7E5A007B6869
:102D50001B680A439A607B6893F82030002B1BD0D5
:102D60007B681B685A687B681B6842F400625A6083
:102D70007B681B685A687B681B6822F460425A6053
:102D80007B681B6859687B685B6A013B5A037B68F8
:102D90001B680A435A6007E07B681B685A687B68B7
:102DA0001B6822F400625A607B681B68DA6A7B68E1
:102DB0001B6822F47002DA627B681B68D96A7B6840
:102DC000DB69013B1A057B681B680A43DA627B6892
:102DD0001B689A687B681B6822F400729A607B68A3
:102DE0001B6899687B6893F830305A027B681B68CF
:102DF0000A439A607B681B689A687B681B6822F4A8
:102E000080629A607B681B6899687B685B699A023C
:102E10007B681B680A439A6000BF1437BD465DF8A3
:102E2000047B7047002301400100000F80B584B08F
:102E300000AF78607B689B6BFB60FB681B6C03F0EA
:102E40005003002B3CD1FB681B6C43F40072FB6801
:102E50001A64FB681B689B6803F04053002B2BD15E
:102E6000FB681B7E002B27D1FB681B68DB6A03F421
:102E70007003002B06D0FB681B689B6803F480631B
:102E8000002B19D1FB681B685A68FB681B6822F08D
:102E900020025A60FB681B6C23F48072FB681A6482
:102EA000FB681B6C03F48053002B05D1FB681B6C83
:102EB00043F00102FB681A64F868FEF755FA0EE069
:102EC000FB681B6C03F01003002B03D0F868FFF7BE
:102ED00085FD04E0FB689B6BDB6C7868984700BF5E
:102EE0001037BD4680BD80B584B000AF78607B6888
:102EF0009B6BFB60F868FFF75DFD00BF1037BD46B8
:102F000080BD80B584B000AF78607B689B6BFB6050
:102F1000FB6840221A64FB685B6C43F00402FB68A8
:102F20005A64F868FFF75AFD00BF1037BD4680BDF0
:102F300080B483B000AF786000BF0C37BD465DF849
:102F4000047B704780B485B000AF78607B6803F085
:102F50000703FB600C4BDB68BB60BA684FF6FF03EE
:102F60001340BB60FB681A02BB68134343F0BF63A6
:102F700043F40033BB60044ABB68D36000BF14371E
:102F8000BD465DF8047B704700ED00E080B400AF03
:102F9000044BDB681B0A03F007031846BD465DF8C7
:102FA000047B704700ED00E080B483B000AF0346BF
:102FB000FB7197F90730002B0BDBFB7903F01F0245
:102FC000074997F907305B09012000FA02F241F83E
:102FD000232000BF0C37BD465DF8047B704700BF5F
:102FE00000E100E080B483B000AF03463960FB71BC
:102FF00097F90730002B0ADB3B68DAB20C4997F9E6
:1030000007301201D2B20B4483F800230AE03B6878
:10301000DAB20849FB7903F00F03043B1201D2B284
:103020000B441A7600BF0C37BD465DF8047B704731
:1030300000E100E000ED00E080B489B000AFF8608E
:10304000B9607A60FB6803F00703FB61FB69C3F1B9
:103050000703042B28BF0423BB61FB690433062B41
:1030600002D9FB69033B00E000237B614FF0FF3294
:10307000BB6902FA03F3DA43BB681A407B699A40E2
:103080004FF0FF317B6901FA03F3D9437B680B40B2
:10309000134318462437BD465DF8047B7047000093
:1030A00080B582B000AF78607B68013BB3F1807F70
:1030B00001D301230FE00A4A7B68013B53600F21D3
:1030C0004FF0FF30FFF78EFF054B00229A60044B54
:1030D00007221A60002318460837BD4680BD00BF8E
:1030E00010E000E080B582B000AF78607868FFF74C
:1030F00029FF00BF0837BD4680BD80B586B000AF50
:103100000346B9607A60FB7300237B61FFF73EFFE3
:1031100078617A68B9687869FFF78EFF024697F997
:103120000F3011461846FFF75DFF00BF1837BD4648
:1031300080BD80B582B000AF0346FB7197F90730C0
:103140001846FFF731FF00BF0837BD4680BD80B588
:1031500082B000AF78607868FFF7A2FF0346184698
:103160000837BD4680BD000080B586B000AF7860EE
:1031700000237B61FFF72CF938617B68002B01D1BC
:10318000012399E07B68022283F835207B680022C6
:1031900083F834207B681B681A687B681B6822F000
:1031A00001021A600FE0FFF713F902463B69D31AD8
:1031B000052B08D97B6820225A657B68032283F897
:1031C0003520032378E07B681B681B6803F001034C
:1031D000002BE8D17B681B681B687B617A69384BE0
:1031E00013407B617B685A687B689B681A437B68E5
:1031F000DB681A437B681B691A437B685B691A4367
:103200007B689B691A437B68DB691A437B681B6A8E
:1032100013437A6913437B617B685B6A042B07D194
:103220007B68DA6A7B681B6B13437A6913437B61A3
:103230007B681B687A691A607B681B685B697B61C5
:103240007B6923F007037B617B685B6A7A691343C0
:103250007B617B685B6A042B17D17B689B6A7A6908
:1032600013437B617B68DB6A002B0ED0786800F02B
:1032700001FB0346002B08D07B6840225A657B681F
:10328000012283F83520012316E07B681B687A69E8
:103290005A61786800F0B8FA0346FB607B68DB6D22
:1032A0003F229A40FB689A607B6800225A657B68DF
:1032B000012283F83520002318461837BD4680BD0B
:1032C0003F8010F080B586B000AFF860B9607A60DA
:1032D0003B600023FB75FB689B6D3B61FB6893F8CB
:1032E0003430012B01D1022340E0FB68012283F836
:1032F0003420FB6893F83530DBB2012B2FD1FB680B
:10330000022283F83520FB6800225A653B687A6800
:10331000B968F86800F04AFAFB68DB6D3F229A4012
:103320003B699A60FB681B681A68FB681B6842F07F
:1033300016021A60FB681B6C002B07D0FB681B6829
:103340001A68FB681B6842F008021A60FB681B6879
:103350001A68FB681B6842F001021A6005E0FB680E
:10336000002283F834200223FB75FB7D18461837B2
:10337000BD4680BD80B584B000AF78607B689B6D32
:10338000FB60FFF725F8B8607B6893F83530DBB257
:10339000022B08D07B6880225A657B68002283F864
:1033A0003420012352E07B681B681A687B681B6825
:1033B00022F016021A607B681B685A697B681B68DA
:1033C00022F080025A617B681B6C002B03D17B6862
:1033D0009B6C002B07D07B681B681A687B681B6896
:1033E00022F008021A607B681B681A687B681B68F9
:1033F00022F001021A6013E0FEF7EAFF0246BB6802
:10340000D31A052B0CD97B6820225A657B680322CE
:1034100083F835207B68002283F83420032315E0ED
:103420007B681B681B6803F00103002BE4D17B68F9
:10343000DB6D3F229A40FB689A607B68012283F82B
:1034400035207B68002283F834200023184610378B
:10345000BD4680BD80B483B000AF78607B6893F8D0
:103460003530DBB2022B04D07B6880225A65012301
:103470000CE07B68052283F835207B681B681A689E
:103480007B681B6822F001021A60002318460C3783
:10349000BD465DF8047B704780B586B000AF7860AC
:1034A0000023BB608E4B1B688E4AA2FB03239B0A42
:1034B0007B617B689B6D3B613B691B68FB607B6844
:1034C000DB6D08229A40FB681340002B1AD07B6802
:1034D0001B681B6803F00403002B13D07B681B6878
:1034E0001A687B681B6822F004021A607B68DB6D37
:1034F00008229A403B699A607B685B6D43F0010249
:103500007B685A657B68DB6D01229A40FB6813403B
:10351000002B12D07B681B685B6903F08003002BD3
:103520000BD07B68DB6D01229A403B699A607B6817
:103530005B6D43F002027B685A657B68DB6D042299
:103540009A40FB681340002B12D07B681B681B68F5
:1035500003F00203002B0BD07B68DB6D04229A4042
:103560003B699A607B685B6D43F004027B685A6537
:103570007B68DB6D10229A40FB681340002B43D020
:103580007B681B681B6803F00803002B3CD07B683A
:10359000DB6D10229A403B699A607B681B681B6850
:1035A00003F48023002B18D07B681B681B6803F48E
:1035B0000023002B08D17B681B6C002B24D07B6878
:1035C0001B6C786898471FE07B689B6C002B1BD0B6
:1035D0007B689B6C7868984716E07B681B681B6863
:1035E00003F48073002B07D17B681B681A687B6823
:1035F0001B6822F008021A607B681B6C002B03D04A
:103600007B681B6C786898477B68DB6D20229A404A
:10361000FB681340002B00F08F807B681B681B68E1
:1036200003F01003002B00F087807B68DB6D202205
:103630009A403B699A607B6893F83530DBB2052B82
:1036400036D17B681B681A687B681B6822F01602FB
:103650001A607B681B685A697B681B6822F08002CD
:103660005A617B681B6C002B03D17B689B6C002B21
:1036700007D07B681B681A687B681B6822F0080209
:103680001A607B68DB6D3F229A403B699A607B68D9
:10369000012283F835207B68002283F834207B6880
:1036A0001B6D002B7ED07B681B6D7868984779E096
:1036B0007B681B681B6803F48023002B1DD07B688C
:1036C0001B681B6803F40023002B0DD17B685B6C27
:1036D000002B31D07B685B6C786898472CE000BF8A
:1036E00004000020B5814E1B7B68DB6B002B23D0D0
:1036F0007B68DB6B786898471EE07B681B681B68FB
:1037000003F48073002B0FD17B681B681A687B68F9
:103710001B6822F010021A607B68012283F83520B2
:103720007B68002283F834207B68DB6B002B03D09E
:103730007B68DB6B786898477B685B6D002B32D0C9
:103740007B685B6D03F00103002B22D07B680522B0
:1037500083F835207B681B681A687B681B6822F039
:1037600001021A60BB680133BB607A699A4207D3D1
:103770007B681B681B6803F00103002BF2D100E09B
:1037800000BF7B68012283F835207B68002283F824
:1037900034207B68DB6C002B05D07B68DB6C7868A1
:1037A000984700E000BF1837BD4680BD80B485B0A3
:1037B00000AFF860B9607A603B60FB681B681A680C
:1037C000FB681B6822F480221A60FB681B683A6859
:1037D0005A60FB689B68402B08D1FB681B687A68BD
:1037E0009A60FB681B68BA68DA6007E0FB681B68D0
:1037F000BA689A60FB681B687A68DA6000BF1437A1
:10380000BD465DF8047B704780B485B000AF78603A
:103810007B681B68DBB2103B144AA2FB03231B0925
:10382000FB60134AFB6813441B781A467B68DA6511
:10383000FB68032B09D97B681B6823F47F7323F093
:1038400003031A1D7B689A6507E07B681B6823F4F5
:103850007F7323F003037A6893657B689B6D18463A
:103860001437BD465DF8047B704700BFABAAAAAA17
:10387000CC9C000880B485B000AF78600023FB7357
:103880007B689B6ABB607B689B69002B1FD1BB6810
:10389000032B56D801A252F823F000BFAD38000820
:1038A000BF380008AD380008433900087B68DB6A80
:1038B00003F08073002B46D00123FB7343E07B6849
:1038C000DB6AB3F1C07F40D10123FB733DE07B682D
:1038D0009B69B3F5005F21D1BB68032B37D801A2E8
:1038E00052F823F0F5380008FB380008F5380008D6
:1038F0000D3900080123FB7330E07B68DB6A03F0BD
:103900008073002B25D00123FB7322E07B68DB6AE8
:10391000B3F1C07F1FD10123FB731CE0BB68022BF6
:1039200003D9BB68032B03D018E00123FB7315E018
:103930007B68DB6A03F08073002B0ED00123FB73DE
:103940000BE000BF0AE000BF08E000BF06E000BFD8
:1039500004E000BF02E000BF00E000BFFB7B1846B0
:103960001437BD465DF8047B704700BF80B489B052
:1039700000AF7860396000237B6100233B61002346
:10398000BB610023FB616BE10122FB6902FA03F3D7
:103990007B613B681B687A6913403B613A697B69CC
:1039A0009A4240F05A813B685B6803F00303012BA5
:1039B00005D03B685B6803F00303022B30D17B68C2
:1039C0009B68BB61FB695B00032202FA03F3DB43E4
:1039D000BA691340BB613B68DA68FB695B0002FAB5
:1039E00003F3BA691343BB617B68BA699A607B6869
:1039F0005B68BB610122FB6902FA03F3DB43BA692E
:103A00001340BB613B685B681B0903F00102FB6963
:103A100002FA03F3BA691343BB617B68BA695A605F
:103A20003B685B6803F00303032B17D07B68DB68FC
:103A3000BB61FB695B00032202FA03F3DB43BA6953
:103A40001340BB613B689A68FB695B0002FA03F3B1
:103A5000BA691343BB617B68BA69DA603B685B682B
:103A600003F00303022B23D1FB69DA087B680832D9
:103A700053F82230BB61FB6903F007039B000F2260
:103A800002FA03F3DB43BA691340BB613B681A696E
:103A9000FB6903F007039B0002FA03F3BA691343BF
:103AA000BB61FB69DA087B680832B96943F8221008
:103AB0007B681B68BB61FB695B00032202FA03F3AE
:103AC000DB43BA691340BB613B685B6803F00302E8
:103AD000FB695B0002FA03F3BA691343BB617B68BD
:103AE000BA691A603B685B6803F44033002B00F04E
:103AF000B4800023FB60604B5B6C5F4A43F48043FF
:103B000053645D4B5B6C03F48043FB60FB685B4A72
:103B1000FB699B08023352F82330BB61FB6903F059
:103B200003039B000F2202FA03F3DB43BA6913403D
:103B3000BB617B68524A93422BD07B68514A9342C7
:103B400025D07B68504A93421FD07B684F4A9342EE
:103B500019D07B684E4A934213D07B684D4A9342FA
:103B60000DD07B684C4A934207D07B684B4A934206
:103B700001D107230EE008230CE006230AE0052309
:103B800008E0042306E0032304E0022302E001230B
:103B900000E00023FA6902F0030292009340BA6940
:103BA0001343BB613549FB699B080233BA6941F88D
:103BB00023203B4B9B68BB613B69DB43BA691340E5
:103BC000BB613B685B6803F48013002B03D0BA69C8
:103BD0003B691343BB61324ABB699360304BDB687E
:103BE000BB613B69DB43BA691340BB613B685B68FF
:103BF00003F40013002B03D0BA693B691343BB6184
:103C0000274ABB69D360264B5B68BB613B69DB43DA
:103C1000BA691340BB613B685B6803F40033002B57
:103C200003D0BA693B691343BB611D4ABB6953604A
:103C30001B4B1B68BB613B69DB43BA691340BB612B
:103C40003B685B6803F48033002B03D0BA693B699F
:103C50001343BB61124ABB691360FB690133FB610B
:103C6000FB690F2B7FF690AE00BF00BF2437BD4627
:103C70005DF8047B704700BF003802400038014007
:103C8000000002400004024000080240000C024014
:103C9000001002400014024000180240001C0240C4
:103CA000003C014080B483B000AF78600B467B805D
:103CB00013467B707B78002B03D07A887B689A61EF
:103CC00003E07B881A047B689A6100BF0C37BD460D
:103CD0005DF8047B7047000080B586B000AF786067
:103CE0007B68002B01D1012367E27B681B6803F02E
:103CF0000103002B75D0884B9B6803F00C03042B49
:103D00000CD0854B9B6803F00C03082B12D1824B1F
:103D10005B6803F48003B3F5800F0BD17E4B1B6807
:103D200003F40033002B5BD07B685B68002B57D11A
:103D3000012342E27B685B68B3F5803F06D1764B96
:103D40001B68754A43F4803313601DE07B685B6831
:103D5000B3F5A02F0CD1704B1B686F4A43F480233E
:103D600013606D4B1B686C4A43F4803313600BE0A7
:103D7000694B1B68684A23F480331360664B1B68E9
:103D8000654A23F4802313607B685B68002B13D0A3
:103D9000FEF71EFB386108E0FEF71AFB02463B699E
:103DA000D31A642B01D9032307E25B4B1B6803F48E
:103DB0000033002BF0D014E0FEF70AFB386108E076
:103DC000FEF706FB02463B69D31A642B01D9032395
:103DD000F3E1514B1B6803F40033002BF0D100E0FA
:103DE00000BF7B681B6803F00203002B63D04A4BC3
:103DF0009B6803F00C03002B0BD0474B9B6803F030
:103E00000C03082B1CD1444B5B6803F48003002B8C
:103E100016D1414B1B6803F00203002B05D07B68D1
:103E2000DB68012B01D00123C7E13B4B1B6823F06A
:103E3000F8027B681B69DB00374913430B603AE0EB
:103E40007B68DB68002B20D0344B01221A60FEF720
:103E5000BFFA386108E0FEF7BBFA02463B69D31AA5
:103E6000022B01D90323A8E12B4B1B6803F00203AB
:103E7000002BF0D0284B1B6823F0F8027B681B69ED
:103E8000DB00254913430B6015E0244B00221A6028
:103E9000FEF79EFA386108E0FEF79AFA02463B699F
:103EA000D31A022B01D9032387E11B4B1B6803F0B4
:103EB0000203002BF0D17B681B6803F00803002B82
:103EC00036D07B685B69002B16D0154B01221A6037
:103ED000FEF77EFA386108E0FEF77AFA02463B699F
:103EE000D31A022B01D9032367E10B4B5B6F03F05D
:103EF0000203002BF0D01BE0094B00221A60FEF7F2
:103F000067FA38610EE0FEF763FA02463B69D31A9E
:103F1000022B07D9032350E100380240000047423A
:103F2000800E4742884B5B6F03F00203002BEAD1FF
:103F30007B681B6803F00403002B00F097800023CC
:103F4000FB75814B1B6C03F08053002B0FD10023BA
:103F5000BB607D4B1B6C7C4A43F0805313647A4BEF
:103F60001B6C03F08053BB60BB680123FB75774B70
:103F70001B6803F48073002B18D1744B1B68734AC1
:103F800043F480731360FEF723FA386108E0FEF70C
:103F90001FFA02463B69D31A022B01D903230CE115
:103FA0006A4B1B6803F48073002BF0D07B689B681E
:103FB000012B06D1644B1B6F634A43F00103136767
:103FC0001CE07B689B68052B0CD15F4B1B6F5E4A26
:103FD00043F0040313675C4B1B6F5B4A43F0010320
:103FE00013670BE0584B1B6F574A23F0010313670D
:103FF000554B1B6F544A23F0040313677B689B687F
:10400000002B15D0FEF7E4F938610AE0FEF7E0F97D
:1040100002463B69D31A41F28832934201D9032305
:10402000CBE0494B1B6F03F00203002BEED014E0F2
:10403000FEF7CEF938610AE0FEF7CAF902463B699D
:10404000D31A41F28832934201D90323B5E03E4BA3
:104050001B6F03F00203002BEED1FB7D012B05D17A
:10406000394B1B6C384A23F0805313647B689B697F
:10407000002B00F0A180344B9B6803F00C03082B4D
:104080005CD07B689B69022B41D1314B00221A60C6
:10409000FEF79EF9386108E0FEF79AF902463B699F
:1040A000D31A022B01D9032387E0274B1B6803F0A7
:1040B0000073002BF0D17B68DA697B681B6A1A43B6
:1040C0007B685B6A9B011A437B689B6A5B08013BC8
:1040D0001B041A437B68DB6A1B061B4913434B60B6
:1040E0001B4B01221A60FEF773F9386108E0FEF7F6
:1040F0006FF902463B69D31A022B01D903235CE016
:10410000114B1B6803F00073002BF0D054E0104BF0
:1041100000221A60FEF75CF9386108E0FEF758F9F2
:1041200002463B69D31A022B01D9032345E0064B13
:104130001B6803F00073002BF0D13DE07B689B69A6
:10414000012B07D1012338E0003802400070004005
:10415000600047421B4B5B68FB607B689B69012BDF
:1041600028D0FB6803F480027B68DB699A4221D186
:10417000FB6803F03F027B681B6A9A421AD1FA6817
:1041800047F6C07313407A68526A9201934211D184
:10419000FB6803F440327B689B6A5B08013B1B04AD
:1041A0009A4207D1FB6803F070627B68DB6A1B06EA
:1041B0009A4201D0012300E0002318461837BD467B
:1041C00080BD00BF0038024080B584B000AF786089
:1041D00039607B68002B01D10123CCE0684B1B6860
:1041E00003F007033A689A420CD9654B3A68D2B299
:1041F0001A70634B1B6803F007033A689A4201D0B8
:104200000123B8E07B681B6803F00203002B20D079
:104210007B681B6803F00403002B05D0594B9B6897
:10422000584A43F4E05393607B681B6803F008032B
:10423000002B05D0534B9B68524A43F46043936074
:10424000504B9B6823F0F0027B689B684D491343F9
:104250008B607B681B6803F00103002B44D07B68F4
:104260005B68012B07D1474B1B6803F40033002B1D
:1042700019D101237FE07B685B68022B03D07B6848
:104280005B68032B07D13F4B1B6803F00073002BC7
:1042900009D101236FE03B4B1B6803F00203002BA5
:1042A00001D1012367E0374B9B6823F003027B6851
:1042B0005B68344913438B60FEF78AF8F8600AE0C4
:1042C000FEF786F80246FB68D31A41F28832934221
:1042D00001D903234FE02B4B9B6803F00C027B6852
:1042E0005B689B009A42EBD1254B1B6803F00703E8
:1042F0003A689A420CD2224B3A68D2B21A70204BDA
:104300001B6803F007033A689A4201D0012332E0A8
:104310007B681B6803F00403002B08D0194B9B68D3
:1043200023F4E0527B68DB68164913438B607B689B
:104330001B6803F00803002B09D0124B9B6823F481
:1043400060427B681B69DB000E4913438B6000F001
:1043500021F802460B4B9B681B0903F00F030A4927
:10436000CB5C22FA03F3094A1360094B1B68184619
:10437000FDF7EAFF002318461037BD4680BD00BF99
:10438000003C024000380240B49C000804000020B9
:10439000080000202DE9B04F90B000AF00237B63F0
:1043A0000023FB6300233B630023BB63594B9B68E3
:1043B00003F00C03082B0DD0082B00F2A180002B7A
:1043C00002D0042B03D09BE0534BBB639BE0534BC9
:1043D000BB6398E04F4B5B6803F03F037B634D4B3F
:1043E0005B6803F48003002B28D04A4B5B689B0971
:1043F00000223B627A623B6AC3F308000021474B0C
:1044000003FB01F2002300FB03F31344434AA0FB28
:104410000212FA620A46BA62FA6A1344FB627B6BC2
:104420000022BB61FA61D7E90623D7E90A01FCF74C
:10443000BBFB02460B461346FB6353E0354B5B6800
:104440009B0900223B617A613B69C3F3080A4FF084
:10445000000B52465B464FF000004FF0000159013F
:1044600041EAD261500102460B46B2EB0A0863EB07
:104470000B094FF000024FF000034FEA891343EAA3
:1044800098634FEA8812B2EB080463EB09054FF01A
:1044900000024FF00003EB0043EA5473E2001446BD
:1044A0001D4614EB0A033B6045EB0B037B604FF0AA
:1044B00000024FF00003D7E9004529468B02214650
:1044C00043EA915321468A02104619467B6B00222B
:1044D000BB60FA60D7E90223FCF766FB02460B4695
:1044E0001346FB630B4B5B681B0C03F003030133A8
:1044F0005B003B63FA6B3B6BB2FBF3F3BB6302E025
:10450000054BBB6300BFBB6B18464037BD46BDE8DB
:10451000B08F00BF003802400024F40040787D01D5
:1045200080B400AF034B1B681846BD465DF8047BA2
:10453000704700BF0400002080B500AFFFF7F0FF18
:104540000246054B9B689B0A03F007030349CB5CBB
:1045500022FA03F3184680BD00380240C49C0008CC
:1045600080B500AFFFF7DCFF0246054B9B685B0B95
:1045700003F007030349CB5C22FA03F3184680BD1E
:1045800000380240C49C000880B582B000AF78605B
:104590007B68002B01D101237BE07B685B6A002BE9
:1045A00008D17B685B68B3F5827F09D07B68002205
:1045B000DA6105E07B6800221A617B6800225A619B
:1045C0007B6800229A627B6893F85130DBB2002B43
:1045D00006D17B68002283F850207868FDF70EFC36
:1045E0007B68022283F851207B681B681A687B680D
:1045F0001B6822F040021A607B685B6803F48272D9
:104600007B689B6803F404431A437B68DB6803F40C
:1046100000631A437B681B6903F002031A437B683B
:104620005B6903F001031A437B689B6903F4007321
:104630001A437B68DB6903F038031A437B681B6A03
:1046400003F0800342EA03017B689B6A03F4005293
:104650007B681B680A431A607B689B691B0C03F02C
:1046600004017B685B6A03F010027B681B680A43E5
:104670005A607B681B68DA697B681B6822F40062F9
:10468000DA617B6800225A657B68012283F8512039
:10469000002318460837BD4680BD80B588B000AFFE
:1046A000F860B9603B601346FB80FDF791FEF8614E
:1046B000FB887B83FB6893F85130DBB2012B01D080
:1046C00002232AE1BB68002B02D0FB88002B01D11A
:1046D000012322E1FB6893F85030012B01D1022322
:1046E0001BE1FB68012283F85020FB68032283F85A
:1046F0005120FB6800225A65FB68BA681A63FB68A0
:10470000FA889A86FB68FA88DA86FB6800229A6340
:10471000FB6800229A87FB680022DA87FB68002288
:104720005A64FB6800221A64FB689B68B3F5004F6B
:104730000FD1FB681B681A68FB681B6822F04002F7
:104740001A60FB681B681A68FB681B6842F48042A9
:104750001A60FB681B681B6803F04003402B07D0FE
:10476000FB681B681A68FB681B6842F040021A600D
:10477000FB68DB68B3F5006F52D1FB685B68002B08
:1047800002D07B8B012B45D1FB681B6B1A88FB6821
:104790001B68DA60FB681B6B9A1CFB681A63FB687A
:1047A000DB8E9BB2013B9AB2FB68DA8632E0FB6893
:1047B0001B689B6803F00203022B12D1FB681B6B82
:1047C0001A88FB681B68DA60FB681B6B9A1CFB6825
:1047D0001A63FB68DB8E9BB2013B9AB2FB68DA86F8
:1047E00018E0FDF7F5FD0246FB69D31A3A689A42D4
:1047F00003D83B68B3F1FF3F02D13B68002B09D1DE
:10480000FB68012283F85120FB68002283F85020C6
:10481000032382E0FB68DB8E9BB2002BC7D153E001
:10482000FB685B68002B02D07B8B012B47D1FB68B8
:104830001A6BFB681B680C3312781A70FB681B6BD1
:104840005A1CFB681A63FB68DB8E9BB2013B9AB271
:10485000FB68DA8633E0FB681B689B6803F00203A1
:10486000022B13D1FB681A6BFB681B680C331278A0
:104870001A70FB681B6B5A1CFB681A63FB68DB8EA3
:104880009BB2013B9AB2FB68DA8618E0FDF7A0FD07
:104890000246FB69D31A3A689A4203D83B68B3F1DF
:1048A000FF3F02D13B68002B09D1FB68012283F84E
:1048B0005120FB68002283F8502003232DE0FB6881
:1048C000DB8E9BB2002BC6D1FA693968F86800F01C
:1048D000D9FB0346002B02D0FB6820225A65FB68F7
:1048E0009B68002B0AD100237B61FB681B68DB6897
:1048F0007B61FB681B689B687B617B69FB680122AD
:1049000083F85120FB68002283F85020FB685B6D20
:10491000002B01D0012300E0002318462037BD46BC
:1049200080BD80B588B002AFF860B9603B601346C7
:10493000FB80FB6893F85130DBB2012B01D00223DE
:1049400004E1BB68002B02D0FB88002B01D10123BE
:10495000FCE0FB685B68B3F5827F12D1FB689B6863
:10496000002B0ED1FB68042283F85120FA883B68A3
:1049700000931346BA68B968F86800F0EBF803468C
:10498000E4E0FDF725FD7861FB6893F85030012BDA
:1049900001D10223DAE0FB68012283F85020FB6892
:1049A000042283F85120FB6800225A65FB68BA682C
:1049B0009A63FB68FA889A87FB68FA88DA87FB684B
:1049C00000221A63FB6800229A86FB680022DA86BE
:1049D000FB6800221A64FB6800225A64FB689B682B
:1049E000B3F5004F0FD1FB681B681A68FB681B68A2
:1049F00022F040021A60FB681B681A68FB681B689B
:104A000022F480421A60FB681B681B6803F04003B5
:104A1000402B07D0FB681B681A68FB681B6842F0D4
:104A200040021A60FB68DB68002B70D135E0FB6840
:104A30001B689B6803F00103012B15D1FB681B6801
:104A400003F10C02FB689B6B1278D2B21A70FB6800
:104A50009B6B5A1CFB689A63FB68DB8F9BB2013B24
:104A60009AB2FB68DA8718E0FDF7B2FC02467B6970
:104A7000D31A3A689A4203D83B68B3F1FF3F02D198
:104A80003B68002B09D1FB68012283F85120FB68A9
:104A9000002283F85020032358E0FB68DB8F9BB291
:104AA000002BC4D138E0FB681B689B6803F001034E
:104AB000012B13D1FB681B68DA68FB689B6B92B211
:104AC0001A80FB689B6B9A1CFB689A63FB68DB8F00
:104AD0009BB2013B9AB2FB68DA8718E0FDF778FCDD
:104AE00002467B69D31A3A689A4203D83B68B3F10D
:104AF000FF3F02D13B68002B09D1FB68012283F8FC
:104B00005120FB68002283F8502003231EE0FB683D
:104B1000DB8F9BB2002BC6D17A693968F86800F048
:104B20004BFA0346002B02D0FB6820225A65FB6833
:104B3000012283F85120FB68002283F85020FB6893
:104B40005B6D002B01D0012300E0002318461837CD
:104B5000BD4680BD80B58AB000AFF860B9607A60AC
:104B60007B8001237B62FDF733FC3862FB6893F89E
:104B70005130FB77FB685B68BB617B88FB82FB7F06
:104B8000012B0CD0BB69B3F5827F06D1FB689B6813
:104B9000002B02D1FB7F042B01D002237FE1BB68F5
:104BA000002B05D07B68002B02D07B88002B01D125
:104BB000012374E1FB6893F85030012B01D10223EB
:104BC0006DE1FB68012283F85020FB6893F85130B7
:104BD000DBB2042B03D0FB68052283F85120FB686D
:104BE00000225A65FB687A689A63FB687A88DA87DC
:104BF000FB687A889A87FB68BA681A63FB687A88C8
:104C0000DA86FB687A889A86FB6800221A64FB6859
:104C100000225A64FB681B681B6803F04003402BAA
:104C200007D0FB681B681A68FB681B6842F04002EB
:104C30001A60FB68DB68B3F5006F7ED1FB685B68C8
:104C4000002B02D0FB8A012B6CD1FB681B6B1A88EE
:104C5000FB681B68DA60FB681B6B9A1CFB681A63B5
:104C6000FB68DB8E9BB2013B9AB2FB68DA8659E0A7
:104C7000FB681B689B6803F00203022B1BD1FB68D7
:104C8000DB8E9BB2002B16D07B6A012B13D1FB6805
:104C90001B6B1A88FB681B68DA60FB681B6B9A1C2D
:104CA000FB681A63FB68DB8E9BB2013B9AB2FB6820
:104CB000DA8600237B62FB681B689B6803F00103B4
:104CC000012B19D1FB68DB8F9BB2002B14D0FB6842
:104CD0001B68DA68FB689B6B92B21A80FB689B6B5F
:104CE0009A1CFB689A63FB68DB8F9BB2013B9AB20C
:104CF000FB68DA8701237B62FDF76AFB02463B6AA9
:104D0000D31A3A6B9A420DD83B6BB3F1FF3F09D0EF
:104D1000FB68012283F85120FB68002283F85020B1
:104D20000323BCE0FB68DB8E9BB2002BA0D1FB68A9
:104D3000DB8F9BB2002B9BD182E0FB685B68002B72
:104D400002D0FB8A012B71D1FB681A6BFB681B68D0
:104D50000C3312781A70FB681B6B5A1CFB681A63C1
:104D6000FB68DB8E9BB2013B9AB2FB68DA865DE0A2
:104D7000FB681B689B6803F00203022B1CD1FB68D5
:104D8000DB8E9BB2002B17D07B6A012B14D1FB6802
:104D90001A6BFB681B680C3312781A70FB681B6B6C
:104DA0005A1CFB681A63FB68DB8E9BB2013B9AB20C
:104DB000FB68DA8600237B62FB681B689B6803F054
:104DC0000103012B19D1FB68DB8F9BB2002B14D0A0
:104DD000FB681B68DA68FB689B6BD2B21A70FB68D1
:104DE0009B6B5A1CFB689A63FB68DB8F9BB2013B91
:104DF0009AB2FB68DA8701237B62FDF7E9FA024683
:104E00003B6AD31A3A6B9A4203D83B6BB3F1FF3F2C
:104E100002D13B6B002B09D1FB68012283F85120A2
:104E2000FB68002283F85020032338E0FB68DB8E08
:104E30009BB2002B9CD1FB68DB8F9BB2002B97D1E0
:104E40003A6A396BF86800F01DF90346002B08D068
:104E5000FB6820225A65FB68002283F8502001235A
:104E60001DE0FB689B68002B0AD100233B61FB68B7
:104E70001B68DB683B61FB681B689B683B613B69A7
:104E8000FB68012283F85120FB68002283F8502040
:104E9000FB685B6D002B01D0012300E00023184666
:104EA0002837BD4680BD000080B588B000AFF860EF
:104EB000B9603B601346FB71FDF78AFA0246BB6A94
:104EC0009B1A3A681344FB61FDF782FAB861394BCB
:104ED0001B685B011B0DFA6902FB03F37B6155E064
:104EE0003B68B3F1FF3F51D0FDF772FA0246BB6950
:104EF000D31AFA699A4202D9FB69002B3DD1FB68AB
:104F00001B685A68FB681B6822F0E0025A60FB6865
:104F10005B68B3F5827F11D1FB689B68B3F5004FE6
:104F200004D0FB689B68B3F5806F07D1FB681B68F2
:104F30001A68FB681B6822F040021A60FB689B6AD3
:104F4000B3F5005F0FD1FB681B681A68FB681B682C
:104F500022F400521A60FB681B681A68FB681B6821
:104F600042F400521A60FB68012283F85120FB686A
:104F7000002283F85020032318E07B69002B02D124
:104F80000023FB6102E07B69013B7B61FB681B68DE
:104F90009A68BB681340BA689A420CBF0123002389
:104FA000DBB21A46FB799A429AD100231846203781
:104FB000BD4680BD0400002080B586B002AFF86019
:104FC000B9607A60FB685B68B3F5827F11D1FB68DA
:104FD0009B68B3F5004F04D0FB689B68B3F5806F06
:104FE00007D1FB681B681A68FB681B6822F0400247
:104FF0001A60FB685B68B3F5827F2AD1FB689B6807
:10500000B3F5806F12D07B680093BB6800228021CB
:10501000F868FFF749FF0346002B2DD0FB685B6D56
:1050200043F02002FB685A65032326E07B68009367
:10503000BB6800220121F868FFF736FF0346002B0A
:105040001AD0FB685B6D43F02002FB685A650323AE
:1050500013E07B680093BB6800220121F868FFF72A
:1050600023FF0346002B07D0FB685B6D43F0200253
:10507000FB685A65032300E0002318461037BD463D
:1050800080BD000080B588B002AFF860B9607A607A
:105090007B680093BB6801220221F868FFF704FFD8
:1050A0000346002B07D0FB685B6D43F02002FB68D2
:1050B0005A65032332E01B4B1B681B4AA2FB0323E8
:1050C0005B0D4FF47A7202FB03F37B61FB685B6854
:1050D000B3F5827F12D17B680093BB6800228021E8
:1050E000F868FFF7E1FE0346002B16D0FB685B6D06
:1050F00043F02002FB685A6503230FE07B69002B15
:105100000AD07B69013B7B61FB681B689B6803F0ED
:105110008003802BF2D000E000BF00231846183730
:10512000BD4680BD04000020819F5E1680B582B020
:1051300000AF78607B68002B01D1012342E07B68DF
:1051400093F84130DBB2002B06D17B68002283F854
:1051500040207868FDF720F87B68242283F84120FE
:105160007B681B68DA687B681B6822F40052DA608F
:10517000786800F0C7FE7B681B681A697B681B684B
:1051800022F490421A617B681B685A697B681B682D
:1051900022F02A025A617B681B68DA687B681B6808
:1051A00042F40052DA607B6800225A647B68202255
:1051B00083F841207B68202283F842207B6800220C
:1051C0005A63002318460837BD4680BD80B58AB0B3
:1051D00002AFF860B9603B601346FB8000237B613F
:1051E000FB6893F84130DBB2202B75D1BB68002BF4
:1051F00002D0FB88002B01D101236EE0FB68002266
:105200005A64FB68212283F84120FDF7E1F87861B8
:10521000FB68FA889A84FB68FA88DA84FB689B68E2
:10522000B3F5805F08D1FB681B69002B04D1002314
:10523000FB61BB68BB6103E0BB68FB610023BB6132
:105240002EE03B6800937B6900228021F86800F023
:105250003EFC0346002B05D0FB68202283F841204A
:1052600003233AE0FB69002B0BD1BB691B881A466C
:10527000FB681B68C2F308025A60BB690233BB615A
:1052800007E0FB691A78FB681B685A60FB69013309
:10529000FB61FB68DB8C9BB2013B9AB2FB68DA8452
:1052A000FB68DB8C9BB2002BCBD13B6800937B6906
:1052B00000224021F86800F00AFC0346002B05D0CC
:1052C000FB68202283F84120032306E0FB682022AC
:1052D00083F84120002300E0022318462037BD4612
:1052E00080BD000080B58CB000AFF860B960134697
:1052F000FB80FB6893F84130DBB2202B62D1BB68A6
:10530000002B02D0FB88002B01D101235BE0BA689F
:10531000FB681A62FB68FA889A84FB68FA88DA8468
:10532000FB6800225A64FB68212283F84120FB6855
:105330009B6B274ADA63FB689B6B264A1A64FB68FF
:105340009B6B254ADA64FB689B6B00221A6507F1A8
:105350000803FB62FB68986BFB6A1968FB681B68B3
:1053600004331A46FB88FDF7ADFF0346002B08D037
:10537000FB6810225A64FB68202283F84120012335
:1053800021E0FB681B686FF040021A60FB681B6835
:105390001433BB61BB6953E8003F7B617B6943F019
:1053A0008003BB62FB681B681433BA6A7A623B6293
:1053B000396A7A6A41E80023FB61FB69002BE5D179
:1053C000002300E0022318463037BD4680BD00BFF1
:1053D000855900081F5A00083B5A000880B5BAB02A
:1053E00000AF78607B681B681B68C7F8E4307B6897
:1053F0001B68DB68C7F8E0307B681B685B69C7F82F
:10540000DC300023C7F8D8300023C7F8D430D7F8F1
:10541000E43003F00F03C7F8D830D7F8D830002BAA
:105420000FD1D7F8E43003F02003002B09D0D7F8D0
:10543000E03003F02003002B03D0786800F0A4FCD8
:1054400073E2D7F8D830002B00F0DE80D7F8DC30DC
:1054500003F00103002B06D1D7F8E03003F490737A
:10546000002B00F0D180D7F8E43003F00103002BCB
:105470000BD0D7F8E03003F48073002B05D07B68A5
:105480005B6C43F001027B685A64D7F8E43003F0A8
:105490000403002B0BD0D7F8DC3003F00103002B02
:1054A00005D07B685B6C43F002027B685A64D7F8D6
:1054B000E43003F00203002B0BD0D7F8DC3003F00C
:1054C0000103002B05D07B685B6C43F004027B6812
:1054D0005A64D7F8E43003F00803002B11D0D7F852
:1054E000E03003F02003002B05D1D7F8DC3003F0C7
:1054F0000103002B05D07B685B6C43F008027B68DE
:105500005A647B685B6C002B00F00A82D7F8E430A9
:1055100003F02003002B08D0D7F8E03003F020037D
:10552000002B02D0786800F02FFC7B681B685B6959
:1055300003F04003402B0CBF01230023DBB2C7F86C
:10554000D4307B685B6C03F00803002B03D1D7F8E1
:10555000D430002B4FD0786800F03AFB7B681B6892
:105560005B6903F04003402B41D17B681B68143317
:10557000C7F89C30D7F89C3053E8003FC7F8983004
:10558000D7F8983023F04003C7F8D0307B681B6809
:105590001433D7F8D020C7F8A820C7F8A430D7F81C
:1055A000A410D7F8A82041E80023C7F8A030D7F806
:1055B000A030002BD9D17B68DB6B002B13D07B682C
:1055C000DB6B8A4A1A657B68DB6B1846FDF742FF86
:1055D0000346002B16D07B68DB6B1B6D7A68D26BA1
:1055E000104698470EE0786800F0B6F90AE078684F
:1055F00000F0B2F906E0786800F0AEF97B680022AE
:105600005A648DE100BF8BE17B681B6B012B40F07E
:105610006781D7F8E43003F01003002B00F06081BD
:10562000D7F8E03003F01003002B00F0598100237D
:10563000BB607B681B681B68BB607B681B685B6822
:10564000BB60BB687B681B685B6903F04003402B51
:1056500040F0CE807B68DB6B1B685B68A7F8BE30D0
:10566000B7F8BE30002B00F0A9807B689B8DB7F89F
:10567000BE209A4280F0A2807B68B7F8BE20DA850F
:105680007B68DB6BDB69B3F5807F00F088807B682B
:105690001B680C33C7F88830D7F8883053E8003FD0
:1056A000C7F88430D7F8843023F48073C7F8B83053
:1056B0007B681B680C33D7F8B820C7F89420C7F86C
:1056C0009030D7F89010D7F8942041E80023C7F81D
:1056D0008C30D7F88C30002BD9D17B681B68143301
:1056E0007B677B6F53E8003F3B673B6F23F0010311
:1056F000C7F8B4307B681B681433D7F8B420C7F8F8
:105700008020FB67F96FD7F8802041E80023BB6752
:10571000BB6F002BE1D17B681B6814333B663B6E8B
:1057200053E8003FFB65FB6D23F04003C7F8B03042
:105730007B681B681433D7F8B020FA66BB66B96E75
:10574000FA6E41E800237B667B6E002BE3D17B6819
:10575000202283F842207B6800221A637B681B6842
:105760000C33FB64FB6C53E8003FBB64BB6C23F061
:105770001003C7F8AC307B681B680C33D7F8AC203B
:10578000BA657B65796DBA6D41E800233B653B6D79
:10579000002BE3D17B68DB6B1846FDF7EBFD7B68E4
:1057A00002225A637B689A8D7B68DB8D9BB2D31A89
:1057B0009BB21946786800F0D9F8B3E07B689B8DFE
:1057C000B7F8BE209A4240F0AD807B68DB6BDB69A6
:1057D000B3F5807F40F0A6807B6802225A637B6825
:1057E0009B8D1946786800F0C1F89BE0975C000833
:1057F0007B689A8D7B68DB8D9BB2D31AA7F8CE307D
:105800007B68DB8D9BB2002B00F08E80B7F8CE302A
:10581000002B00F089807B681B680C33BB63BB6B7B
:1058200053E8003F7B637B6B23F49073C7F8C83069
:105830007B681B680C33D7F8C8207A643B64396CEA
:105840007A6C41E80023FB63FB6B002BE3D17B68A0
:105850001B6814337B627B6A53E8003F3B623B6A00
:1058600023F00103C7F8C4307B681B681433D7F8F2
:10587000C4203A63FB62F96A3A6B41E80023BB62D9
:10588000BB6A002BE3D17B68202283F842207B682F
:1058900000221A637B681B680C333B613B6953E849
:1058A000003FFB60FB6823F01003C7F8C0307B6843
:1058B0001B680C33D7F8C020FA61BB61B969FA697B
:1058C00041E800237B617B69002BE3D17B680222E6
:1058D0005A63B7F8CE301946786800F047F823E0ED
:1058E000D7F8E43003F08003002B09D0D7F8E0307C
:1058F00003F08003002B03D0786800F0DDF914E09A
:10590000D7F8E43003F04003002B0ED0D7F8E03096
:1059100003F04003002B08D0786800F01DFA04E083
:1059200000BF02E000BF00E000BFE837BD4680BD19
:1059300080B483B000AF786000BF0C37BD465DF81F
:10594000047B704780B483B000AF786000BF0C3731
:10595000BD465DF8047B704780B483B000AF7860CB
:1059600000BF0C37BD465DF8047B704780B483B040
:1059700000AF78600B467B8000BF0C37BD465DF8FA
:10598000047B704780B590B000AF78607B689B6BFC
:10599000FB637B681B681B6803F48073002B37D1A3
:1059A000FB6B0022DA84FB6B1B6814337B627B6A1F
:1059B00053E8003F3B623B6A23F08003BB63FB6B11
:1059C0001B681433BA6B3A63FB62F96A3A6B41E8BD
:1059D0000023BB62BB6A002BE5D1FB6B1B680C3359
:1059E0003B613B6953E8003FFB60FB6843F04003C9
:1059F0007B63FB6B1B680C337A6BFA61BB61B96923
:105A0000FA6941E800237B617B69002BE5D102E064
:105A1000F86BFCF79FF900BF4037BD4680BD80B5ED
:105A200084B000AF78607B689B6BFB60F868FFF721
:105A30007FFF00BF1037BD4680BD80B584B000AF8A
:105A400078600023FB607B689B6BBB60BB681B6856
:105A50005B6903F08003802B0CBF01230023DBB2C2
:105A6000FB60BB6893F84130DBB2212B08D1FB68A7
:105A7000002B05D0BB680022DA84B86800F080F8FB
:105A8000BB681B685B6903F04003402B0CBF01231C
:105A90000023DBB2FB60BB6893F84230DBB2222B01
:105AA00008D1FB68002B05D0BB680022DA85B868F6
:105AB00000F08EF8BB685B6C43F01002BB685A6460
:105AC000B868FFF749FF00BF1037BD4680BD80B5FD
:105AD00086B000AFF860B9603B601346FB713BE0F5
