:020000040800F2
:1000000000000220D11C00083D1900084519000815
:100010004D190008551900085D190008000000007E
:10002000000000000000000000000000651900084A
:100030007319000800000000811900088F190008DA
:10004000211D0008211D0008211D0008211D000898
:10005000211D0008211D0008211D0008211D000888
:10006000211D0008211D0008211D0008211D000878
:10007000211D0008211D00089D190008211D0008F0
:10008000211D0008211D0008B1190008211D0008CC
:10009000211D0008211D0008211D0008211D000848
:1000A000211D0008211D0008211D0008211D000838
:1000B000211D0008211D0008211D0008211D000828
:1000C000211D0008211D0008211D0008211D000818
:1000D000211D0008211D0008211D0008C519000868
:1000E000211D0008211D0008211D0008211D0008F8
:1000F000211D0008211D0008211D0008211D0008E8
:10010000211D0008211D0008211D0008211D0008D7
:10011000211D0008211D0008211D0008211D0008C7
:10012000D9190008211D0008211D0008211D000803
:10013000211D0008211D0008211D0008211D0008A7
:10014000211D0008211D0008211D0008211D000897
:10015000211D0008211D0008211D0008211D000887
:10016000211D0008211D0008211D0008211D000877
:10017000211D0008211D0008211D000800000000AD
:08018000211D0008211D0008EB
:1001900010B5054C237833B9044B13B10448AFF3C1
:1001A00000800123237010BDD80100200000000052
:1001B0007480000808B5034B1BB103490348AFF333
:1001C000008008BD00000000DC01002074800008F1
:1001D00001F0FF01102A2BDB10F0070F08D010F8F8
:1001E000013B013A8B422DD010F0070F42B3F6D1FC
:1001F000F0B441EA012141EA014122F007047FF015
:1002000000070023F0E80256083C85EA010586EA6B
:10021000010685FA47F5A3FA87F586FA47F6A5FAA7
:1002200087F68EB9EED1F0BC01F0FF0102F00702B3
:1002300032B110F8013B013A83EA010313B1F8D15E
:100240000020704701387047002D06BF354603383F
:10025000073815F0010F07D1013015F4807F02BF78
:10026000013015F4C03F0130F0BC0138704700BFC9
:10027000034613F8012B002AFBD1181A01387047E6
:1002800081F0004102E000BF83F0004330B54FEA47
:1002900041044FEA430594EA050F08BF90EA020FB4
:1002A0001FBF54EA000C55EA020C7FEA645C7FEA47
:1002B000655C00F0E2804FEA5454D4EB5555B8BF6A
:1002C0006D420CDD2C4480EA020281EA030382EADB
:1002D000000083EA010180EA020281EA0303362D6D
:1002E00088BF30BD11F0004F4FEA01314FF4801C40
:1002F0004CEA113102D0404261EB410113F0004F52
:100300004FEA03334CEA133302D0524263EB430308
:1003100094EA050F00F0A780A4F10104D5F1200EA6
:100320000DDB02FA0EFC22FA05F2801841F1000101
:1003300003FA0EF2801843FA05F359410EE0A5F1D5
:1003400020050EF1200E012A03FA0EFC28BF4CF006
:10035000020C43FA05F3C01851EBE37101F00045BC
:1003600007D54FF0000EDCF1000C7EEB00006EEBC9
:100370000101B1F5801F1BD3B1F5001F0CD3490853
:100380005FEA30004FEA3C0C04F101044FEA4452AA
:1003900012F5800F80F09A80BCF1004F08BF5FEA31
:1003A000500C50F1000041EB045141EA050130BD11
:1003B0005FEA4C0C404141EB0101013C28BFB1F523
:1003C000801FE9D291F0000F04BF01460020B1FA6E
:1003D00081F308BF2033A3F10B03B3F120020CDA41
:1003E0000C3208DD02F1140CC2F10C0201FA0CF01F
:1003F00021FA02F10CE002F11402D8BFC2F1200C84
:1004000001FA02F120FA0CFCDCBF41EA0C01904039
:10041000E41AA2BF01EB0451294330BD6FEA040482
:100420001F3C1CDA0C340EDC04F11404C4F120026D
:1004300020FA04F001FA02F340EA030021FA04F37F
:1004400045EA030130BDC4F10C04C4F1200220FAD6
:1004500002F001FA04F340EA0300294630BD21FA14
:1004600004F0294630BD94F0000F83F4801306BFDA
:1004700081F480110134013D4EE77FEA645C18BFCE
:100480007FEA655C29D094EA050F08BF90EA020F65
:1004900005D054EA000C04BF1946104630BD91EA5D
:1004A000030F1EBF0021002030BD5FEA545C05D160
:1004B0004000494128BF41F0004130BD14F580049F
:1004C0003CBF01F5801130BD01F0004545F0FE4113
:1004D00041F470014FF0000030BD7FEA645C1ABF48
:1004E000194610467FEA655C1CBF0B46024650EA7F
:1004F000013406BF52EA033591EA030F41F40021AB
:1005000030BD00BF90F0000F04BF0021704730B530
:100510004FF4806404F132044FF000054FF0000105
:1005200050E700BF90F0000F04BF0021704730B5C6
:100530004FF4806404F1320410F0004548BF40429B
:100540004FF000013EE700BF42004FEAE2014FEAF0
:1005500031014FEA02701FBF12F07F4393F07F4FCB
:1005600081F06051704732F07F4208BF704793F0CE
:100570007F4F04BF41F40021704730B54FF46074E1
:1005800001F0004521F000411CE700BF50EA0102E4
:1005900008BF704730B54FF000050AE050EA01028D
:1005A00008BF704730B511F0004502D5404261EBFD
:1005B00041014FF4806404F132045FEA915C3FF43E
:1005C000D8AE4FF003025FEADC0C18BF03325FEADB
:1005D000DC0C18BF033202EBDC02C2F1200300FA8C
:1005E00003FC20FA02F001FA03FE40EA0E0021FAB1
:1005F00002F11444BDE600BF70B54FF0FF0C4CF49F
:10060000E06C1CEA11541DBF1CEA135594EA0C0F50
:1006100095EA0C0F00F0DEF82C4481EA030621EA8B
:100620004C5123EA4C5350EA013518BF52EA0335C6
:1006300041F4801143F4801338D0A0FB02CE4FF078
:100640000005E1FB02E506F00042E0FB03E54FF0A8
:100650000006E1FB03569CF0000F18BF4EF0010EA0
:10066000A4F1FF04B6F5007F64F5407404D25FEA9C
:100670004E0E6D4146EB060642EAC62141EA55514F
:100680004FEAC52040EA5E504FEACE2EB4F1FD0C91
:1006900088BFBCF5E06F1ED8BEF1004F08BF5FEA0F
:1006A000500E50F1000041EB045170BD06F00046C1
:1006B00046EA010140EA020081EA0301B4EB5C046E
:1006C000C2BFD4EB0C0541EA045170BD41F4801166
:1006D0004FF0000E013C00F3AB8014F1360FDEBF8B
:1006E000002001F0004170BDC4F10004203C35DA67
:1006F0000C341BDC04F11404C4F1200500FA05F3EA
:1007000020FA04F001FA05F240EA020001F000428A
:1007100021F0004110EBD37021FA04F642EB060100
:100720005EEA430E08BF20EAD37070BDC4F10C042A
:10073000C4F1200500FA04F320FA05F001FA04F2EE
:1007400040EA020001F0004110EBD37041F10001DA
:100750005EEA430E08BF20EAD37070BDC4F12005E5
:1007600000FA05F24EEA020E20FA04F301FA05F24D
:1007700043EA020321FA04F001F0004121FA04F2F5
:1007800020EA020000EBD3705EEA430E08BF20EAC5
:10079000D37070BD94F0000F0FD101F000464000FF
:1007A00041EB010111F4801F08BF013CF7D041EA81
:1007B000060195F0000F18BF704703F00046520085
:1007C00043EB030313F4801F08BF013DF7D043EA56
:1007D0000603704794EA0C0F0CEA135518BF95EA0C
:1007E0000C0F0CD050EA410618BF52EA4306D1D193
:1007F00081EA030101F000414FF0000070BD50EAB2
:10080000410606BF1046194652EA430619D094EA3B
:100810000C0F02D150EA013613D195EA0C0F05D125
:1008200052EA03361CBF104619460AD181EA030179
:1008300001F0004141F0FE4141F470014FF0000031
:1008400070BD41F0FE4141F4780170BD70B54FF0CC
:10085000FF0C4CF4E06C1CEA11541DBF1CEA13554C
:1008600094EA0C0F95EA0C0F00F0A7F8A4EB05042E
:1008700081EA030E52EA03354FEA013100F0888025
:100880004FEA03334FF0805545EA131343EA1263EE
:100890004FEA022245EA111545EA10654FEA0026A3
:1008A0000EF000419D4208BF964244F1FD0404F55C
:1008B000407402D25B084FEA3202B61A65EB0305B8
:1008C0005B084FEA32024FF480104FF4002CB6EB75
:1008D000020E75EB030E22BFB61A754640EA0C00F5
:1008E0005B084FEA3202B6EB020E75EB030E22BF35
:1008F000B61A754640EA5C005B084FEA3202B6EB76
:10090000020E75EB030E22BFB61A754640EA9C0034
:100910005B084FEA3202B6EB020E75EB030E22BF04
:10092000B61A754640EADC0055EA060E18D04FEAC2
:10093000051545EA16754FEA06164FEAC30343EA62
:1009400052734FEAC2025FEA1C1CC0D111F4801F2F
:100950000BD141EA00014FF000004FF0004CB6E728
:1009600011F4801F04BF01430020B4F1FD0C88BFC7
:10097000BCF5E06F3FF6AFAEB5EB030C04BFB6EBD2
:10098000020C5FEA500C50F1000041EB045170BDC5
:100990000EF0004E4EEA113114EB5C04C2BFD4EBF2
:1009A0000C0541EA045170BD41F480114FF0000E76
:1009B000013C90E645EA060E8DE60CEA135594EAF2
:1009C0000C0F08BF95EA0C0F3FF43BAF94EA0C0FF5
:1009D0000AD150EA01347FF434AF95EA0C0F7FF46A
:1009E00025AF104619462CE795EA0C0F06D152EABE
:1009F00003353FF4FDAE1046194622E750EA4106A2
:100A000018BF52EA43067FF4C5AE50EA41047FF4B2
:100A10000DAF52EA43057FF4EBAE12E74FF0FF3C17
:100A200006E000BF4FF0010C02E000BF4FF0010CE8
:100A30004DF804CD4FEA410C7FEA6C5C4FEA430C61
:100A400018BF7FEA6C5C1BD001B050EA410C0CBFB0
:100A500052EA430C91EA030F02BF90EA020F002012
:100A6000704710F1000F91EA030F58BF994208BF79
:100A700090422CBFD8176FEAE37040F00100704736
:100A80004FEA410C7FEA6C5C02D150EA013C07D18D
:100A90004FEA430C7FEA6C5CD6D152EA033CD3D0D8
:100AA0005DF8040B704700BF8446104662468C46D2
:100AB0001946634600E000BF01B5FFF7B7FF002805
:100AC00048BF10F1000F01BD4DF808EDFFF7F4FF2E
:100AD0000CBF012000205DF808FB00BF4DF808EDB9
:100AE000FFF7EAFF34BF012000205DF808FB00BFDC
:100AF0004DF808EDFFF7E0FF94BF012000205DF8FE
:100B000008FB00BF4DF808EDFFF7CEFF94BF0120B2
:100B100000205DF808FB00BF4DF808EDFFF7C4FFAB
:100B200034BF012000205DF808FB00BF4FEA410CF4
:100B30007FEA6C5C02D150EA013C0AD14FEA430CD7
:100B40007FEA6C5C02D152EA033C02D14FF0000014
:100B500070474FF0010070474FEA410212F5001252
:100B600015D211D56FF47873B3EB625212D94FEAF4
:100B7000C12343F0004343EA505311F0004F23FADE
:100B800002F018BF404270474FF00000704750EA33
:100B9000013005D111F0004008BF6FF000407047F0
:100BA0004FF00000704700BF53B94AB9002908BF91
:100BB00000281CBF4FF0FF314FF0FF3000F088B924
:100BC000ADF1080C6DE904CE00F006F8DDF804E0A4
:100BD000DDE9022304B070472DE9F047089D8E46F9
:100BE00004468846002B4AD18A42174662D9B2FA97
:100BF00082F64EB1C6F1200301FA06F820FA03F39B
:100C0000B74043EA0808B4404FEA174E1FFA87FC82
:100C1000B8FBFEF1230C0EFB118843EA084301FBED
:100C20000CF29A4209D9FB1801F1FF3080F0EA80FA
:100C30009A4240F2E78002393B449A1AA3B2B2FBCF
:100C4000FEF00EFB102243EA024300FB0CFC9C4525
:100C500009D9FB1800F1FF3280F0D6809C4540F2A4
:100C6000D3803B44023840EA0140A3EB0C0300214F
:100C70001DB1F3400022C5E90032BDE8F0878B4288
:100C800005D90DB1C5E9000100210846F5E7B3FA21
:100C900083F1002946D1734502D3824200F20581D7
:100CA000841A6EEB030201209046002DE5D0C5E9C1
:100CB0000048E2E7002A00F09080B2FA82F6002EA7
:100CC00040F0A4808A1A030C4FEA174E80B2BCB2DF
:100CD0000121B2FBFEFC0EFB1C2243EA024304FB93
:100CE0000CF29A4207D9FB180CF1FF3802D29A4253
:100CF00000F2E080C4469B1AB3FBFEF20EFB1233F7
:100D000040EA034302FB04F49C4207D9FB1802F1BA
:100D1000FF3002D29C4200F2CA8002461B1B42EA0C
:100D20000C40A5E7C1F120068B4022FA06F71F43CD
:100D30000EFA01F420FA06F32EFA06FE4FEA1749DE
:100D4000234300FA01F81FFA87FCBEFBF9F01C0CE4
:100D500009FB10EE44EA0E4400FB0CFEA64502FA25
:100D600001F209D93C1900F1FF3A80F09C80A645B8
:100D700040F2998002383C44A4EB0E041FFA83FE33
:100D8000B4FBF9F309FB13444EEA044403FB0CFCE7
:100D9000A44508D93C1903F1FF3E80F08280A445A8
:100DA0007FD9023B3C4443EA0040A4EB0C04A0FB87
:100DB00002EC64457346E14662D35FD05DB1B8EBA7
:100DC000030264EB090404FA06F622FA01F31E4357
:100DD000CC40C5E9006400214FE7B1FBF2FC010CF7
:100DE00041EA0E4180B240EA01423B4638463C4669
:100DF000B846BE462026B1FBF7F1A2EB080241EA55
:100E00000C4166E7014618E710462CE7C6F12002C0
:100E10002EFA02F3B740B14020FA02F24FEA174E21
:100E20000A43B3FBFEF8BCB20EFB1833110C41EAC7
:100E3000034108FB04F9B04089454FEA104380B2F2
:100E40003ED9791808F1FF3C01D289451FD8A1EBA2
:100E50000901B1FBFEF909FB04F80EFB191192B26E
:100E600042EA0142424529D2BA1809F1FF31C4D2FF
:100E70004245C2D2A9F102013A44BEE7F0459DD2F3
:100E8000BEEB02036CEB070C0138E14696E7A7EBDB
:100E900009094944A8F1020CB1FBFEF909FB04F869
:100EA000DBE773467FE7504666E70846FDE63B44CE
:100EB000023A33E7ACF1020C3B441CE749469CE79D
:100EC000A1EB0901C446B1FBFEF909FB04F8C4E734
:100ED000704700BF80B400AF0B4B1A680B4B1B6808
:100EE0009A4205D3084B1A68084B1B68D31A06E0D0
:100EF000054B1A68054B1B68D31A03F500631846A7
:100F0000BD465DF8047B7047F4090020F809002015
:100F100080B487B000AF7860396000237B6172B61F
:100F200000BF00233B611BE0154B1B680133C3F37B
:100F30000A03FB60134B1B68FA689A4215D07A6863
:100F40003B691A440E4B1B6811780F4AD1540C4A66
:100F5000FB6813607B6901337B613B6901333B6153
:100F60003A693B689A42DFD300E000BF62B600BF37
:100F70007B6918461C37BD465DF8047B704700BF8F
:100F8000F4090020F8090020F401002080B485B0A5
:100F900000AF786039600023FB6072B600BF11E0DB
:100FA000124B1A687968FB680B4411498A5C1A7005
:100FB0000E4B1B680133C3F30A030C4A1360FB6832
:100FC0000133FB60094B1A680A4B1B689A4203D035
:100FD000FA683B689A42E3D362B600BFFB681846E2
:100FE0001437BD465DF8047B704700BFF809002048
:100FF000F4010020F409002080B500AF084B002266
:101000001A60084B00221A60074B00221A704FF436
:1010100000620021054805F09DF800BF80BD00BFBB
:10102000F4090020F8090020FC090020F401002048
:101030000FB480B5C2B000AF07F58A7207F58473AC
:10104000A3F584731A6007F58473A3F58473381DC0
:101050001B68D7F810214FF4807104F0D9FFC7F84E
:101060000401D7F80431002B06DDD7F804213B1D1D
:1010700011461846FFF74CFF00BF07F58477BD46C1
:10108000BDE8804004B0704780B584B000AF1C4B11
:101090001B78DBB2002B2CD1FFF71CFFF860FB683C
:1010A000002B28D0FB68B3F5807F28BF4FF48073F6
:1010B000BB60B9681348FFF769FF78607B68002B55
:1010C0001AD00F4B01221A707B689BB21A460D4949
:1010D0000D4803F073F80346FB70FB78002B0BD030
:1010E000074B00221A70FB781946084804F0AEFE40
:1010F00002E000BF00E000BF1037BD4680BD00BF6A
:10110000FC090020000A0020300C0020908000081C
:1011100080B500AF044B1B78DBB2002B01D1FFF789
:10112000B3FF00BF80BD00BFFC09002080B500AF49
:10113000034B00221A70FFF7A7FF00BF80BD00BF5E
:10114000FC09002080B582B000AF0A220A490B4892
:1011500000F0D2FF0346FB71FB79002B03D1084856
:10116000FFF766FF04E0FB7919460648FFF760FFCA
:1011700000BF0837BD4680BD000B00202C0B0020AF
:10118000F88000081881000880B485B000AF0346DD
:10119000FB80FB8807EE903AB8EE677ADFED116AC4
:1011A000C7EE267A9FED107A67EE877AC7ED037A4D
:1011B000D7ED037A9FED0D7A37EEC77ADFED0C6A33
:1011C000C7EE267AB3EE097A77EE877AC7ED027A10
:1011D000BB6807EE903AB0EE670A1437BD465DF87B
:1011E000047B704700F07F45333353405C8F423FB0
:1011F0000AD7233B80B584B000AF1B4B1B78DBB212
:10120000002B02D1194B1B6826E00023FB60002352
:10121000BB600AE0164ABB6832F813301A46FB6816
:101220001344FB60BB680133BB60BB68092BF1DD75
:10123000FB68104AA2FB0323DB08FB80FB881846EF
:10124000FFF7A2FFF0EE407A084BC3ED007A064BA1
:1012500000221A70054B1B6807EE903AB0EE670A41
:101260001037BD4680BD00BF140B00201C0B0020B2
:10127000000B0020CDCCCCCC80B584B002AF00F008
:10128000B7FD7860124B1B687A68D31AB3F57A7F82
:1012900018D3FFF7AFFF87ED000A3868FFF754F95E
:1012A00002460B460B49098808460A49498A014407
:1012B000C80F0144491000910748FFF7B9FE044ADE
:1012C0007B681360FFF724FF00BF0837BD4680BD71
:1012D000180B0020000B00204881000880B483B068
:1012E00000AF78607B68064A934202D1054B012229
:1012F0001A7000BF0C37BD465DF8047B704700BF15
:101300002C0B0020140B002080B500AF054B1B6890
:101310005868044B1B681B890122194602F078F9B2
:1013200000BF80BD0000002080B500AF094B1B68E6
:10133000094A1A60074B1B6808221A81054B1B6873
:10134000064A5A60FFF7E0FF0A2000F05DFD00BF8B
:1013500080BD00BF00000020D40B00200010024020
:1013600080B584B000AF3B4600221A605A609A6094
:10137000DA60214B214A1A601F4B4FF480325A60C9
:101380001D4B00229A601C4B00221A611A4B01224D
:101390001A76194B002283F82020174B0022DA62BC
:1013A000154B174A9A62144B0022DA60124B012245
:1013B000DA61114B012283F830200F4B01225A6170
:1013C0000D4800F045FD0346002B01D000F0E2F986
:1013D00010233B6001237B600523BB603B4619461D
:1013E000054800F0BBFF0346002B01D000F0D2F906
:1013F00000BF1037BD4680BD2C0B002000200140EF
:101400000100000F80B584B000AF78607B681B6876
:101410002A4A93424ED10023FB60294B5B6C284A39
:1014200043F480735364264B5B6C03F48073FB605E
:10143000FB68244B244A1A60224B00225A60214B3D
:1014400000229A601F4B0022DA601E4B4FF480622C
:101450001A611C4B4FF400625A611A4B4FF4005250
:101460009A61184B4FF48072DA61164B00221A62AF
:10147000144B04225A62134B00229A62114B002231
:10148000DA62104B00221A630E4801F023FB034678
:10149000002B01D000F07EF97B680A4A9A63094A62
:1014A0007B68936300220021122001F0DCFA1220F5
:1014B00001F0F5FA00BF1037BD4680BD00200140A5
:1014C00000380240740B00201064024080B582B0E6
:1014D00000AF00237B60174B1B6B164A43F40013CD
:1014E0001363144B1B6B03F400137B607B680023B6
:1014F0003B60104B1B6B0F4A43F4800313630D4B8F
:101500001B6B03F480033B603B68002200210E202C
:1015100001F0A9FA0E2001F0C2FA002200213820C1
:1015200001F0A1FA382001F0BAFA00BF0837BD4631
:1015300080BD00BF0038024080B58CB000AF07F11D
:101540001C0300221A605A609A60DA601A61002354
:10155000BB61344B1B6B334A43F010031363314BB5
:101560001B6B03F01003BB61BB6900237B612D4B38
:101570001B6B2C4A43F0040313632A4B1B6B03F0D1
:1015800004037B617B6900233B61264B1B6B254A6F
:1015900043F080031363234B1B6B03F080033B6119
:1015A0003B690023FB601F4B1B6B1E4A43F0020389
:1015B00013631C4B1B6B03F00203FB60FB680023EF
:1015C000BB60184B1B6B174A43F008031363154BA2
:1015D0001B6B03F00803BB60BB6800237B60114BEF
:1015E0001B6B104A43F0010313630E4B1B6B03F09C
:1015F00001037B607B68002208210B4802F008F899
:101600000823FB6101233B6200237B620023BB6252
:1016100007F11C031946044801F05EFE00BF303795
:10162000BD4680BD003802400010024080B584B045
:1016300000AFF860B9607A607B689AB26423B968D9
:10164000034802F030FD7B6818461037BD4680BD68
:10165000300C002080B582B000AF00F063FB00F0DA
:101660001FF8FFF769FFFFF731FF00F07BFA00F08A
:1016700097F8FFF775FE094804F050FCFFF754FE99
:10168000FFF7BAFCFFF75EFD00F0B2FB7860FFF7F2
:10169000F3FDFFF73DFD00BFF9E700BF90810008B3
:1016A00080B594B000AF07F1200330220021184626
:1016B00004F050FD07F10C0300221A605A609A6092
:1016C000DA601A610023BB60284B1B6C274A43F089
:1016D00080531364254B1B6C03F08053BB60BB68C5
:1016E00000237B60224B1B68214A43F48043136034
:1016F0001F4B1B6803F480437B607B6801233B62C4
:101700004FF480337B620223BB634FF48003FB639F
:1017100019233B644FF4A8737B640223BB64042346
:10172000FB6407F12003184601F08CFF0346002BF1
:1017300001D000F02FF80F23FB6002233B61002350
:101740007B614FF4A053BB614FF48053FB6107F101
:101750000C030521184602F0EDF90346002B01D0D9
:1017600000F018F800BF5037BD4680BD0038024079
:101770000070004080B582B000AF78607B68044A9A
:10178000934201D1FFF7D2FC00BF0837BD4680BDB0
:10179000300C002080B400AF72B600BF00BFFDE780
:1017A00080B500AF194B1A4A1A60184B4FF4827279
:1017B0005A60164B00229A60144B0022DA60134BD9
:1017C00000221A61114B00225A61104B4FF4007233
:1017D0009A610E4B0022DA610C4B00221A620B4B0D
:1017E00000225A62094B00229A62084B0A22DA62EE
:1017F000064802F07FFB0346002B01D0FFF7CAFF2B
:101800000449054804F022FB00BF80BDD40B002032
:1018100000380040B8810008A481000880B58AB073
:1018200000AF786007F1140300221A605A609A60D2
:10183000DA601A617B681B68284A93424AD1002308
:101840003B61274B1B6C264A43F480431364244BB3
:101850001B6C03F480433B613B690023FB60204B1E
:101860001B6B1F4A43F0040313631D4B1B6B03F0F8
:101870000403FB60FB680023BB60194B1B6B184A19
:1018800043F002031363164B1B6B03F00203BB60B0
:10189000BB680C237B610223BB610023FB61032334
:1018A0003B6205237B6207F1140319460D4801F0E2
:1018B00013FD4FF480637B610223BB610023FB6156
:1018C00003233B6205237B6207F114031946064894
:1018D00001F002FD00BF2837BD4680BD0038004042
:1018E00000380240000802400004024080B483B087
:1018F00000AF00237B60104B5B6C0F4A43F48043C6
:1019000053640D4B5B6C03F480437B607B68002366
:101910003B60094B1B6C084A43F080531364064B31
:101920001B6C03F080533B603B6800BF0C37BD4627
:101930005DF8047B704700BF0038024080B400AF00
:1019400000BFFDE780B400AF00BFFDE780B400AF8B
:1019500000BFFDE780B400AF00BFFDE780B400AF7B
:1019600000BFFDE780B400AF00BFBD465DF8047B5B
:10197000704780B400AF00BFBD465DF8047B704780
:1019800080B400AF00BFBD465DF8047B704780B5F2
:1019900000AF00F019FA00BF80BD000080B500AFB5
:1019A000024801F02FFA00BF80BD00BF780C002074
:1019B00080B500AF024800F08EFA00BF80BD00BFC6
:1019C0002C0B002080B500AF024802F073FC00BF72
:1019D00080BD00BF300C002080B500AF024801F090
:1019E00011FA00BF80BD00BF740B002080B400AFAF
:1019F00001231846BD465DF8047B704780B582B070
:101A000000AF7860396004F0F7FB034616221A60D5
:101A10004FF0FF3318460837BD4680BD80B582B011
:101A200000AF78604FF0FF317868FFF7E7FF00BF45
:101A3000FDE780B586B000AFF860B9607A6000233A
:101A40007B610AE0AFF300800146BB685A1CBA60B4
:101A5000CAB21A707B6901337B617A697B689A42EA
:101A6000F0DB7B6818461837BD4680BD80B483B074
:101A700000AF78604FF0FF3318460C37BD465DF875
:101A8000047B704780B483B000AF786039603B68F6
:101A90004FF400525A60002318460C37BD465DF8DB
:101AA000047B704780B483B000AF78600123184690
:101AB0000C37BD465DF8047B704780B485B000AF3D
:101AC000F860B9607A60002318461437BD465DF8A7
:101AD000047B704780B586B000AF7860144A154B20
:101AE000D31A7B617B693B61134B1B68002B02D1CE
:101AF000114B124A1A60104B1A687B6813443A69FA
:101B00009A4207D204F078FB03460C221A604FF089
:101B1000FF3309E0084B1B68FB60074B1A687B68C2
:101B20001344054A1360FB6818461837BD4680BD4C
:101B300000000220000400002C0C0020280E0020D1
:101B400080B400AF064BD3F88830054A43F47003E5
:101B5000C2F8883000BFBD465DF8047B704700BF07
:101B600000ED00E080B500AF114B124A1A60104B37
:101B70004FF4E1325A600E4B00229A600C4B002267
:101B8000DA600B4B00221A61094B0C225A61084B98
:101B900000229A61064B0022DA61054802F033FA0E
:101BA0000346002B01D0FFF7F5FD00BF80BD00BF4D
:101BB000300C00200048004080B58AB000AF78604B
:101BC00007F1140300221A605A609A60DA601A6101
:101BD0007B681B68394A93426BD100233B61384BC9
:101BE0001B6C374A43F480231364354B1B6C03F49E
:101BF00080233B613B690023FB60314B1B6B304A08
:101C000043F0080313632E4B1B6B03F00803FB60C8
:101C1000FB684FF440737B610223BB610123FB61CE
:101C200003233B6207237B6207F11403194625480F
:101C300001F052FB244B254A1A60234B4FF00062FF
:101C40005A60214B40229A601F4B0022DA601E4BE3
:101C50004FF480621A611C4B00225A611A4B002219
:101C60009A61194B0022DA61174B00221A62164B57
:101C700004225A62144B00229A62134B0022DA6249
:101C8000114B00221A63104800F024FF0346002B7A
:101C900001D0FFF77FFD7B680B4A9A630A4A7B6895
:101CA000936300220021272000F0DDFE272000F0B2
:101CB000F6FE00BF2837BD4680BD00BF004800408B
:101CC00000380240000C0240780C002058600240AE
:101CD000DFF834D0FFF734FF0C480D490D4A0023DC
:101CE00002E0D458C4500433C4188C42F9D30A4AD1
:101CF0000A4C002301E013600432A242FBD304F03B
:101D000081FAFFF7A7FC70470000022000000020C6
:101D1000D80100206C850008D8010020280E002082
:101D2000FEE7000080B500AF0E4B1B680D4A43F480
:101D3000007313600B4B1B680A4A43F48063136003
:101D4000084B1B68074A43F480731360032000F0BC
:101D50007FFE0F2000F008F8FFF7C8FD00231846AB
:101D600080BD00BF003C024080B582B000AF78600B
:101D7000124B1A68124B1B7819464FF47A73B3FB57
:101D8000F1F3B2FBF3F3184600F097FE0346002B85
:101D900001D001230EE07B680F2B0AD8002279685E
:101DA0004FF0FF3000F05FFE064A7B6813600023AF
:101DB00000E0012318460837BD4680BD040000201E
:101DC0000C0000200800002080B400AF064B1B78F8
:101DD0001A46064B1B681344044A136000BFBD46F5
:101DE0005DF8047B704700BF0C000020D80C002079
:101DF00080B400AF034B1B681846BD465DF8047BFA
:101E0000704700BFD80C002080B584B000AF786068
:101E1000FFF7EEFFB8607B68FB60FB68B3F1FF3F44
:101E200005D00A4B1B781A46FB681344FB6000BFC1
:101E3000FFF7DEFF0246BB68D31AFA689A42F7D86A
:101E400000BF00BF1037BD4680BD00BF0C000020A2
:101E500080B584B000AF78600023FB737B68002BF3
:101E600001D1012333E07B681B6C002B09D178681A
:101E7000FFF7C8FA7B6800225A647B68002283F867
:101E80003C207B681B6C03F01003002B18D17B688F
:101E90001B6C23F4885323F0020343F002027B6897
:101EA0001A64786800F07CFB7B6800225A647B68C7
:101EB0001B6C23F0030343F001027B681A6401E00A
:101EC0000123FB737B68002283F83C20FB7B1846D0
:101ED0001037BD4680BD80B586B000AF7860002366
:101EE0007B6100233B617B681B681B68FB607B6830
:101EF0001B685B68BB60FB6803F002037B61BB6827
:101F000003F020033B617B69002B49D03B69002B28
:101F100046D07B681B6C03F01003002B05D17B6857
:101F20001B6C43F400727B681A647B681B689B68B7
:101F300003F04053002B2BD17B681B7E002B27D155
:101F40007B681B68DB6A03F47003002B06D07B6898
:101F50001B689B6803F48063002B19D17B681B68A6
:101F60005A687B681B6822F020025A607B681B6CF1
:101F700023F480727B681A647B681B6C03F48053C3
:101F8000002B05D17B681B6C43F001027B681A644F
:101F90007868FFF7A3F97B681B686FF012021A607C
:101FA000FB6803F004037B61BB6803F080033B61C3
:101FB0007B69002B57D03B69002B54D07B681B6C8E
:101FC00003F01003002B05D17B681B6C43F4005217
:101FD0007B681A647B681B689B6803F44013002BC2
:101FE00039D17B681B689B6B03F44013002B06D030
:101FF0007B681B689B6803F48063002B2BD17B6894
:102000001B685B6803F48063002B24D17B681B682A
:102010009B6803F04053002B1DD17B681B7E002B77
:1020200019D17B681B685A687B681B6822F08002A4
:102030005A607B681B6C23F480527B681A647B684F
:102040001B6C03F48073002B05D17B681B6C43F081
:1020500001027B681A64786800F020FC7B681B68CA
:102060006FF00C021A60FB6803F001037B61BB6830
:1020700003F040033B617B69002B17D03B69002BC9
:1020800014D07B681B681B6803F00103012B0DD182
:102090007B681B6C43F480327B681A64786800F0BC
:1020A00049F97B681B686FF001021A60FB6803F056
:1020B00020037B61BB6803F080633B617B69002B7D
:1020C00015D03B69002B12D07B685B6C43F0020299
:1020D0007B685A647B681B686FF020021A6078681E
:1020E00000F032F97B681B686FF020021A6000BFB5
:1020F0001837BD4680BD000080B588B000AFF860DD
:10210000B9607A6000237B610023FB77FB6893F85A
:102110003C30012B01D10223EBE0FB68012283F864
:102120003C20FB681B689B6803F00103012B18D05F
:10213000FB681B689A68FB681B6842F001029A60A2
:102140006E4B1B686E4AA2FB03239A0C13465B007E
:1021500013447B6102E07B69013B7B617B69002B5F
:10216000F9D1FB681B689B6803F48073B3F5807F2B
:1021700007D1FB681B689A68FB681B6822F48072B1
:102180009A60FB681B689B6803F00103012B40F019
:10219000A380FB681B6C23F4E06323F0010343F48A
:1021A0008072FB681A64FB681B685B6803F48063D9
:1021B000002B07D0FB681B6C23F4405343F4805280
:1021C000FB681A64FB681B6C03F48053B3F5805FF3
:1021D00006D1FB685B6C23F00602FB685A6402E0E0
:1021E000FB6800225A64FB68002283F83C20454BC0
:1021F000BB61FB689B6B444ADA63FB689B6B434A99
:102200001A64FB689B6B424ADA64FB681B686FF0D8
:1022100022021A60FB681B685A68FB681B6842F060
:1022200080625A60FB681B689A68FB681B6842F40E
:1022300080729A60FB68986BFB681B684C33194688
:10224000BA687B6800F0F4FC0346FB77BB695B6807
:1022500003F01F03002B2AD1FB681B682D4A934211
:1022600015D0FB681B682C4A934205D1254B5B684F
:1022700003F01F03002B0AD0FB681B68274A934218
:1022800036D1204B5B6803F01003002B30D1FB6884
:102290001B689B6803F04053002B29D1FB681B6827
:1022A0009A68FB681B6842F080429A6020E0FB68F5
:1022B0001B68184A93421BD1FB681B689B6803F09C
:1022C0004053002B14D1FB681B689A68FB681B689D
:1022D00042F080429A600BE0FB681B6C43F01002F6
:1022E000FB681A64FB685B6C43F00102FB685A648C
:1022F000FB7F18462037BD4680BD00BF040000208C
:1023000083DE1B430023014099270008532800085F
:102310006F280008002001400021014000220140F8
:1023200080B483B000AF786000BF0C37BD465DF865
:10233000047B704780B483B000AF786000BF0C3777
:10234000BD465DF8047B704780B483B000AF786011
:1023500000BF0C37BD465DF8047B704780B485B084
:1023600000AF786039600023BB607B6893F83C3035
:10237000012B01D1022305E17B68012283F83C2077
:102380003B681B68092B25D97B681B68D9683B68AB
:102390001B689BB21A4613465B0013441E3B072280
:1023A00002FA03F3DA437B681B680A40DA607B6851
:1023B0001B68D9683B689A683B681B689BB21846E3
:1023C00003465B0003441E3B9A407B681B680A433C
:1023D000DA6022E07B681B6819693B681B689BB266
:1023E0001A4613465B001344072202FA03F3DA434A
:1023F0007B681B680A401A617B681B6819693B6827
:102400009A683B681B689BB2184603465B0003440E
:102410009A407B681B680A431A613B685B68062B1D
:1024200024D87B681B68596B3B685A6813469B002D
:102430001344053B1F2202FA03F3DA437B681B684F
:102440000A405A637B681B68596B3B681B689BB2E8
:1024500018463B685A6813469B001344053B00FA34
:1024600003F27B681B680A435A634CE03B685B6875
:102470000C2B24D87B681B68196B3B685A68134681
:102480009B001344233B1F2202FA03F3DA437B68C9
:102490001B680A401A637B681B68196B3B681B68E2
:1024A0009BB218463B685A6813469B001344233B73
:1024B00000FA03F27B681B680A431A6323E07B6817
:1024C0001B68D96A3B685A6813469B001344413B1A
:1024D0001F2202FA03F3DA437B681B680A40DA62C0
:1024E0007B681B68D96A3B681B689BB218463B68CF
:1024F0005A6813469B001344413B00FA03F27B6881
:102500001B680A43DA62224BFB607B681B68214A26
:10251000934209D13B681B68122B05D1FB685B68AD
:1025200043F48002FB685A607B681B68194A934237
:1025300023D13B681B68102B03D03B681B68112B11
:102540001BD1FB685B6843F40002FB685A603B6880
:102550001B68102B11D1104B1B68104AA2FB0323E0
:102560009A0C13469B0013445B00BB6002E0BB68FF
:10257000013BBB60BB68002BF9D17B68002283F86C
:102580003C20002318461437BD465DF8047B704795
:1025900000230140002001400400002083DE1B4393
:1025A00080B485B000AF7860794BFB60FB685B68F6
:1025B00023F44032FB685A60FB685A687B685B68AA
:1025C0001A43FB685A607B681B685A687B681B6803
:1025D00022F480725A607B681B6859687B681B69AB
:1025E0001A027B681B680A435A607B681B685A683A
:1025F0007B681B6822F040725A607B681B685968D0
:102600007B689A687B681B680A435A607B681B6812
:102610009A687B681B6822F400629A607B681B687A
:1026200099687B68DA687B681B680A439A607B68F4
:102630009B6A584A934222D07B681B689A687B68E1
:102640001B6822F070629A607B681B6899687B68DF
:102650009A6A7B681B680A439A607B681B689A6861
:102660007B681B6822F040529A607B681B689968FF
:102670007B68DA6A7B681B680A439A600FE07B68B4
:102680001B689A687B681B6822F070629A607B689E
:102690001B689A687B681B6822F040529A607B68CE
:1026A0001B689A687B681B6822F002029A607B684C
:1026B0001B6899687B681B7E5A007B681B680A430D
:1026C0009A607B6893F82030002B1BD07B681B68D6
:1026D0005A687B681B6842F400625A607B681B681A
:1026E0005A687B681B6822F460425A607B681B68EA
:1026F00059687B685B6A013B5A037B681B680A4325
:102700005A6007E07B681B685A687B681B6822F484
:1027100000625A607B681B68DA6A7B681B6822F477
:102720007002DA627B681B68D96A7B68DB69013BEF
:102730001A057B681B680A43DA627B681B689A6823
:102740007B681B6822F400729A607B681B6899683A
:102750007B6893F830305A027B681B680A439A60A2
:102760007B681B689A687B681B6822F480629A60A9
:102770007B681B6899687B685B699A027B681B6849
:102780000A439A6000BF1437BD465DF8047B70476A
:10279000002301400100000F80B584B000AF7860D5
:1027A0007B689B6BFB60FB681B6C03F05003002B8A
:1027B0003CD1FB681B6C43F40072FB681A64FB6835
:1027C0001B689B6803F04053002B2BD1FB681B7EDA
:1027D000002B27D1FB681B68DB6A03F47003002B16
:1027E00006D0FB681B689B6803F48063002B19D13B
:1027F000FB681B685A68FB681B6822F020025A605D
:10280000FB681B6C23F48072FB681A64FB681B6C0A
:1028100003F48053002B05D1FB681B6C43F00102CD
:10282000FB681A64F868FEF759FD0EE0FB681B6C44
:1028300003F01003002B03D0F868FFF785FD04E0D8
:10284000FB689B6BDB6C7868984700BF1037BD4610
:1028500080BD80B584B000AF78607B689B6BFB6007
:10286000F868FFF75DFD00BF1037BD4680BD80B53D
:1028700084B000AF78607B689B6BFB60FB68402294
:102880001A64FB685B6C43F00402FB685A64F868E6
:10289000FFF75AFD00BF1037BD4680BD80B483B03E
:1028A00000AF786000BF0C37BD465DF8047B704711
:1028B00080B485B000AF78607B6803F00703FB60ED
:1028C0000C4BDB68BB60BA684FF6FF031340BB607C
:1028D000FB681A02BB68134343F0BF6343F4003341
:1028E000BB60044ABB68D36000BF1437BD465DF8C7
:1028F000047B704700ED00E080B400AF044BDB6860
:102900001B0A03F007031846BD465DF8047B7047B9
:1029100000ED00E080B483B000AF0346FB7197F98F
:102920000730002B0BDBFB7903F01F02074997F9F7
:1029300007305B09012000FA02F241F8232000BFB2
:102940000C37BD465DF8047B704700BF00E100E036
:1029500080B483B000AF03463960FB7197F907304C
:10296000002B0ADB3B68DAB20C4997F907301201F9
:10297000D2B20B4483F800230AE03B68DAB208497C
:10298000FB7903F00F03043B1201D2B20B441A7619
:1029900000BF0C37BD465DF8047B704700E100E0E6
:1029A00000ED00E080B489B000AFF860B9607A60F3
:1029B000FB6803F00703FB61FB69C3F10703042B0A
:1029C00028BF0423BB61FB690433062B02D9FB69D2
:1029D000033B00E000237B614FF0FF32BB6902FA4A
:1029E00003F3DA43BB681A407B699A404FF0FF312A
:1029F0007B6901FA03F3D9437B680B401343184604
:102A00002437BD465DF8047B7047000080B582B076
:102A100000AF78607B68013BB3F1807F01D3012375
:102A20000FE00A4A7B68013B53600F214FF0FF30F3
:102A3000FFF78EFF054B00229A60044B07221A60B5
:102A4000002318460837BD4680BD00BF10E000E0F7
:102A500080B582B000AF78607868FFF729FF00BFCB
:102A60000837BD4680BD80B586B000AF0346B9606B
:102A70007A60FB7300237B61FFF73EFF78617A6821
:102A8000B9687869FFF78EFF024697F90F30114653
:102A90001846FFF75DFF00BF1837BD4680BD80B503
:102AA00082B000AF0346FB7197F907301846FFF775
:102AB00031FF00BF0837BD4680BD80B582B000AF92
:102AC00078607868FFF7A2FF034618460837BD46CE
:102AD00080BD000080B586B000AF786000237B61C8
:102AE000FFF786F938617B68002B01D1012399E05B
:102AF0007B68022283F835207B68002283F834202B
:102B00007B681B681A687B681B6822F001021A60E8
:102B10000FE0FFF76DF902463B69D31A052B08D980
:102B20007B6820225A657B68032283F835200323C3
:102B300078E07B681B681B6803F00103002BE8D179
:102B40007B681B681B687B617A69384B13407B612B
:102B50007B685A687B689B681A437B68DB681A430A
:102B60007B681B691A437B685B691A437B689B69B6
:102B70001A437B68DB691A437B681B6A13437A69D3
:102B800013437B617B685B6A042B07D17B68DA6A3D
:102B90007B681B6B13437A6913437B617B681B68FB
:102BA0007A691A607B681B685B697B617B6923F0CB
:102BB00007037B617B685B6A7A6913437B617B688F
:102BC0005B6A042B17D17B689B6A7A6913437B612C
:102BD0007B68DB6A002B0ED0786800F001FB0346AF
:102BE000002B08D07B6840225A657B68012283F85D
:102BF0003520012316E07B681B687A695A61786882
:102C000000F0B8FA0346FB607B68DB6D3F229A4018
:102C1000FB689A607B6800225A657B68012283F812
:102C20003520002318461837BD4680BD3F8010F080
:102C300080B586B000AFF860B9607A603B60002371
:102C4000FB75FB689B6D3B61FB6893F83430012B8F
:102C500001D1022340E0FB68012283F83420FB68A5
:102C600093F83530DBB2012B2FD1FB68022283F8B9
:102C70003520FB6800225A653B687A68B968F868B5
:102C800000F04AFAFB68DB6D3F229A403B699A608C
:102C9000FB681B681A68FB681B6842F016021A6022
:102CA000FB681B6C002B07D0FB681B681A68FB686D
:102CB0001B6842F008021A60FB681B681A68FB6810
:102CC0001B6842F001021A6005E0FB68002283F8ED
:102CD00034200223FB75FB7D18461837BD4680BDA6
:102CE00080B584B000AF78607B689B6DFB60FFF7B8
:102CF0007FF8B8607B6893F83530DBB2022B08D0E0
:102D00007B6880225A657B68002283F83420012387
:102D100052E07B681B681A687B681B6822F0160209
:102D20001A607B681B685A697B681B6822F0800206
:102D30005A617B681B6C002B03D17B689B6C002B5A
:102D400007D07B681B681A687B681B6822F0080242
:102D50001A607B681B681A687B681B6822F0010296
:102D60001A6013E0FFF744F80246BB68D31A052B3C
:102D70000CD97B6820225A657B68032283F83520B2
:102D80007B68002283F83420032315E07B681B68EE
:102D90001B6803F00103002BE4D17B68DB6D3F224D
:102DA0009A40FB689A607B68012283F835207B6833
:102DB000002283F83420002318461037BD4680BD1A
:102DC00080B483B000AF78607B6893F83530DBB2B5
:102DD000022B04D07B6880225A6501230CE07B68BB
:102DE000052283F835207B681B681A687B681B689E
:102DF00022F001021A60002318460C37BD465DF828
:102E0000047B704780B586B000AF78600023BB605C
:102E10008E4B1B688E4AA2FB03239B0A7B617B6857
:102E20009B6D3B613B691B68FB607B68DB6D082227
:102E30009A40FB681340002B1AD07B681B681B6804
:102E400003F00403002B13D07B681B681A687B68AF
:102E50001B6822F004021A607B68DB6D08229A402E
:102E60003B699A607B685B6D43F001027B685A6541
:102E70007B68DB6D01229A40FB681340002B12D067
:102E80007B681B685B6903F08003002B0BD07B68B9
:102E9000DB6D01229A403B699A607B685B6D43F071
:102EA00002027B685A657B68DB6D04229A40FB68EE
:102EB0001340002B12D07B681B681B6803F00203D1
:102EC000002B0BD07B68DB6D04229A403B699A6033
:102ED0007B685B6D43F004027B685A657B68DB6D41
:102EE00010229A40FB681340002B43D07B681B687C
:102EF0001B6803F00803002B3CD07B68DB6D1022BD
:102F00009A403B699A607B681B681B6803F48023C6
:102F1000002B18D07B681B681B6803F40023002B70
:102F200008D17B681B6C002B24D07B681B6C7868F5
:102F300098471FE07B689B6C002B1BD07B689B6CC9
:102F40007868984716E07B681B681B6803F48073F9
:102F5000002B07D17B681B681A687B681B6822F00E
:102F600008021A607B681B6C002B03D07B681B6C0B
:102F7000786898477B68DB6D20229A40FB68134095
:102F8000002B00F08F807B681B681B6803F0100328
:102F9000002B00F087807B68DB6D20229A403B6924
:102FA0009A607B6893F83530DBB2052B36D17B68AD
:102FB0001B681A687B681B6822F016021A607B681F
:102FC0001B685A697B681B6822F080025A617B6823
:102FD0001B6C002B03D17B689B6C002B07D07B689C
:102FE0001B681A687B681B6822F008021A607B68FD
:102FF000DB6D3F229A403B699A607B68012283F82F
:1030000035207B68002283F834207B681B6D002B01
:103010007ED07B681B6D7868984779E07B681B6879
:103020001B6803F48023002B1DD07B681B681B6882
:1030300003F40023002B0DD17B685B6C002B31D097
:103040007B685B6C786898472CE000BF0400002028
:10305000B5814E1B7B68DB6B002B23D07B68DB6B61
:10306000786898471EE07B681B681B6803F48073D0
:10307000002B0FD17B681B681A687B681B6822F0E5
:1030800010021A607B68012283F835207B680022D9
:1030900083F834207B68DB6B002B03D07B68DB6B11
:1030A000786898477B685B6D002B32D07B685B6DDE
:1030B00003F00103002B22D07B68052283F8352022
:1030C0007B681B681A687B681B6822F001021A6023
:1030D000BB680133BB607A699A4207D37B681B687F
:1030E0001B6803F00103002BF2D100E000BF7B68F6
:1030F000012283F835207B68002283F834207B6826
:10310000DB6C002B05D07B68DB6C7868984700E0AF
:1031100000BF1837BD4680BD80B485B000AFF860F1
:10312000B9607A603B60FB681B681A68FB681B68C3
:1031300022F480221A60FB681B683A685A60FB68B8
:103140009B68402B08D1FB681B687A689A60FB6813
:103150001B68BA68DA6007E0FB681B68BA689A60A7
:10316000FB681B687A68DA6000BF1437BD465DF8FB
:10317000047B704780B485B000AF78607B681B68C3
:10318000DBB2103B144AA2FB03231B09FB60134A6A
:10319000FB6813441B781A467B68DA65FB68032BCF
:1031A00009D97B681B6823F47F7323F003031A1D7E
:1031B0007B689A6507E07B681B6823F47F7323F0C4
:1031C00003037A6893657B689B6D18461437BD4688
:1031D0005DF8047B704700BFABAAAAAAE081000893
:1031E00080B485B000AF78600023FB737B689B6A76
:1031F000BB607B689B69002B1FD1BB68032B56D833
:1032000001A252F823F000BF193200082B32000847
:1032100019320008AF3200087B68DB6A03F0807364
:10322000002B46D00123FB7343E07B68DB6AB3F1DC
:10323000C07F40D10123FB733DE07B689B69B3F500
:10324000005F21D1BB68032B37D801A252F823F0CD
:1032500061320008673200086132000879320008E4
:103260000123FB7330E07B68DB6A03F08073002B83
:1032700025D00123FB7322E07B68DB6AB3F1C07FBA
:103280001FD10123FB731CE0BB68022B03D9BB6871
:10329000032B03D018E00123FB7315E07B68DB6A86
:1032A00003F08073002B0ED00123FB730BE000BFF3
:1032B0000AE000BF08E000BF06E000BF04E000BF76
:1032C00002E000BF00E000BFFB7B18461437BD469C
:1032D0005DF8047B704700BF80B489B000AF7860B0
:1032E000396000237B6100233B610023BB61002325
:1032F000FB616BE10122FB6902FA03F37B613B682E
:103300001B687A6913403B613A697B699A4240F0D5
:103310005A813B685B6803F00303012B05D03B68CF
:103320005B6803F00303022B30D17B689B68BB61B1
:10333000FB695B00032202FA03F3DB43BA69134023
:10334000BB613B68DA68FB695B0002FA03F3BA69A8
:103350001343BB617B68BA699A607B685B68BB6139
:103360000122FB6902FA03F3DB43BA691340BB6134
:103370003B685B681B0903F00102FB6902FA03F377
:10338000BA691343BB617B68BA695A603B685B6882
:1033900003F00303032B17D07B68DB68BB61FB6979
:1033A0005B00032202FA03F3DB43BA691340BB61FB
:1033B0003B689A68FB695B0002FA03F3BA6913433E
:1033C000BB617B68BA69DA603B685B6803F0030342
:1033D000022B23D1FB69DA087B68083253F82230CC
:1033E000BB61FB6903F007039B000F2202FA03F3A2
:1033F000DB43BA691340BB613B681A69FB6903F0A0
:1034000007039B0002FA03F3BA691343BB61FB692C
:10341000DA087B680832B96943F822107B681B68B8
:10342000BB61FB695B00032202FA03F3DB43BA6969
:103430001340BB613B685B6803F00302FB695B0000
:1034400002FA03F3BA691343BB617B68BA691A6075
:103450003B685B6803F44033002B00F0B48000232A
:10346000FB60604B5B6C5F4A43F4804353645D4B8D
:103470005B6C03F48043FB60FB685B4AFB699B0861
:10348000023352F82330BB61FB6903F003039B0056
:103490000F2202FA03F3DB43BA691340BB617B6876
:1034A000524A93422BD07B68514A934225D07B6885
:1034B000504A93421FD07B684F4A934219D07B6891
:1034C0004E4A934213D07B684D4A93420DD07B689D
:1034D0004C4A934207D07B684B4A934201D1072361
:1034E0000EE008230CE006230AE0052308E004238D
:1034F00006E0032304E0022302E0012300E00023AE
:10350000FA6902F0030292009340BA691343BB6167
:103510003549FB699B080233BA6941F823203B4BCC
:103520009B68BB613B69DB43BA691340BB613B6885
:103530005B6803F48013002B03D0BA693B69134323
:10354000BB61324ABB699360304BDB68BB613B694E
:10355000DB43BA691340BB613B685B6803F400134B
:10356000002B03D0BA693B691343BB61274ABB698F
:10357000D360264B5B68BB613B69DB43BA69134090
:10358000BB613B685B6803F40033002B03D0BA696E
:103590003B691343BB611D4ABB6953601B4B1B68EE
:1035A000BB613B69DB43BA691340BB613B685B6845
:1035B00003F48033002B03D0BA693B691343BB612A
:1035C000124ABB691360FB690133FB61FB690F2B76
:1035D0007FF690AE00BF00BF2437BD465DF8047B88
:1035E000704700BF00380240003801400000024030
:1035F0000004024000080240000C0240001002409B
:103600000014024000180240001C0240003C01402F
:1036100080B483B000AF78600B467B8013467B702C
:103620007B78002B03D07A887B689A6103E07B88E3
:103630001A047B689A6100BF0C37BD465DF8047BB5
:103640007047000080B586B000AF78607B68002BC3
:1036500001D1012367E27B681B6803F00103002BA3
:1036600075D0884B9B6803F00C03042B0CD0854B62
:103670009B6803F00C03082B12D1824B5B6803F4A8
:103680008003B3F5800F0BD17E4B1B6803F400332E
:10369000002B5BD07B685B68002B57D1012342E293
:1036A0007B685B68B3F5803F06D1764B1B68754A33
:1036B00043F4803313601DE07B685B68B3F5A02F93
:1036C0000CD1704B1B686F4A43F4802313606D4B21
:1036D0001B686C4A43F4803313600BE0694B1B6832
:1036E000684A23F480331360664B1B68654A23F4F1
:1036F000802313607B685B68002B13D0FEF778FB98
:10370000386108E0FEF774FB02463B69D31A642B6C
:1037100001D9032307E25B4B1B6803F40033002B42
:10372000F0D014E0FEF764FB386108E0FEF760FBC0
:1037300002463B69D31A642B01D90323F3E1514BB1
:103740001B6803F40033002BF0D100E000BF7B685E
:103750001B6803F00203002B63D04A4B9B6803F005
:103760000C03002B0BD0474B9B6803F00C03082B7A
:103770001CD1444B5B6803F48003002B16D1414BF2
:103780001B6803F00203002B05D07B68DB68012B6C
:1037900001D00123C7E13B4B1B6823F0F8027B6893
:1037A0001B69DB00374913430B603AE07B68DB6839
:1037B000002B20D0344B01221A60FEF719FB386130
:1037C00008E0FEF715FB02463B69D31A022B01D92C
:1037D0000323A8E12B4B1B6803F00203002BF0D05E
:1037E000284B1B6823F0F8027B681B69DB00254926
:1037F00013430B6015E0244B00221A60FEF7F8FA21
:10380000386108E0FEF7F4FA02463B69D31A022B4E
:1038100001D9032387E11B4B1B6803F00203002B34
:10382000F0D17B681B6803F00803002B36D07B685F
:103830005B69002B16D0154B01221A60FEF7D8FAEF
:10384000386108E0FEF7D4FA02463B69D31A022B2E
:1038500001D9032367E10B4B5B6F03F00203002BDD
:10386000F0D01BE0094B00221A60FEF7C1FA386164
:103870000EE0FEF7BDFA02463B69D31A022B07D9C8
:10388000032350E10038024000004742800E4742C7
:10389000884B5B6F03F00203002BEAD17B681B6847
:1038A00003F00403002B00F097800023FB75814B8D
:1038B0001B6C03F08053002B0FD10023BB607D4BAA
:1038C0001B6C7C4A43F0805313647A4B1B6C03F0EF
:1038D0008053BB60BB680123FB75774B1B6803F407
:1038E0008073002B18D1744B1B68734A43F48073A8
:1038F0001360FEF77DFA386108E0FEF779FA0246B8
:103900003B69D31A022B01D903230CE16A4B1B68D4
:1039100003F48073002BF0D07B689B68012B06D1E9
:10392000644B1B6F634A43F0010313671CE07B6821
:103930009B68052B0CD15F4B1B6F5E4A43F0040361
:1039400013675C4B1B6F5B4A43F0010313670BE08B
:10395000584B1B6F574A23F001031367554B1B6FDE
:10396000544A23F0040313677B689B68002B15D02F
:10397000FEF73EFA38610AE0FEF73AFA02463B6982
:10398000D31A41F28832934201D90323CBE0494B49
:103990001B6F03F00203002BEED014E0FEF728FAB1
:1039A00038610AE0FEF724FA02463B69D31A41F275
:1039B0008832934201D90323B5E03E4B1B6F03F0DD
:1039C0000203002BEED1FB7D012B05D1394B1B6C83
:1039D000384A23F0805313647B689B69002B00F006
:1039E000A180344B9B6803F00C03082B5CD07B68F0
:1039F0009B69022B41D1314B00221A60FEF7F8F986
:103A0000386108E0FEF7F4F902463B69D31A022B4D
:103A100001D9032387E0274B1B6803F00073002BB9
:103A2000F0D17B68DA697B681B6A1A437B685B6A42
:103A30009B011A437B689B6A5B08013B1B041A438A
:103A40007B68DB6A1B061B4913434B601B4B01223F
:103A50001A60FEF7CDF9386108E0FEF7C9F90246B1
:103A60003B69D31A022B01D903235CE0114B1B687D
:103A700003F00073002BF0D054E0104B00221A60CA
:103A8000FEF7B6F9386108E0FEF7B2F902463B6985
:103A9000D31A022B01D9032345E0064B1B6803F020
:103AA0000073002BF0D13DE07B689B69012B07D1AF
:103AB000012338E0003802400070004060004742B7
:103AC0001B4B5B68FB607B689B69012B28D0FB6804
:103AD00003F480027B68DB699A4221D1FB6803F022
:103AE0003F027B681B6A9A421AD1FA6847F6C07394
:103AF00013407A68526A9201934211D1FB6803F431
:103B000040327B689B6A5B08013B1B049A4207D1E9
:103B1000FB6803F070627B68DB6A1B069A4201D087
:103B2000012300E0002318461837BD4680BD00BFC2
:103B30000038024080B584B000AF786039607B689F
:103B4000002B01D10123CCE0684B1B6803F0070375
:103B50003A689A420CD9654B3A68D2B21A70634BF4
:103B60001B6803F007033A689A4201D00123B8E0CA
:103B70007B681B6803F00203002B20D07B681B6866
:103B800003F00403002B05D0594B9B68584A43F4BB
:103B9000E05393607B681B6803F00803002B05D09B
:103BA000534B9B68524A43F460439360504B9B686D
:103BB00023F0F0027B689B684D4913438B607B6860
:103BC0001B6803F00103002B44D07B685B68012B6A
:103BD00007D1474B1B6803F40033002B19D1012395
:103BE0007FE07B685B68022B03D07B685B68032BFC
:103BF00007D13F4B1B6803F00073002B09D1012351
:103C00006FE03B4B1B6803F00203002B01D1012343
:103C100067E0374B9B6823F003027B685B6834499D
:103C200013438B60FEF7E4F8F8600AE0FEF7E0F873
:103C30000246FB68D31A41F28832934201D903232A
:103C40004FE02B4B9B6803F00C027B685B689B008A
:103C50009A42EBD1254B1B6803F007033A689A425E
:103C60000CD2224B3A68D2B21A70204B1B6803F078
:103C700007033A689A4201D0012332E07B681B684F
:103C800003F00403002B08D0194B9B6823F4E05287
:103C90007B68DB68164913438B607B681B6803F005
:103CA0000803002B09D0124B9B6823F460427B6809
:103CB0001B69DB000E4913438B6000F021F80246BC
:103CC0000B4B9B681B0903F00F030A49CB5C22FADC
:103CD00003F3094A1360094B1B681846FEF744F8C2
:103CE000002318461037BD4680BD00BF003C02408F
:103CF00000380240C88100080400002008000020AD
:103D00002DE9B04F90B000AF00237B630023FB632D
:103D100000233B630023BB63594B9B6803F00C03F8
:103D2000082B0DD0082B00F2A180002B02D0042B11
:103D300003D09BE0534BBB639BE0534BBB6398E0CA
:103D40004F4B5B6803F03F037B634D4B5B6803F4B1
:103D50008003002B28D04A4B5B689B0900223B6202
:103D60007A623B6AC3F308000021474B03FB01F270
:103D7000002300FB03F31344434AA0FB0212FA6240
:103D80000A46BA62FA6A1344FB627B6B0022BB618B
:103D9000FA61D7E90623D7E90A01FCF705FF0246D5
:103DA0000B461346FB6353E0354B5B689B090022CF
:103DB0003B617A613B69C3F3080A4FF0000B52463E
:103DC0005B464FF000004FF00001590141EAD2611B
:103DD000500102460B46B2EB0A0863EB0B094FF0A9
:103DE00000024FF000034FEA891343EA98634FEA59
:103DF0008812B2EB080463EB09054FF000024FF0A4
:103E00000003EB0043EA5473E20014461D4614EB32
:103E10000A033B6045EB0B037B604FF000024FF061
:103E20000003D7E9004529468B02214643EA915316
:103E300021468A02104619467B6B0022BB60FA605D
:103E4000D7E90223FCF7B0FE02460B461346FB639C
:103E50000B4B5B681B0C03F0030301335B003B63FC
:103E6000FA6B3B6BB2FBF3F3BB6302E0054BBB6346
:103E700000BFBB6B18464037BD46BDE8B08F00BFE2
:103E8000003802400024F40040787D0180B400AF87
:103E9000034B1B681846BD465DF8047B704700BFA6
:103EA0000400002080B500AFFFF7F0FF0246054B8D
:103EB0009B689B0A03F007030349CB5C22FA03F3D8
:103EC000184680BD00380240D881000880B500AF98
:103ED000FFF7DCFF0246054B9B685B0B03F0070313
:103EE0000349CB5C22FA03F3184680BD0038024038
:103EF000D881000880B582B000AF78607B68002B65
:103F000001D101237BE07B685B6A002B08D17B68D1
:103F10005B68B3F5827F09D07B680022DA6105E037
:103F20007B6800221A617B6800225A617B6800224C
:103F30009A627B6893F85130DBB2002B06D17B6824
:103F4000002283F850207868FDF768FC7B68022225
:103F500083F851207B681B681A687B681B6822F015
:103F600040021A607B685B6803F482727B689B681E
:103F700003F404431A437B68DB6803F400631A43C9
:103F80007B681B6903F002031A437B685B6903F0DB
:103F900001031A437B689B6903F400731A437B682F
:103FA000DB6903F038031A437B681B6A03F0800364
:103FB00042EA03017B689B6A03F400527B681B683A
:103FC0000A431A607B689B691B0C03F004017B6841
:103FD0005B6A03F010027B681B680A435A607B68C7
:103FE0001B68DA697B681B6822F40062DA617B680F
:103FF00000225A657B68012283F85120002318466D
:104000000837BD4680BD80B582B000AF78607B6860
:10401000002B01D1012342E07B6893F84130DBB2F1
:10402000002B06D17B68002283F840207868FDF7DA
:10403000C3FD7B68242283F841207B681B68DA6813
:104040007B681B6822F40052DA60786800F0C6FED4
:104050007B681B681A697B681B6822F490421A61AE
:104060007B681B685A697B681B6822F02A025A61C8
:104070007B681B68DA687B681B6842F40052DA6070
:104080007B6800225A647B68202283F841207B6889
:10409000202283F842207B6800225A6300231846BE
:1040A0000837BD4680BD80B58AB002AFF860B96000
:1040B0003B601346FB8000237B61FB6893F8413033
:1040C000DBB2202B75D1BB68002B02D0FB88002B04
:1040D00001D101236EE0FB6800225A64FB682122B3
:1040E00083F84120FDF784FE7861FB68FA889A84A2
:1040F000FB68FA88DA84FB689B68B3F5805F08D1B7
:10410000FB681B69002B04D10023FB61BB68BB610A
:1041100003E0BB68FB610023BB612EE03B680093BA
:104120007B6900228021F86800F03DFC0346002BEB
:1041300005D0FB68202283F8412003233AE0FB6985
:10414000002B0BD1BB691B881A46FB681B68C2F3A6
:1041500008025A60BB690233BB6107E0FB691A7849
:10416000FB681B685A60FB690133FB61FB68DB8CF1
:104170009BB2013B9AB2FB68DA84FB68DB8C9BB292
:10418000002BCBD13B6800937B6900224021F8686B
:1041900000F009FC0346002B05D0FB68202283F8C1
:1041A0004120032306E0FB68202283F841200023FE
:1041B00000E0022318462037BD4680BD80B58CB094
:1041C00000AFF860B9601346FB80FB6893F841309C
:1041D000DBB2202B62D1BB68002B02D0FB88002B06
:1041E00001D101235BE0BA68FB681A62FB68FA88B8
:1041F0009A84FB68FA88DA84FB6800225A64FB68B8
:10420000212283F84120FB689B6B274ADA63FB6815
:104210009B6B264A1A64FB689B6B254ADA64FB6831
:104220009B6B00221A6507F10803FB62FB68986B21
:10423000FB6A1968FB681B6804331A46FB88FEF7A3
:10424000F7FC0346002B08D0FB6810225A64FB6879
:10425000202283F84120012321E0FB681B686FF0D6
:1042600040021A60FB681B681433BB61BB6953E8EA
:10427000003F7B617B6943F08003BB62FB681B6886
:104280001433BA6A7A623B62396A7A6A41E8002377
:10429000FB61FB69002BE5D1002300E002231846F7
:1042A0003037BD4680BD00BF5D480008F7480008B4
:1042B0001349000880B5BAB000AF78607B681B680E
:1042C0001B68C7F8E4307B681B68DB68C7F8E03020
:1042D0007B681B685B69C7F8DC300023C7F8D830FF
:1042E0000023C7F8D430D7F8E43003F00F03C7F841
:1042F000D830D7F8D830002B0FD1D7F8E43003F0FE
:104300002003002B09D0D7F8E03003F02003002B66
:1043100003D0786800F0A4FC73E2D7F8D830002B03
:1043200000F0DE80D7F8DC3003F00103002B06D16B
:10433000D7F8E03003F49073002B00F0D180D7F869
:10434000E43003F00103002B0BD0D7F8E03003F486
:104350008073002B05D07B685B6C43F001027B68A7
:104360005A64D7F8E43003F00403002B0BD0D7F8DD
:10437000DC3003F00103002B05D07B685B6C43F05D
:1043800002027B685A64D7F8E43003F00203002B82
:104390000BD0D7F8DC3003F00103002B05D07B688D
:1043A0005B6C43F004027B685A64D7F8E43003F096
:1043B0000803002B11D0D7F8E03003F02003002BC6
:1043C00005D1D7F8DC3003F00103002B05D07B6862
:1043D0005B6C43F008027B685A647B685B6C002B63
:1043E00000F00A82D7F8E43003F02003002B08D055
:1043F000D7F8E03003F02003002B02D0786800F0FB
:104400002FFC7B681B685B6903F04003402B0CBFEB
:1044100001230023DBB2C7F8D4307B685B6C03F068
:104420000803002B03D1D7F8D430002B4FD0786885
:1044300000F03AFB7B681B685B6903F04003402B8C
:1044400041D17B681B681433C7F89C30D7F89C3087
:1044500053E8003FC7F89830D7F8983023F040036E
:10446000C7F8D0307B681B681433D7F8D020C7F862
:10447000A820C7F8A430D7F8A410D7F8A82041E89E
:104480000023C7F8A030D7F8A030002BD9D17B6823
:10449000DB6B002B13D07B68DB6B8A4A1A657B6869
:1044A000DB6B1846FEF78CFC0346002B16D07B68AE
:1044B000DB6B1B6D7A68D26B104698470EE078680C
:1044C00000F0B6F90AE0786800F0B2F906E0786822
:1044D00000F0AEF97B6800225A648DE100BF8BE1E9
:1044E0007B681B6B012B40F06781D7F8E43003F049
:1044F0001003002B00F06081D7F8E03003F01003C8
:10450000002B00F059810023BB607B681B681B688F
:10451000BB607B681B685B68BB60BB687B681B68B3
:104520005B6903F04003402B40F0CE807B68DB6B7F
:104530001B685B68A7F8BE30B7F8BE30002B00F0F0
:10454000A9807B689B8DB7F8BE209A4280F0A2803C
:104550007B68B7F8BE20DA857B68DB6BDB69B3F577
:10456000807F00F088807B681B680C33C7F8883038
:10457000D7F8883053E8003FC7F88430D7F8843044
:1045800023F48073C7F8B8307B681B680C33D7F806
:10459000B820C7F89420C7F89030D7F89010D7F813
:1045A000942041E80023C7F88C30D7F88C30002BDA
:1045B000D9D17B681B6814337B677B6F53E8003F5E
:1045C0003B673B6F23F00103C7F8B4307B681B687F
:1045D0001433D7F8B420C7F88020FB67F96FD7F8F9
:1045E000802041E80023BB67BB6F002BE1D17B68D3
:1045F0001B6814333B663B6E53E8003FFB65FB6D65
:1046000023F04003C7F8B0307B681B681433D7F839
:10461000B020FA66BB66B96EFA6E41E800237B668D
:104620007B6E002BE3D17B68202283F842207B68DD
:1046300000221A637B681B680C33FB64FB6C53E835
:10464000003FBB64BB6C23F01003C7F8AC307B6841
:104650001B680C33D7F8AC20BA657B65796DBA6DF1
:1046600041E800233B653B6D002BE3D17B68DB6BAE
:104670001846FEF735FB7B6802225A637B689A8DE9
:104680007B68DB8D9BB2D31A9BB21946786800F029
:10469000D9F8B3E07B689B8DB7F8BE209A4240F012
:1046A000AD807B68DB6BDB69B3F5807F40F0A68073
:1046B0007B6802225A637B689B8D1946786800F0FC
:1046C000C1F89BE06F4B00087B689A8D7B68DB8D9F
:1046D0009BB2D31AA7F8CE307B68DB8D9BB2002B40
:1046E00000F08E80B7F8CE30002B00F089807B6818
:1046F0001B680C33BB63BB6B53E8003F7B637B6B76
:1047000023F49073C7F8C8307B681B680C33D7F864
:10471000C8207A643B64396C7A6C41E80023FB63FF
:10472000FB6B002BE3D17B681B6814337B627B6AD5
:1047300053E8003F3B623B6A23F00103C7F8C430F3
:104740007B681B681433D7F8C4203A63FB62F96AAC
:104750003A6B41E80023BB62BB6A002BE3D17B6864
:10476000202283F842207B6800221A637B681B6842
:104770000C333B613B6953E8003FFB60FB6823F06F
:104780001003C7F8C0307B681B680C33D7F8C02013
:10479000FA61BB61B969FA6941E800237B617B6911
:1047A000002BE3D17B6802225A63B7F8CE3019465A
:1047B000786800F047F823E0D7F8E43003F080038E
:1047C000002B09D0D7F8E03003F08003002B03D092
:1047D000786800F0DDF914E0D7F8E43003F0400326
:1047E000002B0ED0D7F8E03003F04003002B08D0A8
:1047F000786800F01DFA04E000BF02E000BF00E0AE
:1048000000BFE837BD4680BD80B483B000AF78609C
:1048100000BF0C37BD465DF8047B704780B483B0A1
:1048200000AF786000BF0C37BD465DF8047B704771
:1048300080B483B000AF786000BF0C37BD465DF830
:10484000047B704780B483B000AF78600B467B80F8
:1048500000BF0C37BD465DF8047B704780B590B053
:1048600000AF78607B689B6BFB637B681B681B6891
:1048700003F48073002B37D1FB6B0022DA84FB6BCF
:104880001B6814337B627B6A53E8003F3B623B6AE0
:1048900023F08003BB63FB6B1B681433BA6B3A6372
:1048A000FB62F96A3A6B41E80023BB62BB6A002BEA
:1048B000E5D1FB6B1B680C333B613B6953E8003F60
:1048C000FB60FB6843F040037B63FB6B1B680C33AE
:1048D0007A6BFA61BB61B969FA6941E800237B61CF
:1048E0007B69002BE5D102E0F86BFCF743FF00BFCA
:1048F0004037BD4680BD80B584B000AF78607B682E
:104900009B6BFB60F868FFF77FFF00BF1037BD4669
:1049100080BD80B584B000AF78600023FB607B6809
:104920009B6BBB60BB681B685B6903F08003802BDB
:104930000CBF01230023DBB2FB60BB6893F841305E
:10494000DBB2212B08D1FB68002B05D0BB6800220D
:10495000DA84B86800F080F8BB681B685B6903F014
:104960004003402B0CBF01230023DBB2FB60BB687C
:1049700093F84230DBB2222B08D1FB68002B05D024
:10498000BB680022DA85B86800F08EF8BB685B6C03
:1049900043F01002BB685A64B868FFF749FF00BFD4
:1049A0001037BD4680BD80B586B000AFF860B960F5
:1049B0003B601346FB713BE03B6AB3F1FF3F37D0EE
:1049C000FDF716FA02463B68D31A3A6A9A4202D3B6
:1049D0003B6A002B01D103233AE0FB681B68DB68CC
:1049E00003F00403002B23D0BB68802B20D0BB68CE
:1049F000402B1DD0FB681B681B6803F00803082BC5
:104A000016D100237B61FB681B681B687B61FB6818
:104A10001B685B687B617B69F86800F045F8FB68A0
:104A200008225A64FB68002283F8402001230FE02B
:104A3000FB681B681A68BB681340BA689A420CBFCF
:104A400001230023DBB21A46FB799A42B4D000233B
:104A500018461837BD4680BD80B489B000AF786075
:104A60007B681B680C33FB60FB6853E8003FBB604E
:104A7000BB6823F0C003FB617B681B680C33FA69D9
:104A8000BA617B617969BA6941E800233B613B699E
:104A9000002BE5D17B68202283F8412000BF24371A
:104AA000BD465DF8047B704780B495B000AF786078
:104AB0007B681B680C337B637B6B53E8003F3B6375
:104AC0003B6B23F49073FB647B681B680C33FA6CBC
:104AD0003A64FB63F96B3A6C41E80023BB63BB6B40
:104AE000002BE5D17B681B6814333B623B6A53E8BB
:104AF000003FFB61FB6923F00103BB647B681B681B
:104B00001433BA6CFA62BB62B96AFA6A41E80023EC
:104B10007B627B6A002BE5D17B681B6B012B19D173
:104B20007B681B680C33FB60FB6853E8003FBB608D
:104B3000BB6823F010037B647B681B680C337A6CC2
:104B4000BA617B617969BA6941E800233B613B69DD
:104B5000002BE5D17B68202283F842207B6800226D
:104B60001A6300BF5437BD465DF8047B704780B5BB
:104B700084B000AF78607B689B6BFB60FB680022B1
:104B8000DA85F868FFF754FE00BF1037BD4680BDD8
:104B900080B485B000AF78607B6893F84130DBB2B9
:104BA000212B3ED17B689B68B3F5805F14D17B6875
:104BB0001B69002B10D17B681B6AFB60FB681B889C
:104BC0001A467B681B68C2F308025A607B681B6A3E
:104BD0009A1C7B681A6208E07B681B6A591C7A6819
:104BE00011621A787B681B685A607B68DB8C9BB209
:104BF000013B9BB27A681946D184002B0FD17B68A8
:104C00001B68DA687B681B6822F08002DA607B68C8
:104C10001B68DA687B681B6842F04002DA60002398
:104C200000E0022318461437BD465DF8047B704748
:104C300080B582B000AF78607B681B68DA687B68FB
:104C40001B6822F04002DA607B68202283F8412052
:104C50007868FCF78FFD002318460837BD4680BDF5
:104C600080B58CB000AF78600023FB620023BB628C
:104C70007B6893F84230DBB2222B40F0AA807B683D
:104C80009B68B3F5805F15D17B681B69002B11D140
:104C90007B689B6ABB627B681B685B689BB2C3F3E3
:104CA00008039AB2BB6A1A807B689B6A9A1C7B686D
:104CB0009A6224E07B689B6AFB627B689B68B3F521
:104CC000805F07D07B689B68002B0AD17B681B69DB
:104CD000002B06D17B681B685B68DAB2FB6A1A702E
:104CE00008E07B681B685B68DBB203F07F03DAB225
:104CF000FB6A1A707B689B6A5A1C7B689A627B68A5
:104D0000DB8D9BB2013B9BB27A681946D185002BA3
:104D10005DD17B681B68DA687B681B6822F0200223
:104D2000DA607B681B68DA687B681B6822F4807233
:104D3000DA607B681B685A697B681B6822F0010295
:104D40005A617B68202283F842207B6800225A63E4
:104D50007B681B6B012B35D17B6800221A637B6853
:104D60001B680C337B617B6953E8003F3B613B6907
:104D700023F010037B627B681B680C337A6A3A620B
:104D8000FB61F9693A6A41E80023BB61BB69002B0A
:104D9000E5D17B681B681B6803F01003102B0AD158
:104DA0000023FB607B681B681B68FB607B681B68DB
:104DB0005B68FB60FB687B689B8D19467868FFF732
:104DC00041FD02E07868FFF729FD002302E000239F
:104DD00000E0022318463037BD4680BD2DE9B04FB4
:104DE000C0B000AFC7F8F400D7F8F4301B681B69F7
:104DF00023F44050D7F8F430D968D7F8F4301A6863
:104E000040EA01031361D7F8F4309A68D7F8F43018
:104E10001B691A43D7F8F4305B691A43D7F8F430AA
:104E2000DB691343C7F8F830D7F8F4301B68DB6848
:104E300023F4164121F00C01D7F8F4301A68D7F8A2
:104E4000F8300B43D360D7F8F4301B685B6923F468
:104E50004070D7F8F4309969D7F8F4301A6840EA0E
:104E600001035361D7F8F4301A688F4B9A4205D08A
:104E7000D7F8F4301A688D4B9A4204D1FFF726F820
:104E8000C7F8FC0003E0FFF70DF8C7F8FC00D7F8FF
:104E9000F430DB69B3F5004F40F00C81D7F8FC30FB
:104EA0000022C7F8E830C7F8EC20D7E93A45224697
:104EB0002B469118B9655B41FB65D7E9162321465E
:104EC00012EB0108294643EB01094FF000024FF0B5
:104ED00000034FEAC90343EA58734FEAC8029046F9
:104EE0009946234618EB0303C7F8E0302B4649EBFD
:104EF0000303C7F8E430D7F8F4305B680022C7F842
:104F0000D830C7F8DC20D7E936120B46DB183B65F2
:104F1000134642EB03037B65D7E91423D7E9380135
:104F2000FBF742FE02460B46614BA3FB02235B09E3
:104F30001C01D7F8FC300022C7F8D030C7F8D420C5
:104F4000D7E9348942464B469118B9645B41FB640A
:104F5000D7E91223414612EB010A494643EB010B04
:104F60004FF000024FF000034FEACB0343EA5A73BD
:104F70004FEACA0292469B4643461AEB0303C7F820
:104F8000C8304B464BEB0303C7F8CC30D7F8F430AE
:104F90005B680022C7F8C030C7F8C420D7E93012D8
:104FA0000B46DB183B64134642EB03037B64D7E9F3
:104FB0001023D7E93201FBF7F7FD02460B461146F5
:104FC0003B4BA3FB01235B09642202FB03F3CB1AD7
:104FD000DB0003F13202364BA3FB02235B095B00CB
:104FE00003F4F8731C44D7F8FC300022C7F8B8303B
:104FF000C7F8BC20D7E92E8942464B469118B963C1
:105000005B41FB63D7E90E2341465118396349469A
:105010004B417B634FF000024FF00003D7E90CAB2C
:105020005946CB00514643EA51735146CA001046D7
:105030001946034642469B18C7F8B0304B460A460D
:1050400042EB0303C7F8B430D7F8F4305B680022B2
:10505000C7F8A830C7F8AC20D7E92A120B46DB18EE
:10506000BB62134642EB0303FB62D7E90A23D7E98D
:105070002C01FBF799FD02460B460D4BA3FB0213D7
:105080005B09642101FB03F3D31ADB003233084AC6
:10509000A2FB03235B0903F00702D7F8F4301B6877
:1050A00022449A6006E100BF001001400014014054
:1050B0001F85EB51D7F8FC300022C7F8A030C7F8A5
:1050C000A420D7E9288942464B46911839625B41B2
:1050D0007B62D7E9082341465418494643EB010552
:1050E0004FF000024FF00003EB0043EA5473E2007C
:1050F00014461D464346E318C7F898304B4645EB27
:105100000303C7F89C30D7F8F4305B680022C7F877
:105110009030C7F894204FF000024FF00003D7E919
:10512000244529468B00214643EA917321468A0093
:10513000D7E92601FBF738FD02460B46604BA3FB7F
:1051400002235B091C01D7F8FC300022C7F8883025
:10515000C7F88C20D7E9228942464B469118B9619D
:105160005B41FB61D7E90623414651183961494645
:105170004B417B614FF000024FF00003D7E904ABD5
:105180005946CB00514643EA51735146CA00104676
:105190001946034642469B18C7F880304B460A46DC
:1051A00042EB0303C7F88430D7F8F4305B68002281
:1051B000BB67FA674FF000024FF00003D7E91E8982
:1051C00049468B00414643EA917341468A00D7E93C
:1051D0002001FBF7E9FC02460B461146384BA3FBC6
:1051E00001235B09642202FB03F3CB1A1B01323358
:1051F000334AA2FB03235B0903F0F0031C44D7F8F6
:10520000FC3000223B677A67D7E91C8942464B464F
:105210009118B9605B41FB60D7E902234146511800
:10522000396049464B417B604FF000024FF000036C
:10523000D7E900AB5946CB00514643EA517351467A
:10524000CA0010461946034642469B18BB664B46A9
:105250000A4642EB0303FB66D7F8F4305B68002292
:105260003B667A664FF000024FF00003D7E91889D9
:1052700049468B00414643EA917341468A00D7E98B
:105280001A01FBF791FC02460B460D4BA3FB0213E0
:105290005B09642101FB03F3D31A1B013233084A73
:1052A000A2FB03235B0903F00F02D7F8F4301B685D
:1052B00022449A6000BF07F58077BD46BDE8B08FF5
:1052C0001F85EB512DE9FF4757EC106B002F0C4663
:1052D00019463B46BBBF07F100431F4600232D2361
:1052E0000B700D9BDDF830A0914623F02008BCBF69
:1052F00032461646B8F1460F05D0B8F1450F00D139
:105300000134022100E0032103AB019302AB0093BF
:1053100047EC106B5346224601F026F8B8F1470FD0
:10532000054619D119F0010F0ED000EB0409002237
:10533000002330463946FBF7C7FB08B1CDF80C9087
:105340003022039B4B451ED3039B0E9A5B1B2846C2
:10535000136004B0BDE8F087B8F1460F00EB040914
:10536000E5D10378302B0AD100220023304639469C
:10537000FBF7AAFB18B9C4F10104CAF80040DAF837
:1053800000309944D3E7591C03911A70D9E7F7B557
:105390000029BABF49422D232B23092902704370EB
:1053A00029DD0DF107031D460A271A46B1FBF7F662
:1053B00007FB1614303402F8014C0C46632C03F141
:1053C000FF333146F1DC3031941E03F8011C411CDF
:1053D0002346AB420AD30DF109039B1AAC4288BFA6
:1053E000002302330344181A03B0F0BD13F8016B15
:1053F00001F8016FEDE7302330318370C170031D78
:10540000F1E700002DE9F04F8DB00C46DDF8588033
:1054100016461F46054600F0A5FE0368049318468D
:10542000FAF726FF00230A93D8F8003005900733D7
:1054300023F0070303F1080294F818A0D4F800B091
:10544000C8F80020D3E9008929F000430793CDF87C
:105450001880C4E91289DDE906019C4B4FF0FF3248
:10546000FBF764FB70BBDDE90601984B4FF0FF32A0
:10547000FBF73EFB30BB0022002340464946FBF7CA
:105480002DFB10B12D2384F84330914A914BBAF192
:10549000470F8CBF90469846032323612BF00403EB
:1054A00023604FF00009009733460BAA2146284697
:1054B00000F0D2F9013040F08D804FF0FF300DB098
:1054C000BDE8F08F42464B4640464946FBF72EFB6F
:1054D00040B14B46002BBCBF2D2384F843307E4A9D
:1054E0007E4BD4E763680AF0DF0206925A1C3BD178
:1054F000062363604BF480620023226003930AABAF
:10550000CDE901A309AB0093616849EC108B0DF163
:1055100023032846FFF7D6FE069B0999472B8046B2
:1055200029D1C81C02DB6368994241DDAAF1020A55
:105530005FFA8AFA0139524604F150000991FFF7E7
:1055400026FF0A9A1318012A8146236102DC226889
:10555000D20701D5013323619DF82330002BA2D05F
:105560002D2384F843309EE7069A472AC2D1002BA8
:10557000C0D10123BDE7BAF1650FDBD9BAF1660FDF
:1055800018D1002963680BDD216113B92268D007A7
:1055900002D501330B442361A1654FF00009DBE71D
:1055A00013B92268D20701D50233F4E70123F2E7E9
:1055B0004FF0670A0A9B994205DB23682161D807EF
:1055C000EAD54B1CE7E70029D4BFC1F10202012252
:1055D0001344E0E723685A0507D42369424631465D
:1055E0002846B84701302BD167E7BAF1650F40F282
:1055F000DD80D4E9120100220023FBF765FA0028C0
:1056000033D0374A012331462846B84701303FF4AA
:1056100054AFDDE90938434502DB2368D8070FD5CD
:10562000DDE9042331462846B84701303FF445AF51
:105630004FF0000908F1FF3804F11A0AC84509DCE7
:1056400023689B0700F10381E0680B9B9842B8BF79
:10565000184634E70123524631462846B847013000
:105660003FF42BAF09F10109E8E7099B002B39DC76
:105670001B4A012331462846B84701303FF41DAF8D
:10568000DDE9093959EA030302D12368D907D7D5DF
:10569000DDE9042331462846B84701303FF40DAF19
:1056A0004FF0000A04F11A0B099B5B42534501DCE1
:1056B0004B4693E701235A4631462846B847013006
:1056C0003FF4FBAE0AF1010AEEE700BFFFFFEF7FF8
:1056D000EC810008E8810008F4810008F0810008EE
:1056E000F8810008A36DDDF828A05345A8BF5346F4
:1056F000002B994636DC4FF0000B29EAE97904F1DA
:105700001A02A36D0693A3EB09035B4531DC099BE9
:105710009A453ADC2368DA0737D4099BAAEB0309D8
:10572000069BAAEB03039945A8BF9946B9F1000F60
:1057300033DC4FF0000829EAE97904F11A0B099BE0
:10574000AAEB0303A3EB090343457FF779AF0123DA
:105750005A4631462846B84701303FF4AEAE08F10C
:105760000108ECE7424631462846B8470130C2D12D
:10577000A3E60123314628460692B84701303FF49C
:105780009CAE069A0BF1010BBBE7DDE90423314621
:105790002846B8470130C0D18FE6069A4B464244AE
:1057A00031462846B8470130C3D186E6DDF828A047
:1057B000BAF1010F01DCDB0736D501234246314641
:1057C0002846B84701303FF478AEDDE9042331467E
:1057D0002846B84701303FF470AED4E912010022E8
:1057E00000230AF1FF3AFBF76FF9C0B9534608F1FD
:1057F000010231462846B84701300CD15DE601234D
:105800005A4631462846B84701303FF456AE08F1B3
:105810000108D045F3DB4B4604F15002DFE64FF0C0
:10582000000804F11A0BF4E701234246E1E70123E3
:105830004A4631462846B84701303FF43EAE08F1AB
:105840000108E3680B995B1A4345F0DCFCE64FF076
:10585000000804F11909F4E72DE9F04716469846C7
:105860008A680B69DDF820909342B8BF1346336015
:1058700091F8432007460C460AB101333360236890
:10588000990642BF336802333360256815F0060578
:1058900006D104F1190AE36832689B1AAB4226DC90
:1058A00094F843302268003B18BF012392062BD4A2
:1058B00004F1430241463846C84701301ED02368F0
:1058C000226903F00603042B02BFE5683368ED1A72
:1058D000A3680CBF25EAE57500259342C4BF9B1A57
:1058E000ED1800261A34B5421AD1002008E0012331
:1058F000524641463846C847013003D14FF0FF3089
:10590000BDE8F0870135C6E7E1185A1C302081F860
:105910004300224494F8451082F843100233C7E74D
:105920000123224641463846C8470130E6D00136B9
:10593000D9E700002DE9FF470F7E0C9E782F914696
:1059400080460C469A4601F1430207D8622F0AD8D6
:10595000002F00F0D180582F00F0B88004F14206EB
:1059600084F842703AE0A7F16303152BF6D801A141
:1059700051F823F0CD590008E15900085D5900089D
:105980005D5900085D5900085D590008E15900089B
:105990005D5900085D5900085D5900085D5900080F
:1059A000DF5A00080B5A0008995A00085D59000890
:1059B0005D590008015B00085D5900080B5A00089A
:1059C0005D5900085D590008A15A000833681A1D86
:1059D0001B68326004F1420684F8423001239CE0E7
:1059E00033682068191D3160060601D51D6803E083
:1059F0004506FBD5B3F90050002D03DA2D236D4287
:105A000084F8433058480A2311E0216833680806B7
:105A100053F8045B02D4490648BFADB26F2F524819
:105A2000336014BF0A230823002184F843106668FA
:105A3000A660002E05DB21682E4321F004012160C1
:105A40004BD01646B5FBF3F103FB1157C75D06F8C3
:105A5000017D2F46BB420D46F4D9082B0BD123689C
:105A6000DF0708D5236961689942DEBF302306F855
:105A7000013C06F1FF36921B2261CDF800A04B4697
:105A800003AA21464046FFF7E7FE01304AD14FF016
:105A9000FF3004B0BDE8F087236843F020032360A3
:105AA0003248782784F84570236831681F0651F81A
:105AB000045B02D45F0648BFADB23160D90744BF72
:105AC00043F0200323601DB11023ADE72648E9E72A
:105AD000236823F020032360F6E71646BDE733680A
